:020000040800F2
:10000000B016002439030008375B00089B4D000838
:10001000355B0008CB050008F96B00080000000004
:100020000000000000000000000000003760000831
:10003000CD05000800000000395B000839600008A9
:100040005303000853030008530300085303000838
:100050005303000853030008530300085303000828
:100060005303000853030008530300085303000818
:100070005303000853030008530300085303000808
:1000800053030008530300085303000853030008F8
:1000900053030008530300085303000853030008E8
:1000A00053030008530300085303000853030008D8
:1000B000C56100085303000853030008A94D000858
:1000C0009D4D000853030008530300085303000824
:1000D00053030008ED6B00085303000853030008A6
:1000E00053030008530300080000000053030008F6
:1000F0005303000853030008530300085303000888
:100100005303000853030008530300085303000877
:100110005303000853030008530300085303000867
:100120005303000853030008530300085303000857
:100130005303000853030008530300085303000847
:1001400000000000000000000000000000000000AF
:100150005303000853030008530300085303000827
:100160005303000853030008530300085303000817
:100170005303000853030008530300080000000065
:1001800053030008530300085303000853030008F7
:1001900053030008530300085303000853030008E7
:1001A00053030008530300085303000853030008D7
:1001B00053030008530300085303000853030008C7
:1001C00053030008530300085303000853030008B7
:1001D00053030008530300085303000853030008A7
:1001E0005303000853030008530300085303000897
:1001F0005303000853030008530300085303000887
:100200005303000853030008530300085303000876
:100210005303000853030008530300085303000866
:1002200053030008530300085303000800000000B4
:1002300053030008530300080000000053030008A4
:100240005303000853030008530300085303000836
:100250005303000853030008530300085303000826
:100260005303000853030008530300085303000816
:100270005303000853030008530300080000000064
:100280005303000853030008530300080000000054
:10029000000000005303000800F002F800F03CF8F2
:1002A0000AA090E8000C82448344AAF10107DA45D1
:1002B00001D100F031F8AFF2090EBAE80F0013F0E7
:1002C000010F18BFFB1A43F001031847B8B600002E
:1002D000D8B60000103A24BF78C878C1FAD85207BF
:1002E00024BF30C830C144BF04680C6070470000B0
:1002F0000023002400250026103A28BF78C1FBD82F
:10030000520728BF30C148BF0B6070471FB506F0C9
:100310003DFD1FBD10B510BD00F00AF91146FFF7F5
:10032000F5FF06F087FC00F03CF903B4FFF7F2FF9D
:1003300003BC00F043F90000094880470948004722
:10034000FEE7FEE7FEE7FEE7FEE7FEE7FEE7FEE785
:10035000FEE7FEE704480549054A064B70470000E2
:10036000E160000899020008B0060024B0160024DD
:10037000B00E0024B00E002453EA020C00F0698095
:100380002DE9F04B4FF00006002B1FBFB3FA83F5A9
:1003900003FA05F424FA05F65E4012BF1643B2FADA
:1003A00082F502FA05F4C5F120051EBF22FA05FC0C
:1003B00044EA0C04203556EA044C4FEA144418BFB2
:1003C000641C4FF000084FF00009904271EB030CE1
:1003D00039D3002919BFB1FA81F701FA07F6B0FA4B
:1003E00080F700FA07F6C7F120071EBF20FA07FCC6
:1003F00046EA0C062037B6FBF4FCA7EB0507103FD6
:1004000007F01F0BCBF120060CFA0BFB2CFA06F6BB
:1004100044BFB3460026202FA4BF5E464FF0000B1A
:100420005BEA060C08BF4FF0010B19EB0B09ABFBA5
:10043000027C48EB0608C01B06FB02CC0BFB03CC7E
:1004400071EB0C01C1E70B46024641464846BDE848
:10045000F08B13B54FF000004FF00001AFF30080B8
:10046000BDE81C40704700000FB4044910B503AA52
:10047000029800F02FF810BC5DF814FB1400002463
:100480004FF0000200B5134694469646203922BF2D
:10049000A0E80C50A0E80C50B1F12001BFF4F7AF78
:1004A000090728BFA0E80C5048BF0CC05DF804EB5A
:1004B000890028BF40F8042B08BF704748BF20F8C8
:1004C000022B11F0804F18BF00F8012B70477047C6
:1004D00070477047074B70B50D467B4400F011F82C
:1004E0000446284600F020F810B14FF0FF3070BDF0
:1004F000204670BD4367000001694A1C026108780C
:10050000704700B58FB0CDE9013100210591054953
:100510007944CDE903101146684600F02EF80FB07B
:1005200000BD0000E5FFFFFF007B00F0800070478A
:10053000754600F03FF8AE4605006946534620F088
:100540000700854618B020B5FFF704FFBDE820403E
:100550004FF000064FF000074FF000084FF0000B7F
:1005600021F00701AC46ACE8C009ACE8C009ACE832
:10057000C009ACE8C0098D4670472DE9F041064638
:100580000024D6E90170F5688046304603E0414614
:10059000B847641C3046A8470028F8D12046BDE87B
:1005A000F08110B50446AFF300802046BDE810404E
:1005B000FFF7BBBE004870474C06002401491820D5
:1005C000ABBEFEE7260002007047FEE7704772B63A
:1005D000FEE700002DE9F84F044600F015FD002C61
:1005E000009008D094F83500022805D0802161657C
:1005F000002084F83400E3E0C84DC84EC7491835E0
:1006000020683036DFF81883DFF818938842DFF867
:1006100018A3DFF818B32ED0A8422CD0B0422AD0AD
:10062000404528D0484526D0504524D0584522D0B2
:10063000BE4A183290421ED0BD4A90421BD0BC4ADE
:100640001832904217D0BA4A3032904213D0B84A8A
:10065000483290420FD0B64A603290420BD0B44A32
:100660007832904207D0B24A9032904203D0B04ADA
:10067000A832904209D1026822F01E02026020686E
:10068000426922F08002426103E0026822F00E0219
:10069000026027688F4238464DD0A8424BD0B04206
:1006A00049D0404547D0484545D0504543D05845AE
:1006B00041D09E4A183290423DD09D4A90423AD055
:1006C0009B4A1832904236D0994A3032904232D00A
:1006D000974A483290422ED0954A603290422AD0B2
:1006E000934A7832904226D0914A9032904222D05A
:1006F0008F4AA83290421ED08E4A90421BD08D4A1B
:100700001432904217D08B4A2832904213D0894A33
:100710003C3290420FD0874A503290420BD0854AEB
:100720006432904207D0834A7832904203D0814AA3
:100730008C32974204D1206E026822F480720260EB
:1007400076492068884228D0A84226D0B04224D0DA
:10075000404522D0484520D050451ED058451CD099
:1007600072491831884218D07149884215D07049B1
:100770001831884211D06E49303188420DD06C4911
:100780004831884209D06A496031884205D06849B9
:100790007831884201D066499031016821F0010129
:1007A000016010E000F030FC0099401A05280AD9D9
:1007B000202262650020032184F8340084F835107B
:1007C0000120BDE8F88F3868C007EBD1534A0121FA
:1007D000206890422ED0A8422CD0B0422AD040456A
:1007E00028D0484526D0504524D0584522D04F4BDC
:1007F000183398421ED04E4B98421BD04C4B1833A6
:10080000984217D04A4B3033984213D0484B483364
:1008100098420FD0464B603398420BD0444B78330C
:10082000984207D0424B9033984203D0404BA833B4
:10083000984208D194F85C703F23A06D07F01F0721
:10084000BB40836007E094F85C30A06D03F01F03A9
:1008500001FA03F34360206890424DD0A8424BD088
:10086000B04249D0404547D0484545D0504543D097
:10087000584541D02D4A183290423DD02C4A9042E2
:100880003AD02B4A1832904236D0294A3032904220
:1008900032D0274A483290422ED0254A60329042C8
:1008A0002AD0234A7832904226D0214A9032904270
:1008B00022D01F4AA83290421ED01E4A90421BD01E
:1008C0001C4A1432904217D01A4A2832904213D050
:1008D000184A3C3290420FD0164A503290420BD008
:1008E000144A6432904207D0124A7832904203D0C0
:1008F000104A8C3290420BD1D4E919024260E06E6A
:1009000030B1026822F480720260D4E91C024260B5
:10091000002084F8340084F8351052E710000240BB
:10092000580002407000024088000240A0000240CF
:1009300010040240085402582DE9F05F28B190F8E5
:100940003510022904D0802141650120BDE8F09FC7
:10095000904C904B0168183C18338E4ADFF83C925B
:10096000A1428D4CDFF838E28E4FDFF83CB2DFF861
:100970003CA28F4D8F4E31D091422FD099422DD035
:10098000A1422BD0494529D0714527D0B94225D065
:10099000DFF810C20CF1180C61451FD0DFF808C257
:1009A000ACF1600C614519D0DFF8FCC1ACF1480C2A
:1009B000614513D0DFF8F0C1ACF1300C61450DD0CA
:1009C000DFF8E4C1ACF1180C614507D0594505D0FA
:1009D000514503D0A94201D0B1422CD1DFF8B4C1B6
:1009E0004FF0040880F83580ACF1180C61451DD03B
:1009F00091421BD0994219D0A14217D0494515D038
:100A0000714513D0B94211D06648183081420DD0DB
:100A100065486038814209D063484838814205D032
:100A200061483038814201D05F481838086820F0AA
:100A300001000860ABE0D1F800C02CF00E08DFF830
:100A400054C1C1F80080ACF1180C0168614527D091
:100A5000914225D0994223D0A14221D049451FD0AF
:100A600071451DD0B9421BD0DFF838C10CF1180C0C
:100A7000614515D0DFF830C1ACF1600C61450FD095
:100A8000DFF824C1ACF1480C614509D0DFF818C18A
:100A9000ACF1300C614503D0DFF80CC1ACF1180C9F
:100AA000D1F800C02CF0010CC1F800C0DFF8E480E0
:100AB0004FF0010C0168A8F11808414546D0914259
:100AC00044D0994242D0A14240D049453ED07145E0
:100AD0003CD0B9423AD0334A1832914236D0324AE9
:100AE000603A914232D0304A483A91422ED02E4A52
:100AF000303A91422AD02C4A183A914226D0594590
:100B000024D0514522D0A94220D0B1421ED02A4A39
:100B100091421BD0284A1432914217D0264A2832DB
:100B2000914213D0244A3C3291420FD0224A503293
:100B300091420BD0204A6432914207D01E4A78324B
:100B4000914203D01C4A8C32914218D1016E0A683E
:100B500022F480720A6090F85C20816D02F01F021E
:100B60000CFA02F24A60D0E919124A60C16E31B142
:100B70000A6822F480720A60D0E91C124A600022DE
:100B8000016D80F8342080F835C001B1884700201D
:100B9000DCE60000280002405800024070000240DD
:100BA00088000240A0000240700402408804024015
:100BB000A0040240B80402400854025890F83500DE
:100BC0007047000070B5044600F01EFA0546601C30
:100BD00002D004480078044400F016FA401BA042FA
:100BE000FAD370BD000000242DE9FC5FDFF8C0924D
:100BF0000027DFF8C0820D46DFF8BCA24845DFF8C9
:100C0000BCB204461FD054451DD05C451BD0AC4837
:100C1000844218D0AB48844215D0AB48844212D0ED
:100C2000AA4884420FD0AA4884420CD0A9488442E2
:100C300009D0A948844206D0A848844203D0BB21E9
:100C4000A7A005F0EBFF28680104090C01D0000CF7
:100C500003D0BC21A2A005F0E1FF6868F8B101282B
:100C60001DD011281BD0022819D0122817D0AB494B
:100C7000884214D0AA49884211D0AA4988420ED08D
:100C8000A94988420BD0A949884208D0A84988427E
:100C900005D0032803D0BD2191A005F0BFFFA868AF
:100CA000002807D00128FCD00228FAD0BE218CA051
:100CB00005F0B4FFF4E00120B840064000907DD07C
:100CC0006868012805D0022803D0112801D0122815
:100CD0001DD1E86848B1012807D0022805D00328B3
:100CE00003D0CE217EA005F099FFA16803237A00EE
:100CF000E8689340904099430843A0606068297970
:100D0000009AC1F300119043B94001436160E1686A
:100D100003207B000193AA689840814300909A4089
:100D20000A43E2606868022801D0122839D14C4594
:100D30001FD054451DD05C451BD06148844218D05B
:100D40006048844215D06048844212D05F48844293
:100D50000FD05F4884420CD05E48844209D05E4880
:100D6000844206D05D48844203D0E6215CA005F0B1
:100D700055FF28690F2803D9E72159A005F04EFF38
:100D8000F80829690F2304EB80024FEA477C106AB8
:100D90004FEADC6C03FA0CF3984301FA0CF10143BF
:100DA000116228792168009A00F003009143019AAA
:100DB0009040084320606868C00000E06FE06ED596
:100DC0005C48016841F002010160006827F00302FD
:100DD00002F1B04200F002000090B8070F21030FAB
:100DE000D2F8080499404C4520EA010001D10021C5
:100DF0002BE0544501D1012127E05C4501D10221BE
:100E000023E02F498C4201D103211EE02D498C4261
:100E100001D1042119E02C498C4201D1052114E0B3
:100E20002A498C4201D106210FE029498C4201D187
:100E300007210AE027498C4201D1082105E0264913
:100E40008C4201D1092100E00A2199400143C2F8F6
:100E50000814D8F80000696820EA0600C90300D524
:100E60003043C8F80000D8F80400696820EA06009A
:100E7000890300D53043C8F804004FF0B0406A68D9
:100E80000168D20221EA060100D5314301606A6897
:100E90004168920221EA060100D5314341607F1C7E
:100EA0002E6836FA07F07FF406AFBDE8FC9F00001D
:100EB0000000025880000058000402580008025840
:100EC000000C025800100258001402580018025872
:100ED000001C025800200258002402580028025822
:100EE0002E2E2F447269766572732F53544D333210
:100EF000483778785F48414C5F4472697665722F55
:100F00005372632F73746D3332683778785F68611A
:100F10006C5F6770696F2E630000000000001111A4
:100F200000002111000031110000121100002211F7
:100F300000003211F444025870B50C00054604D18B
:100F400004A040F28D1105F069FE2869204000D010
:100F5000012070BD2E2E2F447269766572732F5357
:100F6000544D3332483778785F48414C5F4472695A
:100F70007665722F5372632F73746D3332683778CE
:100F8000785F68616C5F6770696F2E6300000000B6
:100F900070B50C001546064604D109A040F2AD110B
:100FA00005F03CFE45B1012D04D005A04FF4D771EA
:100FB00005F034FEB46170BD2004B06170BD000066
:100FC0002E2E2F447269766572732F53544D33322F
:100FD000483778785F48414C5F4472697665722F74
:100FE0005372632F73746D3332683778785F68613A
:100FF0006C5F6770696F2E63000000000148006835
:10100000000C70470010005C0148806870470000C9
:101010000000002470B50D4622490446006888424D
:101020000CD02149884209D02049884206D0204965
:10103000884203D064211FA005F0F0FD35B1B5F55D
:10104000805F03D065211BA005F0E8FD94F8410006
:10105000202824D194F84000012820D0012184F8D0
:101060004010242084F841002021002220680368D9
:1010700023F0010303602068036823F480530360B6
:10108000206803682B4303602068036843F0010372
:10109000036084F84110002084F8402070BD0220D5
:1010A00070BD00000054004000580040005C00404B
:1010B000001C00582E2E2F447269766572732F53D0
:1010C000544D3332483778785F48414C5F447269F9
:1010D0007665722F5372632F73746D33326837786D
:1010E000785F68616C5F6932635F65782E630000CA
:1010F00070B50D4620490446006888420CD01F494F
:10110000884209D01E49884206D01E49884203D031
:1011100092211DA005F082FD0F2D03D993211AA065
:1011200005F07CFD94F84100202822D194F840007D
:1011300001281ED0012184F84010242084F84100A9
:10114000202200232068016821F00101016020684D
:10115000016821F4706141EA05210160206801689D
:1011600041F00101016084F84120002084F8403002
:1011700070BD022070BD00000054004000580040C7
:10118000005C0040001C00582E2E2F4472697665CA
:1011900072732F53544D3332483778785F48414C3F
:1011A0005F4472697665722F5372632F73746D3367
:1011B00032683778785F68616C5F6932635F657841
:1011C0002E6300007047704730B403689A6919684D
:1011D000D243D40509D4CC43240606D4456C4FF43D
:1011E000807445F001054564DC6153050AD4CB43A6
:1011F0001B0607D4446C4FF4806344F00804446435
:101200000468E36192050AD4C943090607D4426C15
:101210004FF4007142F0020242640268D161416CF5
:1012200011F00B0F02D030BC03F05ABE30BC704737
:101230000268436B91691268002B00D01847704711
:101240007047000070B5040064D05B492068884294
:101250000DD05A4988420AD05949884207D0594985
:10126000884204D058A040F2E51105F0D7FCA068F0
:10127000B0F5806F04D354A04FF4F37105F0CEFCA9
:10128000E068012806D0022804D04FA040F2E71100
:1012900005F0C4FC206938B1B0F5004F04D04FF41C
:1012A000F47149A005F0BAFC6069FF2804D946A092
:1012B00040F2E91105F0B2FCA06990B1012810D00C
:1012C00002280ED003280CD004280AD0052808D004
:1012D000062806D0072804D03BA04FF4F57105F08E
:1012E0009DFCE06938B1B0F5002F04D036A040F283
:1012F000EB1105F093FC206A38B1B0F5003F04D043
:101300004FF4F67130A005F089FC94F841000025F7
:1013100010B106E0012070BD204684F8405000F076
:1013200073F8242084F841002068016821F001014D
:101330000160D4E9001020F07060086120688168C5
:1013400021F400418160E06821680128A06806D08E
:1013500040F404408860E068022803D006E040F4CE
:101360000040F7E721684FF40060486020212068C2
:10137000234A4368134343602068C26822F4004252
:10138000C26054F8106B0DCC104340EA0320F060AB
:1013900054F81C3CD4E900021043186054F81C0DAA
:1013A000026842F001020260656484F8411025631E
:1013B00084F84250002070BD0054004000580040A6
:1013C000005C0040001C00582E2E2F447269766588
:1013D00072732F53544D3332483778785F48414CFD
:1013E0005F4472697665722F5372632F73746D3325
:1013F00032683778785F68616C5F6932632E6300AA
:10140000008000027047000010B5B6B004461421F9
:101410002FA8FFF735F8BC216846FFF731F81F49C0
:101420002068884238D10820009000246846209423
:1014300000F00AFB08B1FFF7CAF81948016841F04B
:101440000201016000682FAB122100F0020034900D
:10145000C020042283E8130012482FA9CDE93242AC
:10146000FFF7C2FB0E480830016841F4001101602B
:1014700000680022114600F4001034901F2000F094
:10148000ADF81F2000F078F800222020114600F06F
:10149000A5F8202000F070F836B010BD00540040D0
:1014A000E0440258000402587047704702488168BF
:1014B000027811448160704700000024032010B5B9
:1014C00000F0DAF801F08EFB0F4A10491468136837
:1014D000C4F3032203F00F038A5CC95C02F01F020D
:1014E00001F01F01D0400A4A20FA01F111600949B8
:1014F0000860002000F010F808B1012010BD00F0D5
:101500002BF8002010BD000018440258BE6D0008E2
:10151000100000240C00002470B50D4D04462878FE
:10152000A0B14FF47A71B1FBF0F00A490968B1FB40
:10153000F0F002F0BBFA48B9102C07D20022214685
:10154000501E00F04BF800206C6070BD012070BD93
:10155000000000240C000024064882B0016841F01D
:1015600002010160006800F002000090052002B056
:1015700000F082B8F444025810B5040003D5BE212F
:1015800007A005F04BFB002C09DB6009012180005E
:1015900004F01F0200F1E0209140C0F8001110BDDE
:1015A0002E2E2F447269766572732F53544D333249
:1015B000483778785F48414C5F4472697665722F8E
:1015C0005372632F73746D3332683778785F686154
:1015D0006C5F636F727465782E63000070B5102ABB
:1015E00014460D46064603D3AA2113A005F016FBA8
:1015F000102D03D3AB2110A005F010FB1D4800688F
:10160000C0F30223C3F10702042A00D90422181DE3
:10161000072801D2002300E0DB1E012101FA02F0BD
:101620009940401E2840491E9840214001433046C1
:10163000BDE8704005F0E1BA2E2E2F447269766540
:1016400072732F53544D3332483778785F48414C8A
:101650005F4472697665722F5372632F73746D33B2
:1016600032683778785F68616C5F636F7274657831
:101670002E6300000CED00E070B5072804460BD087
:10168000062C09D0052C07D0042C05D0032C03D040
:10169000922108A005F0C2FA154904F007024FF69E
:1016A000FF050868134B284040EA022018430860F1
:1016B00070BD00002E2E2F447269766572732F5311
:1016C000544D3332483778785F48414C5F447269F3
:1016D0007665722F5372632F73746D333268377867
:1016E000785F68616C5F636F727465782E63000069
:1016F0000CED00E00000FA0570B50228044606D0A3
:10170000012C04D015A040F23F1105F087FA2248C1
:101710000168C943490705D5006800F00700A042E9
:1017200013D118E0016821F0070121430160FFF7A0
:101730006BFC194D4FF47A760446083D07E000BF74
:10174000FFF762FC001BB04201D9012070BD286880
:10175000C0438004F4D4002070BD00002E2E2F441E
:101760007269766572732F53544D333248377878E7
:101770005F48414C5F4472697665722F5372632FE4
:1017800073746D3332683778785F68616C5F707737
:10179000725F65782E6300000C48025810B501F0A6
:1017A000DBF905490968054AC1F30211515C01F0F2
:1017B0001F01C84010BD000020440258BE6D000843
:1017C000494930B5484C0B1D0A68143409681D6836
:1017D000246802F00303C5F30012C1F30531C4F31A
:1017E000CC04002914FB02F200EE102AF8EE400AA5
:1017F00075D03F4A9FED3D1AB7EE000A6BB1DFEDA1
:101800003D1A012B01D0022B64D002EE101A116890
:10181000F8EE422A81EEA22A21E0334C283C2368CC
:101820009B0612D5344B246801EE901A1168C4F35C
:10183000C104F8EE612AE34001EE903AC1F30801D9
:10184000F8EE611A81EEA22A0BE001EE901ADFEDAC
:101850002B2A00BFF8EE611A116882EEA12AC1F3AB
:10186000080101EE901A1168F8EE611A40EE811A33
:1018700071EE800A62EE200AC1F3462101EE101AD1
:10188000B8EE411A31EE001AC0EE811ABCEEE11A30
:1018900080ED001A1168C1F3064101EE101AB8EE8E
:1018A000411A31EE001AC0EE811ABCEEE11A80ED49
:1018B000011A1168C1F3066101EE101AB8EE411A5F
:1018C00031EE000A80EE801ABCEEC10A80ED020AF9
:1018D00030BD04E001EE901ADFED092ABAE70021DD
:1018E000016041608160F3E728440258000000393C
:1018F000384402580024744A0090D0030024744CE9
:10190000001B374B494930B5484C0B1D0A681C3445
:1019100009681D68246802F00303C5F30022C1F3BF
:101920000551C4F3CC04002914FB02F200EE102A86
:10193000F8EE400A75D03F4A9FED3D1AB7EE000A17
:101940006BB1DFED3D1A012B01D0022B64D002EE0A
:10195000101A1168F8EE422A81EEA22A21E0334CD7
:10196000283C23689B0612D5344B246801EE901A5C
:101970001168C4F3C104F8EE612AE34001EE903A25
:10198000C1F30801F8EE611A81EEA22A0BE001EE24
:10199000901ADFED2B2A00BFF8EE611A116882EE73
:1019A000A12AC1F3080101EE901A1168F8EE611A3C
:1019B00040EE811A71EE800A62EE200AC1F34621E0
:1019C00001EE101AB8EE411A31EE001AC0EE811A7B
:1019D000BCEEE11A80ED001A1168C1F3064101EE78
:1019E000101AB8EE411A31EE001AC0EE811ABCEEA0
:1019F000E11A80ED011A1168C1F3066101EE101AB7
:101A0000B8EE411A31EE000A80EE801ABCEEC10A2F
:101A100080ED020A30BD04E001EE901ADFED092AE4
:101A2000BAE70021016041608160F3E72844025871
:101A300000000039404402580024744A0090D0034A
:101A40000024744C001B374B2DE9FC5F044650F812
:101A5000241B002500902E460801FE4FDFF8F89366
:101A60001DD5606E50B1B0F5801F0CD0B0F5001FD1
:101A70000ED0B0F5401F1DD001250FE0386840F4AE
:101A80000030386016E00221201D04F057F803E012
:101A90000098022104F04AF905000BD02E46208858
:101AA000C00523D5606D05281ED2DFE800F00C11BB
:101AB000161B1B00626ED9F8001021F4401111436F
:101AC000C9F80010EBE7386840F40030386009E0EE
:101AD0000021201D04F032F803E00098002104F0FA
:101AE00025F905466DB100E001252E4620888005C8
:101AF00028D5A06D80281ED00CDC90B140280ED1D6
:101B000014E0626DD9F8001021F007011143C9F803
:101B10000010EBE7C02813D0B0F5807F10D001256E
:101B20000FE0386840F40030386009E00021201DE3
:101B300004F004F803E00098002104F0F7F80546EB
:101B400095B12E462088DFF81083400508F108087B
:101B50002CD5D4F8A400B0F5800F20D00DDCA0B1B6
:101B6000B0F5001F0FD115E0A26DD9F8001021F4D7
:101B7000E0711143C9F80010E4E7B0F5C00F13D0CD
:101B8000B0F5000F10D001250FE0386840F40030A8
:101B9000386009E00021201D03F0D0FF03E0009829
:101BA000002104F0C3F8054675B12E4620880005D3
:101BB0002DD5D4F8A800B0F1007F21D00EDCA8B15B
:101BC000B0F1807F10D116E0D4F8A420D8F800102E
:101BD00021F460011143C8F80010E7E7B0F1407F3D
:101BE00013D0B0F1806F10D001250FE0386840F4B9
:101BF0000030386009E00021201D03F09FFF03E062
:101C00000098002104F092F805466DB12E46206838
:101C100080011FD5A06CD8B110280FD0202812D079
:101C2000302815D0012514E0D4F8A820D8F80010E9
:101C300021F0E0611143C8F80010E8E7386840F48B
:101C40000030386004E00221201D03F077FF0546D4
:101C50006DB12E462088C0042BD5E06DB0F5005F35
:101C600020D00DDCA0B1B0F5805F0FD115E07A482F
:101C7000A26C001F016821F0300111430160E9E707
:101C8000B0F5405F13D0B0F5804F10D001250FE0C4
:101C9000386840F40030386009E00021201D03F06E
:101CA0004DFF03E00098002104F040F8054685B19F
:101CB0002E462088800429D5206EB0F5403F23D0E1
:101CC00010DC08B3B0F5803F14D0B0F5003F0FD161
:101CD00015E0E26DD9F8001021F4E0411143C9F894
:101CE0000010E6E7B0F5802F0ED0B0F5A02F0BD096
:101CF00001250AE00121201D03F020FF03E00098E8
:101D0000012104F013F805468DB12E4620884004C9
:101D10002AD5D4F8AC00B0F1405F23D010DC08B372
:101D2000B0F1805F14D0B0F1005F0FD115E0226EEA
:101D3000D9F8001021F4E0211143C9F80010E5E7BB
:101D4000B0F1804F0ED0B0F1A04F0BD001250AE0CA
:101D50000121201D03F0F2FE03E00098012103F0B1
:101D6000E5FF05466DB12E46208800041FD5E06EC4
:101D7000D8B1B0F1805F0ED0B0F1005F10D0012576
:101D800014E0D4F8AC20D8F8001021F0E041114361
:101D9000C8F80010E8E7386840F40030386004E024
:101DA0000121201D03F0CAFE05466DB12E462068B4
:101DB000C0011ED5606CD0B101280ED0022811D010
:101DC000032814D0012513E0E26ED9F8001021F0A9
:101DD00040511143C9F80010E9E7386840F4003079
:101DE000386004E00221201D03F0A8FE0546ADB3D3
:101DF0002E462068DFF85CB04002ABF11C0B7DD5AD
:101E0000D4F8B000B0F5807F79D0B0F5007F76D0FF
:101E1000B0F50C5F73D0B0F54C5F70D0B0F5864F65
:101E20006DD0B0F5A64F6AD0B0F5C64F67D0B0F50B
:101E3000E64F64D0B0F5034F61D0B0F5134F5ED0DC
:101E4000B0F5234F5BD0B0F5334F58D0B0F5434FCA
:101E500055D004E02C44025850440258A9E0B0F593
:101E6000534F4CD0B0F5634F49D0B0F5734F46D0C7
:101E7000F749884243D0F749884240D0F649884222
:101E80003DD0F64988423AD0F549884237D0F549E5
:101E9000884234D0F449884231D0F44988427FD016
:101EA000F34988427CD0F349884279D0F24988428C
:101EB00076D0F249884273D0F149884270D0F14916
:101EC00088426DD0F04988426AD0F049884267D094
:101ED000EF49884264D0EF49884261D0EE49884298
:101EE0005ED0EE4988425BD0ED49884258D0ED493A
:101EF000884255D0EC49884252D001E0A0E04FE042
:101F0000EA4988424CD0EA49884249D0E9498842A6
:101F100046D0E949884243D0E849884240D0E84960
:101F200088423DD0E74988423AD0E749884237D0D5
:101F3000E649884234D0E649884231D0E5498842B2
:101F40002ED0E54988422BD0E449884228D0E44984
:101F5000884225D0E349884222D0E34988421FD0F5
:101F6000E24988421CD0E249884219D0E1498842BE
:101F700016D0E149884213D0E049884210D0E049A8
:101F800088420DD0DF4988420AD0DF49884207D015
:101F9000DE49884204D0DEA040F27F3104F03EFEEC
:101FA000EA48016841F480710160FFF72DF882462C
:101FB0000EE0E748626C016821F003011143016003
:101FC00017E700BFFFF720F8A0EB0A00642835D818
:101FD000DE480068C005F5D58DBBDFF874A3B4F802
:101FE000B0100AF1240ADAF8000001F4407100F49C
:101FF0004070884211D0DAF80010DAF8002021F49D
:10200000407142F48032CAF80020DAF8002022F44D
:102010008032CAF80020CAF80010D4F8B000B0F539
:10202000807F22D1FEF7F0FF01901AE0FEF7ECFF6F
:102030000199411A41F28830814212D903252E4676
:102040002078DFF80CA3C0070AF1080A3DD0A06F82
:10205000182838D026DC80B3082829D0102825D1AC
:102060002CE0DAF800008007E0D5D4F8B010C1F316
:102070000120032858460DD0016821F47C510160ED
:10208000B4F8B020DAF80010C2F30B021143CAF81A
:102090000010D5E7AF4A036802EA111223F47C511D
:1020A0001143ECE720280ED028280CD001250BE0A6
:1020B0000121201D03F042FD04E004E0009801210D
:1020C00003F034FE05465DB12E46207880071ED50C
:1020D000606F062819D2DFE800F0160C11161616EC
:1020E000A26FDAF8001021F038011143CAF800108D
:1020F000EBE70121201D03F021FD03E00098012101
:1021000003F014FE054675B100E001252E46207847
:1021100040071FD5D4F89000062819D2DFE800F058
:10212000160C11161616626FDAF8001021F007016E
:102130001143CAF80010EAE70121201D03F0FEFC5C
:1021400003E00098012103F0F1FD05469DB100E098
:1021500001252E46207880062BD5D4F88C00B0F1CE
:10216000405F24D011DC10B3B0F1805F15D0B0F126
:10217000005F10D116E0D4F89020D8F8001021F0BC
:1021800007011143C8F80010E4E7B0F1804F0ED00A
:10219000B0F1A04F0BD001250AE00021201D03F073
:1021A000CDFC03E00098022103F0C0FD05468DB18F
:1021B0002E46207840062BD5D4F89800B0F5406F15
:1021C00024D011DC10B3B0F5806F15D0B0F5006FDE
:1021D00010D116E0D4F88C20DAF8001021F0E0419C
:1021E0001143CAF80010E4E7B0F5805F0ED0B0F5F7
:1021F000A05F0BD001250AE00021201D03F09EFC0A
:1022000003E00098022103F091FD05468DB12E46B2
:102210002078000618D5D4F89C00B0F5C04F12D035
:1022200013DC80B1B0F5005F10D0B0F5804F0ED157
:102230009FE0D4F89820D8F8001021F4E051114321
:10224000C8F80010E4E799E09AE085E08CE089E0C6
:10225000000301000013010000230100003301000E
:1022600000430100005301000063010000730100FE
:10227000008301000093010000A3010000B30100EE
:1022800000C3010000D3010000E3010000F30100DE
:1022900000030200001302000023020000330200CA
:1022A00000430200005302000063020000730200BA
:1022B000008302000093020000A3020000B30200AA
:1022C00000C3020000D3020000E3020000F302009A
:1022D0000003030000130300002303000033030086
:1022E0000043030000530300006303000073030076
:1022F000008303000093030000A3030000B3030066
:1023000000C3030000D3030000E3030000F3030055
:102310002E2E2F447269766572732F53544D3332CB
:10232000483778785F48414C5F4472697665722F10
:102330005372632F73746D3332683778785F6861D6
:102340006C5F7263635F65782E630000004802581B
:102350004C440258CFFFFF00B0F5004F0ED0B0F54F
:10236000204F0BD001250AE00021201D03F0E6FBE1
:1023700003E00098022103F0D9FC0546DDB12E46AA
:102380002078000730D5D4F88000B0F5805F1CD0ED
:10239000B0F5005F1FD0F0B1B0F5405F1BD040F248
:1023A0000F51AFF2940004F039FCD4F88000B0F57E
:1023B000805F0AD00FE0D4F89C20D8F8001021F4F8
:1023C00060411143C8F80010DAE70098022103F0D9
:1023D000ADFC00B10126D4F88020DAF8001021F419
:1023E00040511143CAF800102078C00625D5D4F812
:1023F0009400B0F5807F11D0B0F5007F14D098B173
:10240000B0F5405F10D040F22251AFF2FC0004F072
:1024100005FCD4F89400B0F5807F05D10098022126
:1024200003F084FC00B10126D4F89420D8F8001001
:1024300021F440711143C8F800102068000316D53C
:10244000D4F8A00038B1B0F5803F09D0B0F5003F16
:102450000BD001250AE00021201D03F06FFB03E0F3
:102460000098022103F062FC054685B12E462068E3
:10247000400322D5D4F88400B0F5801F11D0B0F508
:10248000001F13D0B0F5401F15D0012514E0D4F87B
:10249000A020D8F8001021F440311143C8F80010F2
:1024A000E5E7386840F40030386004E00098012126
:1024B00003F03CFC0546ADB12E462068C00327D58D
:1024C000E06C40B1B0F5803F05D04FF4B161AFF2A0
:1024D000C01004F0A3FBE06C70B1B0F5803F10D0E9
:1024E000012514E0D4F88420DAF8001021F440111A
:1024F0001143CAF80010E0E7386840F40030386053
:1025000004E00221201D03F019FB0546CDB12E4643
:102510002068800005D50098022103F007FC00B177
:102520000126206880031AD5E06FB0B1B0F5807F36
:102530000FD0B0F5007F10D0B0F5407F0DD0012551
:102540000CE05948E26C016821F4803111430160CC
:10255000DEE7386840F400303860EDB32E4620687E
:10256000C00212D5206F40B1B0F1004F05D040F24B
:10257000E751AFF2642004F051FB226FD9F800104C
:1025800021F000411143C9F800102068C00014D5A3
:10259000D4F8B40040B1B0F5804F05D040F2F1510D
:1025A000AFF2942004F03AFBD4F8B420DBF800102A
:1025B00021F480411143CBF800102068800214D52B
:1025C000A06E40B1B0F1807F05D040F2FB51AFF278
:1025D000C02004F023FB00E05AE0A26ED9F80010FE
:1025E00021F080711143C9F800102068400018D50F
:1025F000D4F8B80040B1B0F5004F05D040F21161F9
:10260000AFF2F42004F00AFBDBF8001021F40041E3
:10261000CBF80010DBF80010D4F8B8201143CBF849
:1026200000102068002814DA206D58B1B0F1805FE6
:1026300008D0B0F1005F05D040F21B61AFF230303E
:1026400004F0ECFA1848226D016821F04051114362
:1026500001602068000217D5D4F8880058B1B0F5A1
:10266000800F08D0B0F5000F05D040F22561AFF221
:10267000603004F0D3FAD4F88820DAF8001021F49E
:1026800040011143CAF800105EB10120BDE8FC9F73
:10269000E26FDAF8001021F440711143CAF800101B
:1026A0005DE70020F2E700004C4402582DE9F05F9E
:1026B00004000D467ED02068401E3E2804D9FFA0AD
:1026C00040F2863104F0AAFA15B3012D20D0022D74
:1026D0001ED0032D1CD0042D1AD0052D18D0062D88
:1026E00016D0072D14D0082D12D0092D10D00A2D88
:1026F0000ED00B2D0CD00C2D0AD00D2D08D00E2D88
:1027000006D00F2D04D0EDA040F2873104F086FAF8
:10271000DFF8E083D8F8000000F00F00A8420CD2E8
:10272000D8F8001021F00F012943C8F80010D8F89C
:10273000000000F00F00A8423CD12078EE4E400788
:1027400019D52069316801F07001884213D960B150
:1027500040280AD0502808D0602806D0702804D01D
:10276000D6A040F2A33104F059FA2169306820F074
:102770007000084330602078DF4F3F1D00071BD5F5
:102780006069396801F07001884215D960B140284C
:102790000AD0502808D0602806D0702804D0C7A0DE
:1027A00040F2B53104F03AFA6169386820F07000FF
:1027B000084300E00DE138602078C0061DD5A0690F
:1027C000396801F4E061884217D980B1B0F5806FB3
:1027D0000DD0B0F5A06F0AD0B0F5C06F07D0B0F53E
:1027E000E06F04D0B5A040F2C63104F017FAA16939
:1027F000386820F4E060084338602078DFF8F8A2F9
:1028000080060AF1080A1CD5E069DAF8001001F028
:102810007001884215D960B140280AD0502808D0EC
:10282000602806D0702804D04FF47671A3A004F07D
:10283000F5F9E269DAF8001021F070011143CAF8E5
:1028400000102078800721D5E068316801F00F0181
:1028500088421BD9A0B1082812D0092810D00A2814
:102860000ED00B280CD00C280AD00D2808D00E282A
:1028700006D00F2804D091A040F2EB3104F0CEF93D
:10288000E168306820F00F00084330602078C0070E
:1028900069D0A068E0B1B0F5006F19D0B0F5106F45
:1028A00016D0B0F5206F13D0B0F5306F10D0B0F562
:1028B000406F0DD0B0F5506F0AD0B0F5606F07D003
:1028C000B0F5706F04D07DA040F2FB3104F0A6F9A2
:1028D0006068012809D040B1022806D0032804D03E
:1028E0004FF47F7175A004F099F98349A2683068AC
:1028F000183920F47060104330606068022816D0E8
:10290000032817D00968012817D04907002960DA81
:10291000DFF8E4B1ABF1080BDBF8002022F007028E
:102920000243CBF80020FEF76FFB814613E00968F5
:102930008903EBE709688901E8E7C905E6E700BF15
:10294000FEF762FBA0EB090141F28830814202D917
:102950000320BDE8F09F6168DBF8000000F038005C
:10296000B0EBC10FECD12078800721D5E068316849
:1029700001F00F0188421BD2A0B1082812D009280B
:1029800010D00A280ED00B280CD00C280AD00D2805
:1029900008D00E2806D00F2804D048A040F23D41B0
:1029A00004F03CF9E168306820F00F000843306023
:1029B000D8F80010404601F00F01A9420BD9016878
:1029C00021F00F0129430160006800F00F00A842C8
:1029D00001D00120BDE72078400719D52069316872
:1029E00001F07001884213D260B140280AD050280B
:1029F00008D0602806D0702804D030A040F25E4194
:102A000004F00CF92169306820F070000843306050
:102A10002078000719D56069396801F07001884293
:102A200013D260B140280AD0502808D0602806D0C0
:102A3000702804D04FF48E6120A004F0EFF8616993
:102A4000386820F07000084338602078C0061DD533
:102A5000A069396801F4E061884217D280B1B0F50D
:102A6000806F0DD0B0F5A06F0AD0B0F5C06F07D061
:102A7000B0F5E06F04D011A040F2824104F0CEF82E
:102A8000A169386820F4E060084338602078800647
:102A90003DD5E0695546DAF8001001F07001884232
:102AA00035D258B340282CD050282AD0602828D0BE
:102AB000702826D001A040F2944120E02E2E2F4411
:102AC0007269766572732F53544D33324837787874
:102AD0005F48414C5F4472697665722F5372632F71
:102AE00073746D3332683778785F68616C5F7263D6
:102AF000632E6300002000521844025801E004F0E5
:102B00008DF8E169286820F070000843286000F023
:102B100069F80D4933683268C3F3032302F00F02EA
:102B2000CB5C895C03F01F0201F01F01D040074A13
:102B300020FA01F111600649086006480068BDE806
:102B4000F05FFEF7E9BC0000BE6D00081000002435
:102B50000C0000240400002430B500F043F80B4AB8
:102B60000B490C4B15681468C5F3032204F00F04DD
:102B70008A5C095D02F01F0201F01F01D040064A85
:102B800020FA01F119601060084630BD184402585F
:102B9000BE6D0008100000240C00002400B5FFF7F3
:102BA000DBFF05490968054AC1F30211515C01F0D8
:102BB0001F01C84000BD00001C440258BE6D000843
:102BC00000B5FFF7C9FF05490968054AC1F30221AD
:102BD000515C01F01F01C84000BD00001C440258B8
:102BE000BE6D0008454970B545480968434B103B28
:102BF00011F0380208D00111082A03D0102A0BD096
:102C0000182A0BD0084670BD19688906FBD51968CB
:102C1000C1F3C101C84070BD3A4870BD3749374D56
:102C200018310C1D24350A68096826682D6802F0E1
:102C3000030406F00102C1F30511C5F3CC0515FB31
:102C400002F200EE102AB8EE400AE9B32F4ADFED97
:102C50002E0AB7EE001A6CB1DFED2D1A012C01D04F
:102C6000022C43D002EE101A1068F8EE422A81EED0
:102C7000A22A1EE01C68A40611D51B6801EE901A5A
:102C80001168C3F3C103F8EE612AD84001EE900A3F
:102C9000C1F30800F8EE611A81EEA22A0BE001EE02
:102CA000901ADFED1C2A00BFF8EE611A106882EE60
:102CB000A12AC0F3080001EE900AF8EE611A40EE76
:102CC000201A31EE810A00E015E022EE000A1068B9
:102CD000C0F34620401C00EE900AF8EE600A80EE39
:102CE000201ABCEEC10A10EE100A70BD01EE901A57
:102CF000DFED092AD8E7002070BD0000104402581B
:102D00000090D003001BB700000000393044025887
:102D10000024744A0024744C001B374B2DE9F05FEB
:102D200004006FD0FE4E41F20308DFF8F493FC4F2D
:102D3000A6F10405206809F10C09243780B1C10708
:102D400011D181076CD4C1067DD401077CD4410721
:102D50007BD480067AD4F3A040F2A31103F05EFF87
:102D60002078C00759D060684FF4803A4FF4A02B08
:102D700040B1504506D0584504D04FF4D471E9A075
:102D800003F04CFFD9F80000396800F03800102833
:102D90000CD0182803D101F00300022806D0606887
:102DA00050450AD1286840F4803010E0286880033C
:102DB00033D560680028B4D02FE008B158450DD055
:102DC000286820F480302860286820F4802028605B
:102DD000606898B1FEF718F982460BE0286840F465
:102DE00080202860DEE700BFFEF70EF9A0EB0A00A6
:102DF000642873D828688003F6D50EE0FEF704F93E
:102E0000824607E032E100BFFEF7FEF8A0EB0A00C1
:102E10006428EED828688003F6D42078800770D51F
:102E2000E06860B101280AD0092808D0112806D02E
:102E3000192804D04FF4EE71BAA003F0EFFE206918
:102E40007F2809D903E05FE0CFE0EEE004E1B5A020
:102E500040F2DD1103F0E2FED9F80000396810F00D
:102E600038000ED0182801D188070AD0E068A0B336
:102E7000296821F0190101432960FEF7C5F882464F
:102E80001AE02868400702D5E068002893D0FEF7D2
:102E9000B5F840451AD82069402811D0316821F48E
:102EA0007C3141EA003030602BE000BFFEF7ACF827
:102EB000A0EB0A0002289CD828684007F6D5E6E770
:102EC000306820F47C3040F40030ECE7207C31683E
:102ED00021F0FE4141EA0060E5E700E06BE228688E
:102EE00020F001002860FEF78FF8824606E000BF60
:102EF000FEF78AF8A0EB0A0002288AD82868400763
:102F0000F6D42078C0066DD5E06930B1802804D0B1
:102F100084A040F21F2103F081FE206A3F2804D9DB
:102F20004FF408717FA003F079FED9F80000DFF8B4
:102F3000F0B1396800F038000BF1080B082810D008
:102F4000182803D101F0030001280AD0E069002805
:102F5000286837D040F080002860FEF755F8824698
:102F600022E02868C00522D5E06980287ED11EE0D5
:102F7000206A202820D0316821F0F84141EA8060A1
:102F800030602FE094F82010DBF8002022F07C5213
:102F900042EA0161CBF8001024E000BFFEF734F8EC
:102FA000A0EB0A00022886D82868C005F6D5FEF7EF
:102FB00025F84045E6D8DBE7306820F0F84040F0DF
:102FC0008040DDE720F080002860FEF71DF806460F
:102FD00005E000BFFEF718F8801B02288DD828688E
:102FE000C005F7D42078000733D54D4E60697036A0
:102FF000E0B1012806D04BA040F2612103F00EFEA3
:10300000606998B13168B04641F001013160FDF767
:10301000FBFF064605E000BFFDF7F6FF801B022818
:10302000C1D8D8F800008007F6D512E03168B04664
:1030300021F001013160FDF7E7FF064605E000BF22
:10304000FDF7E2FF801B0228ADD8D8F8000080070A
:10305000F6D4207880062FD5A069E0B1012808D0E9
:103060004FF423712FA003F0D9FD00E0D2E1A06955
:1030700088B1286840F480502860FDF7C5FF0646F7
:1030800005E000BFFDF7C0FF801B02288BD8286831
:103090008004F7D510E0286820F480502860FDF700
:1030A000B3FF064605E000BFFDF7AEFF801B022818
:1030B00094D828688004F7D42078400779D5A06890
:1030C00040B1012806D0052804D016A040F2B62150
:1030D00003F0A4FDDFF88480D8F8001041F480717B
:1030E000C8F80010FDF790FF064604E0FDF78CFFDE
:1030F000801B642894D8D8F80000C005F6D5084E87
:10310000A0686C3601282BD008B1052834D030686F
:1031100020F001003060306820F0040023E000005F
:10312000044402582E2E2F447269766572732F5311
:10313000544D3332483778785F48414C5F44726968
:103140007665722F5372632F73746D3332683778DC
:10315000785F68616C5F7263632E63000048025899
:10316000306840F001003060A06841F2883A98B1C0
:10317000FDF74AFF80460BE0306840F00400306005
:10318000EEE700BFFDF740FFA0EB080151458FD8E7
:1031900030688007F6D50CE0FDF736FF804605E085
:1031A000FDF732FFA0EB08015145A3D83068800736
:1031B000F6D4606A00287DD001280AD0022808D001
:1031C0004FF43A71AFF2A40003F028FD606A0028C2
:1031D000F1D0DFF84882D9F80000C0F3C20003281C
:1031E00069D0606A022807D0286820F080702860C3
:1031F000FDF70AFF0446E1E0A06A01280AD048B1C1
:10320000032807D0022805D040F2F121AFF2EC00EC
:1032100003F004FD206C58B1042809D0082807D019
:103220000C2805D040F2F221AFF2081003F0F6FCB2
:10323000606C38B1022805D040F2F321AFF21C10C7
:1032400003F0ECFCE06A401E3E2805D94FF43D71C6
:10325000AFF2301003F0E2FC206B001FB0F5FE7FF0
:1032600005D940F2F521AFF2441003F0D7FC606BB2
:10327000401E7F2805D940F2F621AFF2581003F026
:10328000CDFCA06B401E7F2805D940F2F721AFF29C
:103290006C1003F0C3FCE06B401E7F2805D94FF48F
:1032A0003E71AFF2801003F0B9FCA06CB0F5005F86
:1032B00008D301E0B0E085E040F2F921AFF29C10C4
:1032C00003F0ACFC286820F080702860FDF79CFEBD
:1032D000064604E0FDF798FE801B02286BD828689C
:1032E0008001F7D4E26A40F2F331386854F8283F9D
:1032F000884340EA021018433860267B4346218900
:103300004FF4FE0C208A4FF0FE47491E227D7602C4
:10331000401EA6F50076C1F30808B1B2521E0CEAB1
:10332000004041EA080101433C4807EA02621143B8
:103330003A4A001F1960121D016821F00101016065
:1033400011684FF6F876236AB14341EAC301116070
:103350000168A26921F00C01114301600168E26972
:1033600021F0020111430160016841F480310160E4
:10337000016841F400310160016841F4802101607D
:10338000016841F001010160286840F08070286008
:10339000FDF73AFE044604E0FDF736FE001B022866
:1033A00009D828688001F7D536E000BFFDF72CFE6C
:1033B000001B022802D90320BDE8F09F2868800185
:1033C000F4D429E0626A3968D8F80000012A21D0D3
:1033D000A26A01F0030393421CD1E26AC1F3051112
:1033E0008A4217D1216BC0F30802491E8A4211D1CB
:1033F000616BC0F34622491E91420BD1A16BC0F311
:103400000642491E914205D1E16BC0F30660491E98
:10341000814201D00120CFE70020CDE7304402589F
:103420002DE9F05F04007DD0C94D2068C94ECA4F18
:10343000A84210D0B0420ED0B8420CD0C749884242
:1034400009D0C749884206D0C649884203D0FB212B
:10345000C5A003F0E3FB606830B1B0F5800F03D086
:10346000FC21C1A003F0DAFBA06860B1B0F5802FA9
:1034700009D0B0F5C02F06D0B0F5003F03D0FD2134
:10348000B9A003F0CBFBE0681F283BD01E2839D041
:103490001D2837D01C2835D01B2833D01A2831D00E
:1034A00019282FD018282DD017282BD0162829D02E
:1034B000152827D0142825D0132823D0122821D04E
:1034C00011281FD010281DD00F281BD00E2819D06E
:1034D0000D2817D00C2815D00B2813D00A2811D08E
:1034E00009280FD008280DD007280BD0062809D0AE
:1034F000052807D0042805D0032803D0FE219AA070
:1035000003F08CFBE06B4FF4807950B3202828D077
:10351000402826D0602824D0802822D0A02820D07F
:10352000C02800E0A1E01CD0E0281AD0484518D0FF
:10353000B0F5907F15D0B0F5A07F12D0B0F5B07F78
:103540000FD0B0F5C07F0CD0B0F5D07F09D0B0F56A
:10355000E07F06D0B0F5F07F03D0FF2182A003F01A
:103560005DFBA0694FF00058B0F1806F06D028B124
:10357000404503D07CA0494603F050FB606B4FF000
:103580008049484505D020B177A040F2011103F0F1
:1035900045FBE0694FF0805BB0B1584514D0404521
:1035A00012D0B0F1405F0FD048450DD0B0F1A04F20
:1035B0000AD0B0F1C04F07D0B0F1E04F04D06AA0FC
:1035C0004FF4817103F02AFB206A38B1B0F5000F87
:1035D00004D065A040F2031103F020FB606A48B1FB
:1035E000B0F5002F1AD04FF482715FA003F016FBE4
:1035F000606A98B9206938B1B0F1007F04D05AA050
:1036000040F2071103F00AFB606938B1B0F1807F26
:1036100004D04FF4847154A003F000FB20684FF0F5
:103620000009C4F82890A84206D0B04204D0B8429D
:1036300002D0E1680F2918D8E1684FF0010AE36B66
:103640000831C9080AEB53125143A84205D0B042D1
:1036500003D0B84201D0082907D8A84203D0B0420D
:1036600001D0B84204D1102902D90120BDE8F09F51
:1036700094F8810020B9204684F8809000F090F8FA
:10368000022084F881002068016821F001010160B6
:10369000A069B0F1806F10D16068B0F5800F01D0E3
:1036A00018B10AE0A06B18B107E0A06B584504D12F
:1036B0002068016841F480510160A56AE0692368CF
:1036C000E16B2843E268084310439860D4E90D0198
:1036D000D4E90582656A23691143D4F820C02843E0
:1036E000256808431843A36DD4E90171D4E9122673
:1036F00040EA080040EA0C003843304308431043D6
:103700001843E860606868B92068816821F4C05196
:1037100041F4006181602068816821F4C06141F456
:10372000806181602068016D21F0010101656068A0
:10373000400206D52068626DC16821F00041114346
:10374000C160C4F8849084F881A000208EE7000056
:103750000030014000380040003C0040003401408F
:1037600000500140001400582E2E2F4472697665D7
:1037700072732F53544D3332483778785F48414C39
:103780005F4472697665722F5372632F73746D3361
:1037900032683778785F68616C5F7370692E630098
:1037A00010B5B6B0044614212FA8FCF769FEBC2161
:1037B0006846FCF765FE18492068884229D14FF415
:1037C00080400090002468462B94FEF73DF908B134
:1037D000FCF7FDFE1148016841F02001016000681E
:1037E00000F0200034900D481438016841F00201C7
:1037F000016000682FAB022100F002003490282005
:10380000082283E8130006482FA9CDE93242FDF7CC
:10381000EBF936B010BD000000140058F444025813
:10382000000402582DE9FC5F8A460168044680685E
:103830002031009100211D464FF4C02B1746019105
:1038400048B1584507D0B0F5003F04D089A040F2F8
:103850001E3103F0E3F994F8800001280DD04FF0F9
:10386000010884F88080FDF7CFFB814694F8810041
:103870000026012804D0022031E00220BDE8FC9F90
:10388000BAF1000F2AD04FB3A1680320C4F85CA09E
:10389000A4F8607084F88100C4F88460A4F86270B1
:1038A0006666A4F86860A4F86A605945666726678A
:1038B00004D12068016841F400610160206841681A
:1038C0006FF30F01394341602068016841F0010145
:1038D00001606068B0F5800F04D008E0012084F832
:1038E0008060CBE72068016841F400710160E06806
:1038F0000F281AD82CE02068416989070BD5E16DA3
:1039000009680162E06D001DE065B4F86200401EC8
:10391000A4F8620009E0FDF777FBA0EB0900A842DC
:1039200002D3681C01D005E025B1B4F8620000287C
:10393000E1D183E0204602F0FFFAD4F8841084F845
:10394000806041F48071C4F8841084F881808DE037
:1039500007282CD86EE02068416989071CD5B4F887
:10396000621001290BD9E16B49B1E16D096801626F
:10397000E06D001DE065B4F86200801E09E0E06DB6
:10398000018800980180E06D801CE065B4F8620059
:10399000401EA4F862000AE0FDF736FBA0EB090028
:1039A000A84202D3681C02D0C4E7002DC2D0B4F8EC
:1039B00062000028CFD141E02068416989072ED5F7
:1039C000B4F8621003290CD9E16B402909D9E16DE3
:1039D00009680162E06D001DE065B4F86200001F37
:1039E0001AE0B4F8621001290CD9E16B51B1E06D15
:1039F000018800980180E06D801CE065B4F86200E9
:103A0000801E09E0E16D097880F82010E06D401C0F
:103A1000E065B4F86200401EA4F862000AE0FDF719
:103A2000F3FAA0EB0900A84202D3681C02D081E798
:103A3000002DB9D0B4F862000028BDD100224B4659
:103A400008212046009502F0D5FA28B1D4F8840068
:103A500040F02000C4F88400204602F06DFA84F89B
:103A60008180D4F8840084F8806008B1012005E7E3
:103A7000019803E72E2E2F447269766572732F53D7
:103A8000544D3332483778785F48414C5F4472690F
:103A90007665722F5372632F73746D333268377883
:103AA000785F68616C5F7370692E6300401EB0F1CF
:103AB000807F10B501D3012010BD4FF0E02460617C
:103AC0000F21601703F099F80020A0610721216100
:103AD00010BD7047704770472DE9F05F5D4E04469A
:103AE00000680D46DFF870A15C4FB0421ED0B0F107
:103AF000804F1BD0504519D05949884216D059499A
:103B0000884213D04FEAB64188420FD056498842C6
:103B10000CD0B8420AD05549884207D0544988424F
:103B200004D054A040F2867103F078F8286890B170
:103B3000102810D020280ED030280CD040280AD0D1
:103B4000502808D0602806D0702804D049A040F240
:103B5000877103F063F8A868802805D020B145A0DC
:103B60004FF4F16103F05AF894F83C0001286FD04B
:103B70004FF0010B84F83CB00221B14684F83D10AF
:103B8000206846684845D0F8088001D0B84238D14E
:103B9000686888B3B0F5801F2ED0B0F5001F2BD019
:103BA000B0F5401F28D0B0F5800F25D0B0F5A00F9C
:103BB00022D0B0F5C00F1FD0B0F5E00F1CD0B0F58B
:103BC000000F19D0B0F5100F16D0B0F5200F13D09C
:103BD000B0F5300F10D0B0F5400F0DD0B0F5500F4C
:103BE0000AD0B0F5600F07D0B0F5700F04D021A057
:103BF00040F29A7103F012F8696826F4700041EA05
:103C000000062368286826F0700108435860206881
:103C100048450FD0B0F1804F0CD050450AD0104924
:103C2000884207D00F49884204D0B84202D00F49D9
:103C3000884204D1A96828F08002114381600021E4
:103C400084F83DB0084684F83C10BDE8F09FFFE7DB
:103C50000220FAE700000140000400400004014097
:103C600000080040000C0040001400400018004014
:103C7000004001402E2E2F447269766572732F53D7
:103C8000544D3332483778785F48414C5F4472690D
:103C90007665722F5372632F73746D333268377881
:103CA000785F68616C5F74696D5F65782E63000092
:103CB00010B5040058D04149206888422BD0B0F19B
:103CC000804F28D03E49884225D03E49884222D0A4
:103CD0003D4988421FD03D4988421CD03C4988421A
:103CE00019D03C49884216D03B49884213D03B4901
:103CF000884210D03A4988420DD03A4988420AD0C9
:103D00003949884207D03949884204D038A04FF455
:103D10008B7102F083FFA06860B110280AD02028C0
:103D200008D0402806D0602804D031A040F21711F6
:103D300002F074FF206950B1B0F5807F07D0B0F574
:103D4000007F04D04FF48C7129A002F067FFA069B6
:103D500030B1802804D026A040F2191102F05EFF95
:103D600094F83D0010B107E0012010BD002084F858
:103D70003C00204600F058F8022084F83D002068FE
:103D8000211D02F025FA012084F8480084F83E0045
:103D900084F83F0084F8400084F8410084F8420031
:103DA00084F8430084F8440084F8450084F8460011
:103DB00084F8470084F83D00002010BD0000014059
:103DC0000004004000080040000C004000100040CB
:103DD000001400400004014000180040001C004096
:103DE00000200040004001400044014000480140E4
:103DF0002E2E2F447269766572732F53544D3332D1
:103E0000483778785F48414C5F4472697665722F15
:103E10005372632F73746D3332683778785F6861DB
:103E20006C5F74696D2E630010B586B00446142172
:103E30006846FCF725FB2068B0F1804F26D1144876
:103E4000016841F001010160006800F00100059087
:103E50000F480838016841F0010101600068002145
:103E6000022200F00100059001200090CDE901211F
:103E7000CDE9031007486946FCF7B6FE00221C2076
:103E80001146FDF7ABFB1C20FDF776FB06B010BD1D
:103E9000E8440258000002582DE9F05F304D044616
:103EA00000684FF0804B2F4E2F4FA842DFF8BC80A8
:103EB000DFF8BC90DFF8BCA026D0584524D0B04233
:103EC00022D0B84220D040451ED04FEAB5418842AA
:103ED0001AD02949884217D0484515D0504513D0EB
:103EE0002649884210D0264988420DD0254988426B
:103EF0000AD02549884207D02449884204D024A00A
:103F00004FF4E97102F08AFE94F83D00012802D0D6
:103F10000120BDE8F09F022084F83D002068C168C0
:103F200041F00101C1602068A8420BD0584509D07A
:103F3000B04207D0B84205D0404503D0484501D033
:103F4000504507D18168204A1140062906D0B1F5B5
:103F5000803F03D0016841F0010101600020D8E7F3
:103F6000000001400004004000080040000C004038
:103F7000000401400018004000140040001C0040F4
:103F80000020004000400140004401400048014042
:103F90002E2E2F447269766572732F53544D33322F
:103FA000483778785F48414C5F4472697665722F74
:103FB0005372632F73746D3332683778785F68613A
:103FC0006C5F74696D2E6300070001002DE9F05FDE
:103FD000054690F83C000C4601283FD00221012004
:103FE00085F83C0085F83D104FF4805B206858450B
:103FF00016D0B0F5005F13D090B1102810D0202853
:104000000ED030280CD040280AD0502808D0602884
:1040100006D0702804D0D5A041F2AF4102F0FEFDD9
:1040200028684FF0804CDFF87C83DF498646DF4A02
:1040300080684FF4004ADE4BDE4E00EA0800DE4F97
:1040400020F47F48DFF87493CEF808802068702849
:1040500053D011DC10F00F0F04D036E14FF0020006
:10406000BDE8F09F4FEA20100728F6D2DFE800F005
:1040700011111111FAC8FB00B0F1101F09D009DCB1
:10408000584510D04FF40058404578D0B0F5801F07
:10409000E3D153E12038B0F58010FAD01028F8D0E1
:1040A0002028DAD14AE128688842D6D06045D4D0A9
:1040B0009042D2D09842D0D0B042CED0C0498842AF
:1040C000CBD0C0498842C8D0B842C6D0BE49884289
:1040D000C3D0BE498842C0D0BD498842BDD0484502
:1040E000BBD0BC498842B8D0BB498842B5D09FA05C
:1040F00041F2BB4102F092FDE7E0286888420ED011
:1041000060450CD090420AD0984208D0B04206D008
:10411000B84204D095A041F2C24102F07FFDA068F0
:1041200060B158450AD0B0F5005F07D0B0F5405FE8
:1041300004D08EA041F2C54102F070FD6068504588
:1041400009D040B1022806D00A2804D087A041F245
:10415000C64102F063FDE0680F2804D983A041F254
:10416000C74102F05BFDE3682868D4E9012102F051
:1041700091F82868816841F077013FE0FFE72868FF
:1041800088420ED060450CD090420AD0984208D0A8
:10419000B04206D0B84204D074A041F2DA4102F035
:1041A0003DFDA06858B1584509D0404507D0B0F54D
:1041B000405F04D06DA041F2DD4102F02FFD606848
:1041C000504509D040B1022806D00A2804D067A083
:1041D00041F2DE4102F022FDE0680F2804D963A01D
:1041E00041F2DF4102F01AFDE3682868D4E90121B9
:1041F00002F050F82868816841F48041816064E0F1
:104200002868884210D060450ED090420CD0984269
:104210000AD0B04208D0B84206D0484504D053A0D6
:1042200041F2EE4102F0FAFC6068504509D040B11D
:10423000022806D00A2804D04CA041F2F14102F035
:10424000EDFCE0680F2804D948A041F2F24102F0E9
:10425000E5FCE2686168286802F030F828685021BF
:1042600031E000E039E02868884210D060450ED087
:1042700090420CD098420AD0B04208D0B84206D042
:10428000484504D039A041F2FE4102F0C7FC606805
:10429000504509D040B1022806D00A2804D033A0E6
:1042A00041F2015102F0BAFCE0680F2804D92FA0B6
:1042B00041F2025102F0B2FCE2686168286802F043
:1042C0000EF82868602101F0EFFF012085F83D001D
:1042D000002185F83C100846C2E62868884210D0C4
:1042E00060450ED090420CD098420AD0B04208D01F
:1042F000B84206D0484504D01CA041F20E5102F04D
:104300008DFC6068504509D040B1022806D00A28CB
:1043100004D016A041F2115102F080FCE0680F2891
:1043200004D912A041F2125102F078FCE2686168EF
:10433000286801F0C3FF28684021C4E72868884244
:1043400010D060450ED090420CD098420AD0B042B6
:1043500008D0B84206D0484504D004A041F2265106
:1043600002F05CFC21682868ADE700002E2E2F4487
:104370007269766572732F53544D333248377878AB
:104380005F48414C5F4472697665722F5372632FA8
:1043900073746D3332683778785F68616C5F746905
:1043A0006D2E630088FFCEFF000001400004004036
:1043B00000080040000C00400004014000400140A3
:1043C000001000400014004000180040001C004095
:1043D000002000400044014000480140704770B593
:1043E0000446006800250169C943890715D4C168DE
:1043F000C943890711D4EA1E02610121217720688F
:1044000080698007204602D0FFF7E8FF04E000F053
:10441000A7F8204600F0A5F8257720680169C94370
:10442000490717D4C168C943490713D402216FF063
:104430000402026121772068806910F4407F2046E1
:1044400002D0FFF7CBFF04E000F08AF8204600F02E
:1044500088F8257720680169C943090716D4C1681F
:10446000C943090712D404216FF0080202612177C1
:104470002068C0698007204602D0FFF7AFFF04E044
:1044800000F06EF8204600F06CF82577206801698E
:10449000C943C90617D4C168C943C90613D4082142
:1044A0006FF01002026121772068C06910F4407F2C
:1044B000204602D0FFF792FF04E000F051F82046BA
:1044C00000F04FF8257720680169C943C90708D172
:1044D000C168C943C90704D1891E0161204600F0A3
:1044E00041F820680169C943090609D4C168C94374
:1044F000090605D46FF0800101612046FFF7EAFA52
:1045000020680169C943C90509D4C168C9430906BE
:1045100005D46FF4807101612046FFF7DAFA206854
:104520000169C943490609D4C168C943490605D48C
:104530006FF040010161204600F03AF820680169FF
:10454000C94389060BD4C168C943890607D46FF0F3
:10455000200101612046BDE87040FFF7BCBA70BD84
:10456000704770470D4910B500680968884214D13A
:104570000BA0FBF779FF0D4C002201212046FCF730
:1045800007FD012220460421FCF702FD01222046FE
:10459000BDE810400221FCF7FBBC10BDF000002478
:1045A00054494D3221200D0A000000000008025835
:1045B0007047000070B51F4904460068884219D052
:1045C0001D49884216D01D49884213D01C49884293
:1045D00010D01C4988420DD01B4988420AD01B4983
:1045E000884207D01A49884204D04FF40D7119A0AF
:1045F00002F014FB94F88000012818D0012184F8FF
:1046000080102420C4F884000021202354F8640B77
:104610000268056822F0005225F00105056021605E
:1046200054F8640C026023620846217770BD0220B2
:1046300070BD0000001001400044004000480040F0
:10464000004C004000500040001401400078004041
:10465000007C00402E2E2F447269766572732F53B2
:10466000544D3332483778785F48414C5F44726923
:104670007665722F5372632F73746D333268377897
:10468000785F68616C5F756172745F65782E630036
:104690007047704770B50D462B4904460068884244
:1046A00019D02A49884216D02949884213D029496D
:1046B000884210D0284988420DD0284988420AD023
:1046C0002749884207D02749884204D026A040F2D3
:1046D000932102F0A3FA9DB1B5F1007F10D0B5F19E
:1046E000806F0DD0B5F1C06F0AD0B5F1006F07D063
:1046F000B5F1206F04D04FF425711BA002F08EFAA3
:1047000094F8800001281DD0012184F88010242015
:10471000C4F8840020680668016821F00101016086
:104720002068816821F0606129438160204601F0A2
:10473000E9FD2268202100201660C4F8841084F866
:10474000800070BD022070BD001001400044004098
:1047500000480040004C0040005000400014014060
:1047600000780040007C00402E2E2F447269766550
:1047700072732F53544D3332483778785F48414C29
:104780005F4472697665722F5372632F73746D3351
:1047900032683778785F68616C5F756172745F65E5
:1047A000782E630070B50D462B4904460068884298
:1047B00019D02A49884216D02949884213D029495C
:1047C000884210D0284988420DD0284988420AD012
:1047D0002749884207D02749884204D026A040F2C2
:1047E000622102F01BFA9DB1B5F1005F10D0B5F166
:1047F000804F0DD0B5F1C04F0AD0B5F1004F07D0B2
:10480000B5F1204F04D01CA040F2632102F006FA5B
:1048100094F8800001281DD0012184F88010242004
:10482000C4F8840020680668016821F00101016075
:104830002068816821F0604129438160204601F0B1
:1048400061FD2268202100201660C4F8841084F8DD
:10485000800070BD022070BD001001400044004087
:1048600000480040004C004000500040001401404F
:1048700000780040007C00402E2E2F44726976653F
:1048800072732F53544D3332483778785F48414C18
:104890005F4472697665722F5372632F73746D3340
:1048A00032683778785F68616C5F756172745F65D4
:1048B000782E630070477047704700002DE9F04183
:1048C00003680446002540F60F06D86919689A68FF
:1048D000304209D186067DD501F0200602F08057CE
:1048E0003E4377D0216F39E1AF4EB04F16400F40B5
:1048F00037436FD0C70709D0CF0507D501271F62FF
:10490000D4F88C3043F00103C4F88C3083070AD507
:10491000D30708D0276802233B62D4F88C3043F0D9
:104920000403C4F88C3043070AD5D30708D027689E
:1049300004233B62D4F88C3043F00203C4F88C307B
:1049400003070CD501F02003334308D02668082361
:104950003362D4F88C3043F00803C4F88C3003057C
:104960000BD54B0109D526684FF400633362D4F8A8
:104970008C3043F02003C4F88C30D4F88C30002BFA
:1049800034D0800609D501F0200002F080510843A0
:1049900003D0216F09B1204688472168D4F88C00E4
:1049A0008968490602D410F0280F21D0204601F072
:1049B0001FFE20688168490615D5816821F04001F5
:1049C0008160E06F78B17A490165E06FFBF7B4FF71
:1049D000002800E012E009D0E06F016D00E0204601
:1049E000BDE8F04108472046FFF766FFBDE8F081CB
:1049F0002046FFF761FFC4F88C50F7E7E76E2026EA
:104A0000012F71D1C7066FD5CF066DD51020186262
:104A100022689068400669D5E16F664B0868984245
:104A200034D0644B1833984230D0624B30339842C4
:104A30002CD0604B4833984228D05E4B603398426C
:104A400024D05C4B7833984220D05A4B9033984214
:104A50001CD0584BA833984218D0574B984215D0C9
:104A6000554B1833984211D0534B303398420DD0E8
:104A7000514B4833984209D04F4B6033984205D090
:104A80004D4B7833984201D04B4B90334068000433
:104A9000000CABD0B4F85C308342A7D9A4F85E0018
:104AA000C869B0F5807F18D0106820F4807010605D
:104AB0002068816821F0010181602068816821F00F
:104AC00040018160C4F88860E5662068016821F0D3
:104AD00010010160E06FFBF77DFDB4F85C00B4F8F5
:104AE0005E10401A81B220E023E0FFE7B4F85C00DA
:104AF000B4F85E10B4F85E30401A81B2002BC8D012
:104B00000029C6D010682D4B20F4907010602068EA
:104B1000826802EA03028260C4F88860E56625675D
:104B20002068026822F0100202602046FFF7B0FD04
:104B30005CE7C70209D5570207D54FF48010186209
:104B40002046BDE8F041FFF7B6BE07060AD501F0E2
:104B5000800702F40002174304D0616F00297FF43C
:104B60003EAF43E742060CD54A060AD519682046EF
:104B700021F040011960C4F88460656700F00CF909
:104B800034E7020206D54A0004D52046BDE8F041CC
:104B9000FFF790BEC001CBD50029C9DA2046BDE899
:104BA000F041FFF776BD0000010000102001000475
:104BB000DD6500081000024010040240FEFFFFEF18
:104BC0002DE9F047040024D0A0693649364A002870
:104BD000364B374D374E384FDFF8E0C0DFF8E08016
:104BE000DFF8E090206817D088422CD090422AD07D
:104BF000984228D0A84226D0B04224D0B84222D031
:104C0000604520D040451ED048451CD04FF49F71D0
:104C100016E00120BDE8F087884214D0904212D0FF
:104C2000984210D0A8420ED0B0420CD0B8420AD060
:104C3000604508D0404506D0484504D040F24311B5
:104C400021A001F0EBFFD4F8840028B9002084F8FB
:104C50008000204600F056F82420C4F88400206824
:104C6000016821F001010160204601F0DDFC01280E
:104C7000D0D0A06A10B1204601F066FB20684168E0
:104C800021F4904141602068816821F02A0181600F
:104C90002068016841F0010101602046BDE8F0474D
:104CA00001F06CBC0010014000440040004800408E
:104CB000004C0040005000400014014000780040CB
:104CC000007C0040000C00582E2E2F44726976653F
:104CD00072732F53544D3332483778785F48414CC4
:104CE0005F4472697665722F5372632F73746D33EC
:104CF00032683778785F68616C5F756172742E63B3
:104D00000000000010B5B6B0044614212FA8FBF730
:104D1000B7FBBC216846FBF7B3FB1C4920688842FF
:104D200031D100241E94012000906846FCF78CFECF
:104D300008B1FBF74CFC1648016841F01001016016
:104D4000006800F01000349011481038016841F0FC
:104D50000101016000682FAB022100F001003490D6
:104D60004FF4C060072283E813000A482FA9CDE959
:104D70003242FBF739FF002225201146FCF72EFCBA
:104D80002520FCF7F9FB36B010BD000000100140F3
:104D9000F0440258000002587047FEE70148FCF753
:104DA00013BA00001C0000240148FCF741BA0000BF
:104DB0001C000024806B0021826B02B11165C26B64
:104DC00002B1116500F0EABACA074FF028034FF0AC
:104DD000000210B506D090F84140422233EA0404A4
:104DE00000D0F2228C0707D590F8414042F04402EF
:104DF000A34301D042F0B0020B0401D542F0B80247
:104E0000102904D0202905D0402906D007E042F01F
:104E1000900204E042F0200201E042F0400200680B
:104E200001689143016010BD01688A69D24392070D
:104E300001D400228A6200688169C943C90703D08E
:104E4000816941F00101816170472DE9F047044615
:104E500090F841002822002508218243206804D0D0
:104E6000C16184F84050BDE8F087876986694FF0DA
:104E7000FE088268D0F80CC04FF40049E36808EAE5
:104E800016460CF0FE08022BC7F30047C2F30902D6
:104E900007D049462046FFF797FF324684F8405036
:104EA00010E0062306F0060603EAD2139E420ED156
:104EB000A36C5B1CA364A36C022BD4D1A564C16159
:104EC00084F8405039462046FCF77DF9CBE7494647
:104ED0002046FFF779FF424684F84050F2E7000091
:104EE00070B53A4A044690F84100002584F84250D3
:104EF000E2626585626C282842EA010262641FD082
:104F000029281DD02A281BD048F203012046FFF78C
:104F10005BFF94F84100602802D0202084F8410013
:104F20006563A16B206B2A4E19B1112812D021287C
:104F300010D0E16BF1B3122824D0222822D03EE019
:104F400003212046FFF740FF22492820616384F8AF
:104F50004100E6E720680168490403D5016821F4AF
:104F600080410160A06BFBF729FE012827D0A06BD0
:104F7000066584F84050A06BFBF7DEFC002823D0C8
:104F8000A06B16E020680168090403D5016821F4CC
:104F900000410160E06BFBF711FE01280FD0E06BD0
:104FA000066584F84050E06BFBF7C6FC00280BD088
:104FB000E06B00E003E0016DBDE87040084720466B
:104FC000BDE8704000F0EAB970BD00000000FFFFCE
:104FD000B54D00087D52000870B50446164AC84316
:104FE000002541074FF02000E262256384F841006C
:104FF00084F84250656311D42068616A406A087081
:10500000606A401C6062208D40B1618D401E208529
:10501000491E6185606C40F00400606448F2030141
:105020002046FFF7D1FE21681020C861204684F891
:105030004050FCF7E7F970BD0000FFFF2DE9F05F7D
:10504000026820260446176890F841000D46D66194
:10505000212806D0292804D0222809D02A2807D0C0
:105060000DE048F201012046FFF7AEFE212005E0E9
:1050700048F202012046FFF7A7FE222020632068A5
:105080005649426842F400424260206842680A4041
:1050900042602046FFF7C8FEF8435149514ADFF805
:1050A0004CC14304504B524FDFF84891DFF848A100
:1050B000DFF848B1DFF848E10BD42068D0F8008071
:1050C00028F48048C0F80080A06B0CE04068608540
:1050D00034E0000432D42068D0F8008028F400487E
:1050E000C0F80080E06B48B300688842EED0904280
:1050F000ECD09842EAD06045E8D0B842E6D04845C6
:10510000E4D05045E2D05845E0D07045DED03C496F
:1051100018318842DAD03A4930318842D6D03849FD
:1051200048318842D2D0364960318842CED03449A5
:1051300078318842CAD032499031C7E7E843400706
:105140000FD4206825F00405616A406A0870606A1F
:10515000401C6062218D21B1608D491E2185401E59
:105160006085608D18B1606C40F0040060640027B9
:1051700084F84270606C676368B1616C2046FFF729
:10518000AFFE94F84100282815D129462046BDE8F5
:10519000F05FFFF721BFE06A1A4DA8420DD020460C
:1051A00000F032F8E56284F841602763204684F815
:1051B0004070FCF727F9BDE8F09F94F8410084F8AF
:1051C000416022282763204684F8407002D0FCF713
:1051D0006CF9F0E7FCF768F9EDE7000000E800FE85
:1051E00010000240280002404000024058000240E7
:1051F0007000024088000240A0000240B800024057
:10520000100402400000FFFF70B50446006800254E
:10521000016884F84250C9434A0403D4016821F468
:10522000804104E0090403D4016821F400410160D5
:1052300094F841102820292911D094F841102A29E6
:105240000CD1222184F84100216302212046FFF77E
:10525000BBFD204684F84050FCF726F970BD2121A3
:1052600084F84100216301212046FFF7ADFD20466F
:1052700084F84050FCF719F970BD00002DE9F041A9
:10528000044690F840008846E56A012826D06FEA77
:105290000807012084F84000B9066FEA020605D429
:1052A000B00603D441462046FFF7C8FE3A49F80647
:1052B0004FF0807231D4F0062FD4638D102083B16B
:1052C0002168C861606C40F0040060640DB19542D3
:1052D0005ED1616C2046FFF703FE59E00220BDE875
:1052E000F08194F84120282A02D1B5F1007F04D042
:1052F00094F84120292A05D00CE041462046FFF7CA
:105300006BFE45E08D4205D02168C8612046FFF75D
:105310008BFD3AE02168C8613AE0780715D4700740
:1053200013D4608D60B12068626A406A1070606A50
:10533000401C6062208D401E2085608D401E60856F
:10534000608D28BB8D4220D122E0380706D430077B
:1053500004D441462046FFF778FD19E0B80717D47A
:10536000B00715D4608D68B1606A216800788862E2
:10537000606A401C6062608D401E6085208D401E0A
:10538000208505E0954200D015B92046FFF73CFF87
:10539000002084F84000A2E70000FFFF10B590F85D
:1053A00041200021602A05D0016380F84010FBF7FE
:1053B00047FF10BD202280F84120016380F8401093
:1053C000FBF700FF10BD2DE9F0411C4615460E46C7
:1053D00007462A2000F00AFA2837B8B200F022FA6D
:1053E0002835A8B200F01EFA2B2000F0FFF9353660
:1053F000B0B200F017FA3534A0B200F013FABDE8ED
:10540000F0412C2000F0F2B908B500218723F022EA
:105410000090084600F002F808BD00002DE9F047B2
:10542000141A5F1A641C089E7F1C00257C434FF4ED
:1054300090686400444502D9A4F590654446FFF79E
:10544000C2FFDFF85090370ADFF84CA0F6B2002018
:10545000494606E001EB4003421C01F8107090B28F
:105460005E70B0EB540FF5D3012250461021FBF7CC
:105470008FFDA1B2074800F0F1F8002D07D0454597
:1054800002D9A5F59065E2E72C460025DFE7BDE8E7
:10549000F0870000CC0100240004025810B56E4CC7
:1054A000002208212046FBF773FD7820FBF78AFBDA
:1054B000002220461021FBF76BFD7820FBF782FBD2
:1054C000012220461021FBF763FD7820FBF77AFBD1
:1054D000112000F08BF97820FBF774FB362000F0E8
:1054E00085F9702000F090F93A2000F07FF905204E
:1054F00000F08AF9B22000F079F90C2000F084F96C
:105500000C2000F081F9002000F07EF9332000F03B
:105510007BF9332000F078F9B72000F067F93520E7
:1055200000F072F9BB2000F061F9192000F06CF96D
:10553000C02000F05BF92C2000F066F9C22000F0DA
:1055400055F9012000F060F9C32000F04FF9122056
:1055500000F05AF9C42000F049F9202000F054F975
:10556000C62000F043F90F2000F04EF9D02000F0E3
:105570003DF9A42000F048F9A12000F045F9E02011
:1055800000F034F9D02000F03FF9042000F03CF99D
:105590000D2000F039F9112000F036F9132000F049
:1055A00033F92B2000F030F93F2000F02DF9542082
:1055B00000F02AF94C2000F027F9182000F024F917
:1055C0000D2000F021F90B2000F01EF91F2000F043
:1055D0001BF9232000F018F9E12000F007F9D02092
:1055E00000F012F9042000F00FF90C2000F00CF983
:1055F000112000F009F9132000F006F92C2000F02A
:1056000003F93F2000F000F9442000F0FDF851209C
:1056100000F0FAF82F2000F0F7F81F2000F0F4F85F
:105620001F2000F0F1F8202000F0EEF8232000F019
:10563000EBF8212000F0DAF8292000F0D7F800215B
:1056400086230846EF22FFF7BEFE01222046BDE872
:1056500010400821FBF79CBC000C025800F062BC13
:105660002DE9F05F1C46F023203AA3EB540383425C
:10567000D7B25AD3C4F187028A4256DB0A19521EA6
:1056800000EB540593B26D1EAAB2FFF79CFE404E8C
:10569000102C19D0202C17D00C2C48D0182C44D109
:1056A0003C4A07EB470000244FF0300A02EB001998
:1056B000B046E10719F8046057D0002504273006EA
:1056C00056D5B8F8000055E0600700D001203249F7
:1056D0006308B14600EBD40201F5BE5012FB03F2A1
:1056E000002501EB071A00EBC71B02F0FF081AE0C8
:1056F000102C09D0202C18D11BF80560002730068B
:1057000005D5B9F8000004E01AF80560F6E7B9F825
:10571000020000F087F870067F1C060EFFB2082F0B
:10572000EDD36D1CEDB24545E2D3BDE8F09F1B48BB
:1057300007EB47025FF000044FF00C0900EB820812
:10574000002518F80470380601D5308800E070880C
:1057500000F068F878066D1C070EEDB2062DF2D346
:10576000641CE4B24C45EBD3DFE708270025A6E72D
:10577000B8F8020000F056F870066D1C060EEDB287
:10578000BD429CD3641CE4B2544592D3CDE70000E3
:10579000180000243278000842720008CE6D00081C
:1057A0002DE9F0470D4604465819111987B21FFA22
:1057B00081F8DDE908A604F0FF0910E0444503D3B1
:1057C00005EB0A004C4685B2BD420DD25346294630
:1057D0002046FFF745FF04EB5A0084B2761C32786E
:1057E000A2F120005E28E9D9BDE8F08701B505489F
:1057F00000221021FBF7CCFB01216846FFF72EFFAA
:1058000008BD00000004025801B50548012210211E
:10581000FBF7BEFB01216846FFF720FF08BD000033
:105820000004025808B50021020A009110218DF8E9
:10583000002001228DF801000348FBF7A9FB02219B
:105840006846FFF70BFF08BD000402582DE9F0433E
:1058500087B014216846FAF713FE4D48016841F0FD
:1058600010010160016801F010010591016841F02B
:1058700004010160016801F004010591016841F033
:1058800080010160016801F080010591016841F02B
:1058900001010160016801F001010591016841F019
:1058A00002010160016801F002010591016841F007
:1058B0000801016000680122364F072100F008004E
:1058C00005903846FBF764FBDFF8CC8000221821F6
:1058D0004046FBF75DFBDFF8C490002210214846EC
:1058E000FBF756FB03264FF6FF700024694602942F
:1058F000CDE900062A48FBF777F9012569466803D8
:105900008DE831003846FBF76FF907206946CDE98D
:105910000005CDE902543846FBF766F941F6F87008
:105920006946CDE9000638460294FBF75DF949F671
:10593000FE106946CDE900061A480294FBF754F9B7
:105940004FF607706946CDE9000648460294FBF71A
:105950004BF94FF6E7706946CDE9000640460294E0
:10596000FBF742F918206946CDE90005CDE902545C
:105970004046FBF739F910206946CDE90005CDE92D
:1059800002544846FBF730F907B0BDE8F083000049
:10599000E044025800080258000C02580004025863
:1059A00000100258000002581348002110B5114C95
:1059B0000123124A0460C0E90121C0E903314161B9
:1059C0008161C1610162FBF73DFC08B1FAF7FFFD9F
:1059D00009480021FBF71EFB08B1FAF7F8FD06485D
:1059E0000021FBF785FB002803D0BDE81040FAF743
:1059F000EEBD10BD005400401C000024B175703095
:105A00002DE9F0414FF480061548144A4FF4C027A1
:105A1000B5004FF0070C4FF0007E0021AC0080E88D
:105A2000C450A300C0E90731416212058162C1621E
:105A3000C0E90D21C163016441648164C1640165F1
:105A400041658165C0E90554FDF7EAFC002803D0F3
:105A5000BDE8F041FAF7BBBDBDE8F0810014005885
:105A60006800002430B587B016480024164BEF229A
:105A700000944FF080410194802502940394049493
:105A80000594069480E816008561C0E90334FEF7AA
:105A90000FF908B1FAF79BFD4FF4805000900948C8
:105AA0006946FEF793FA08B1FAF791FD054804A993
:105AB00004940694FEF710F8002801D0FAF787FD49
:105AC00007B030BDF00000243F420F00184800210D
:105AD00010B5164C0C224FF4E1330460C0E90131DB
