:020000040800F2
:10000000780D0020210200082502000827020008C0
:10001000290200082B0200082D0200080000000041
:100020000000000000000000000000002F02000897
:100030003102000800000000330200083502000809
:1000400037020008370200083702000837020008AC
:10005000370200083702000837020008370200089C
:10006000370200083702000837020008370200088C
:10007000370200083702000837020008370200087C
:10008000370200083702000837020008370200086C
:10009000370200083702000837020008370200085C
:1000A000370200083702000837020008370200084C
:1000B000370200083702000837020008370200083C
:1000C000370200083702000837020008370200082C
:1000D0003702000837020008770800087D1D000875
:1000E000A73300083702000837020008370200086B
:1000F00037020008370200083702000837020008FC
:1001000037020008370200083702000837020008EB
:1001100037020008370200083702000837020008DB
:1001200037020008370200083702000837020008CB
:1001300000F002F800F05FF80AA090E8000C82449A
:100140008344AAF10107DA4501D100F054F8AFF277
:10015000090EBAE80F0013F0010F18BFFB1A43F0A5
:100160000103184744B8000064B800000A444FF087
:10017000000C10F8013B13F0070408BF10F8014B06
:100180001D1108BF10F8015B641E05D010F8016B4B
:10019000641E01F8016BF9D113F0080F1EBF10F8AF
:1001A000014BAD1C0C1B09D16D1E58BF01F801CBD2
:1001B000FAD505E014F8016B01F8016B6D1EF9D555
:1001C0009142D6D37047000000230024002500266A
:1001D000103A28BF78C1FBD8520728BF30C148BFAA
:1001E0000B607047642907F0B582002070471FB587
:1001F0001FBD10B510BD07F07DFC1146FFF7F7FFDE
:1002000000F02AF807F09BFC03B4FFF7F2FF03BCF1
:1002100000F03CFA30BF72B662B680F308887047CF
:1002200008480047FEE7FEE7FEE7FEE7FEE7FEE7D9
:10023000FEE7FEE7FEE7FEE703480449044A054BF4
:10024000704700003101000878070020780D002079
:100250007809002078090020092000F0BEF9482024
:1002600000F05EF8022000F0A3F9012000F0A0F9F0
:1002700000F0BEFC00F0F6FC2548006818B901202B
:100280002449087002E000202249087000F02DFF88
:100290004FF41651242000F013FA4FF41651242085
:1002A00000F074FA4FF41651242001F0ECFC00F039
:1002B000DFFF01F02DFA06F018FA06F02AFA4FF4E3
:1002C0007A7000F065F801F0A9FC0E2141F61F409C
:1002D00001F0F4F84FF47A7000F05AF816E006F0E6
:1002E000ABFC0B48006818B901200A49087002E00D
:1002F00000200849087001200749087000200749BC
:10030000087000BF044800780028FBD1E7E7000030
:10031000308121424E0000204D0000204C00002082
:100320004FF0E021096921F004014FF0E022116152
:10033000C21700EB5272C2F3C702234B1A70194660
:10034000097801EB4102C2EBC1114FF6FF7202EADC
:10035000C1011E4A1180704701461B4A12784A4368
:100360004FF0E0235A6100229A6101221A6100BF16
:100370004FF0E022106900F001021AB100F480325F
:10038000002AF5D000224FF0E0231A619A617047ED
:1003900001460E4A12884A434FF0E0235A61002278
:1003A0009A6101221A6100BF4FF0E022106900F04B
:1003B00001021AB100F48032002AF5D000224FF079
:1003C000E0231A619A617047A8000020AA0000206B
:1003D000A34A0A400243A34B1A6070470146072311
:1003E00023EA010212029F4B1B1D18684FF6FF0300
:1003F00018409D4B184310439A4B1B1D18607047C3
:100400002DE9F0410746884614461D462846FFF769
:10041000E5FFC5F1040007FA00F60F20284100EAC5
:100420000800064306F00F06E21704EBD2625211F1
:10043000920002F1E022D2F800212146E31704EBFA
:10044000D3635B11A4EB431C012303FA0CF31A439F
:100450002046E31704EBD3635B119B0003F1E02319
:10046000C3F800218148005D40EA06107F49085525
:10047000BDE8F08170B504460B46CE1701EB9676C9
:10048000C6F38700CE1701EB9676B610A1EB860671
:10049000B606350E764B9B6943F00103744EB3618B
:1004A0004FEAB63353F820300F26AE40B343714EB7
:1004B00046F82030334653F8203004FA05F61E4340
:1004C0006C4B43F820606C4B1B6801268E40334315
:1004D000694E336002F0010343B1674B0C331B6874
:1004E00001268E403343644E0C36336002F0020323
:1004F00043B1614B08331E6801238B401E435E4BA2
:1005000008331E6070BD00B5002059490861C860FD
:100510001420486100208861C8610846006840F0E6
:100520000100086008464068544908405049486046
:1005300008460068524908404D490860084600686E
:1005400020F4802008600846406820F4FE004860DF
:100550000020886000214FF00060FFF739FF00BDE8
:1005600010B540480830006840F004003D490831AB
:1005700008603F48C06940F080503D49C86141482B
:10058000406840F480703F4948600846006840F089
:10059000040008600846006840F002000860FFF7A9
:1005A00039FE10BD3048001D2E49091D08607047F6
:1005B000014649062E4A926942F001022C4B9A618B
:1005C0002C4A083A526822F0E0622A4B083B5A60F3
:1005D0001A4652680A435A60704730B504460025EF
:1005E000FFF791FF2248006840F4803020490860FE
:1005F00000BF1F480068400C0028FAD04FF480600C
:100600001B494860A01EC4B20846406840EA8440C6
:1006100048600846406840F4803048601A480068E6
:1006200040F03200184908601148006840F08070BE
:100630000F49086000BF0E480068400E0028FAD03D
:100640000B48406840F002000949486005E008484E
:100650004068C0F3870505F00305022DF7D130BDD2
:1006600080FFFF1F08ED00E00000FA0500E400E055
:100670000010024008000140000401400000FFF8A3
:10068000FFFFF6FE0070004000200240014600BF60
:10069000704700BFFE4A128802F04002002AF9D0DB
:1006A000C2B2FB4B1B1D1A807047FA49088000BF7D
:1006B000F849091F098801F040010029F8D0704766
:1006C0002DE9F05F05460E46300109F0F3FA814648
:1006D000F14905FB01F009F0EDFA8246494609F0BF
:1006E0009FF90746384609F0ADFA84B2204609F072
:1006F000E1FA8346394609F022FC82464FF08341F5
:1007000009F020FB814609F09DFA80464FF6FF7004
:1007100000EA041404EB080084B2E048806940F069
:100720000400DE4988610846806940F480408861A1
:10073000DB48006820F47F60D949086008460068FB
:1007400040F40B600860D548C06840F48040D3494D
:10075000C8600846C06820F48040C860CD48001DCD
:100760000480001D008842F20C010843C949083189
:100770000880BDE8F09FC649091D088000BFC44934
:10078000098801F040010029F9D070472DE9F05F98
:1007900005460E46300109F08DFA8146BE4905FB3B
:1007A00001F009F087FA8246494609F039F907460F
:1007B000384609F047FA84B2204609F07BFA8346AE
:1007C000394609F0BCFB82464FF0834109F0BAFA82
:1007D000814609F037FA80464FF6FF7000EA0414AC
:1007E00004EB080084B2AD48806940F00400AB49D6
:1007F00088610846C06940F40030C861A848001FFD
:10080000006820F47F40A649091F08600846006878
:1008100040F40B400860A2480830006840F4806053
:100820009F49083108609D48006940F480209B4939
:1008300008610846006920F4802008619448083067
:100840000480001D008842F20C01084390490C31DD
:1008500008800846008840F48070088008460088B8
:1008600040F0200008800223262201210020FFF70B
:10087000C7FDBDE8F09F2DE9FF5F8548008800F0C7
:10088000200000287ED08248001D0088854908602D
:10089000084600684D2805D10020834908700120D2
:1008A000824908607F480068122808D180480068A3
:1008B00028B90C207F49086001207D4908607948EB
:1008C0000068222808D17C48006828B91620794998
:1008D000086001207849086072480068212808D122
:1008E0007648006828B915207249086001207349CC
:1008F00008606C480068112808D17148006828B960
:100900000B206C49086001206D490860654800684B
:10091000582807D16B48006808B9012000E0002082
:100920006849086068480078D0B95E480068412886
:1009300009DB5C4800684C2805DC5A4800784038E0
:10094000624908702BE0574800680C2804DC5548C1
:1009500000785E49087022E000205C4908701EE0C3
:100960005948007801281AD14E48006841280ADB0E
:100970004C4800684C2806DC4A4800784038534907
:1009800008700CE082E0474800680C2804DC454809
:1009900000784E49087002E000204C490870414838
:1009A00000687B2802D10120494908703D48006851
:1009B0007D2802D102204649087045480078012868
:1009C0000AD1384800784349434A1278885442484B
:1009D0000078401C404908703D480078022855D1F5
:1009E0003C48C078502803D101203C490870A8E059
:1009F0003848C078572803D1012039490870A0E051
:100A000034484078232842D033480078354908706C
:100A100034E031490978334A1278881A08F0EFFB3C
:100A2000804642460B4600202F4907F025FC04462D
:100A30000D462C490978491E264A515CA1F1300027
:100A400008F0DDFB064622462B4608F03FFC8246B6
:100A50008B462648006808F049FF52465B46CDE9C0
:100A6000000108F04DF9CDE9020108F017F91F491E
:100A700008601C480078401E1A4908701948007820
:100A80000428C6DA13484078303831E066E058E090
:100A9000004400400438014040420F000010024072
:100AA00004080140CC00002025010020AC000020FB
:100AB000B0000020C0000020B4000020B8000020DA
:100AC000BC0000208C0122424E00002002000020C9
:100AD000D000002010020020D10000206200002081
:100AE00063000020D200002000002440D400002039
:100AF000092825D2DFE800F0050C13181D24242254
:100B000023002F48006809F081F82E49086017E09B
:100B10002B48006809F07AF82B49086010E0284853
:100B200000682A4908600BE02548006828490860E9
:100B300006E0234800682749086001E000E000BFA4
:100B400000BF002024490870244908702449087017
:100B50001B4908603221234806F06CFE002004B0D7
:100B6000BDE8F09F2048007808B3204800685A2864
:100B70001DD000201C4A10701C480068012806DBAC
:100B80001A480068122802DC184801780DE017485E
:100B90000068412808DB154800684E2804DC13482B
:100BA00000784038C1B200E00021084670470F4885
:100BB00000685A2802D101200B4A10700020F5E786
:100BC000D40000209C000020A40000209000002001
:100BD0009400002098000020D0000020D1000020C8
:100BE000D200002010020020D8000020CC000020FD
:100BF0001748806940F00800154988611548006869
:100C000020F47000134908600846006840F4401062
:100C1000086010480830006840F400500D49083161
:100C20000860704718B900210B4A11600FE00B49AA
:100C30000968491C094A1160814208D106490968BE
:100C4000C943074AC2F8B4110021044A1160704731
:100C500000100240040C0140B4812142DC0000205D
:100C6000008021425948806940F008005749886156
:100C700057480068574908405549086008460068C9
:100C8000554908435249086051480830006840F40B
:100C900080504F49083108600846006840F48040A1
:100CA0000860704701464D48006828B94C480088E4
:100CB000401C4B4A108002E00020494A10804748FF
:100CC000006828B94748007810B90120454A1070DB
:100CD00045480078B0B943480078012807D1434817
:100CE0000078401C414A107001203F4A10703F4874
:100CF0000078022806D100203C4A10703C4A10803F
:100D00000220704735480068012804D10020354A88
:100D10001070354A10703548007801281CD13448CD
:100D20000088401C324A10801046008888420ADD44
:100D30002B480088884206DA00202C4A10702C4A82
:100D400010800120DDE726480088884204DD00206D
:100D5000264A1070264A10800020D2E725480078E5
:100D600038B11E48006820B90020224908700120CF
:100D700070471A480068012801D11E4908700020F8
:100D8000F6E71D48008840B91448006828B91B4898
:100D90000088401C1949088002E00020174908809B
:100DA00016480088C82807DD012013490880002064
:100DB00012490880012070470F480088012802D19D
:100DC00000200D4908800020F5E7000000100240D7
:100DD000040C0140FFFFF0F00000080838812142B8
:100DE000E6000020E0000020E1000020E2000020FA
:100DF000E4000020E8000020EC000020EA000020D1
:100E000010B50A461AB10123FE4C236002E000230C
:100E1000FC4C2360002116E00023FA4C343423609C
:100E200000F080031BB10123241D236003E0002395
:100E3000F44C383423600123F24C343423604306ED
:100E4000180E4B1CD9B20829E6DB0123ED4C2360B8
:100E500010BD30B500241CE004F1B001C8B200217F
:100E6000FFF7CEFF00210846FFF7CAFF0021102040
:100E7000FFF7C6FF002508E0E34901EBC501085D67
:100E80000121FFF7BDFF681CC5B2802DF4DB601C9B
:100E9000C4B2082CE0DB30BD00B500218D20FFF787
:100EA000AFFF00211420FFF7ABFF0021AF20FFF7B9
:100EB000A7FF00BD00B500218D20FFF7A1FF002195
:100EC0001020FFF79DFF0021AE20FFF799FF00BD26
:100ED00030B500240CE0002506E00020CA4901EBF3
:100EE000C5010855681CC5B2802DF6DB601CC4B274
:100EF000082CF0DBFFF7ADFF30BDF0B5144600263F
:100F00007F2801DC3F2900DDF0BD0B46CF1701EB48
:100F10005777FF10C7F10707FAB2CF1701EB5777E2
:100F2000FF10A1EBC707FDB2C5F107070123BB40C6
:100F3000DEB24CB1B44B03EBC0039B5C3343B24F06
:100F400007EBC007BB5408E0AF4B03EBC0039B5C4F
:100F5000B343AD4F07EBC007BB5400BFD4E72DE947
:100F6000F04F80460C4615461E46A346A5F12000CC
:100F7000C5B200273EE00C2E07D105EB4500A34982
:100F800001EB800010F8079004E0A14800EB051089
:100F900010F807904FF0000A26E009F0800028B111
:100FA00021464046099AFFF7A8FF09E0099808B9C9
:100FB000012000E00020024621464046FFF79DFF49
:100FC0004FEA49604FEA1069601CC4B2A4EB0B0001
:100FD000B04205D15C4608F1010000F0FF0806E0D0
:100FE0000AF1010000F0FF0ABAF1080FD5DB00BFDB
:100FF000781CC7B2B742BEDBBDE8F08F10B5024621
:10100000012000E050430B1EA1F10104E1B2F9D12F
:1010100010BD2DE9FF4F81B0074691461E460E9D3B
:101020004FF0000A002439E0301B401EC1B20A20F4
:10103000FFF7E4FFB9FBF0F00A21B0FBF1F201FB8E
:101040001208BAF1000F16D1701EA04213DDB8F1DC
:10105000000F0ED10120AB4605EBDB71491001FBFF
:1010600004710090C8B22B4620220299FFF777FF47
:1010700012E04FF0010A0120AB4605EBDB7149108D
:1010800001FB04710090C8B208F13001CAB22B46CE
:101090000299FFF764FF00BF601CC4B2B442C3DB17
:1010A00005B0BDE8F08F78B505460E46144618E049
:1010B0007A2D03DD002506F11000C6B23A2E04DDBC
:1010C000002005460646FFF703FF01200090227826
:1010D0000C2331462846FFF742FF05F10800C5B250
:1010E000641C20780028E3D178BD10B54948806998
:1010F00040F01000474988610846806940F00100CF
:10110000886145484068C0F3130043494860084679
:10111000406842490843404948600846006820F05A
:101120000F0008600846006840F0020008603C4874
:10113000006840F480703A4908603648006A20F040
:101140000100344908623748008820F00100354921
:1011500008803348006820F480703149086000201E
:1011600028493C3108606420FFF712F901202E491C
:10117000C1F8BC010021AE20FFF742FE0021D520BE
:10118000FFF73EFE00215020FFF73AFE0021A82085
:10119000FFF736FE00213F20FFF732FE0021D3206B
:1011A000FFF72EFE00210846FFF72AFE002140200F
:1011B000FFF726FE00218D20FFF722FE00211420DC
:1011C000FFF71EFE00212020FFF71AFE002102205B
:1011D000FFF716FE0021A120FFF712FE0021C0201C
:1011E000FFF70EFE0021DA20FFF70AFE0021122091
:1011F000FFF706FE00218120FFF702FE0021EF200D
:1012000014E0000080012242420200202EA10008CA
:10121000A2A500080010024000100140000020229A
:1012200000700040306C004000002242FFF7E8FDF3
:101230000021D920FFF7E4FD0021F120FFF7E0FDB8
:101240000021DB20FFF7DCFD00213020FFF7D8FD77
:101250000021A420FFF7D4FD0021A620FFF7D0FD38
:101260000021AF20FFF7CCFDFFF732FE10BD0000DC
:101270006D48806940F004006B4988616B480068E4
:1012800020F47000694908606748806940F4007084
:10129000654988610846C06840F40070C860084627
:1012A000C06820F40070C8600846406820F44040E0
:1012B00048600846406840F4004048605C48006868
:1012C0005C4908405A4908600846006808600846BA
:1012D000006820F480700860081D006820F002009B
:1012E000091D08600846006820F460200860084670
:1012F000006840F4602008600846006840F48010F0
:1013000008600846006820F40060086048482830FB
:10131000006820F4700046492831086008460068DB
:101320000020086042480C30006820F470004049FA
:101330000C3108600846006840F4603008603C48A2
:10134000001D006840F001003949091D0860084689
:10135000006840F00800086000BF3548001D0068C4
:1013600000F008000028F8D13148001D006840F066
:1013700004002F49091D086000BF2D48001D0068AA
:1013800000F004000028F8D17047014628483030AA
:10139000006820F01F00264A3032106010460068B6
:1013A000084310602248001D006840F48000204A75
:1013B000121D106000BF1E48001F006800F00200F0
:1013C0000028F8D01A484830006880B270472DE9EC
:1013D000F04F87B00520FFF7D8FF019007F026FFF8
:1013E00080464FF06632144B07F070FF0022134B1B
:1013F000CDE9020107F06AFF0022114BCDE904019B
:1014000007F064FF064600220E4B07F035FD044648
:1014100000220D4B07F030FD824607F0C1FE06901A
:10142000069807B0BDE8F08F0010024000080140A8
:1014300004240140FFFFF00066660A4000002640D9
:10144000000059400000F03F0000B040A64880690D
:1014500040F00800A44988610846806940F0100007
:101460008861A248006820F00F00A0490860084683
:10147000006840F0020008609C480C30006840F0B2
:1014800001009A490C310860994800689949084060
:1014900097490860084600689749084394490860DE
:1014A0000846C068C8600846C06840F01000C860C0
:1014B0000846C06840F02000C860704700B502468A
:1014C0000B46FFF7C3FF8848806940F400608649F7
:1014D00088610846C06940F00100C8610846C069DB
:1014E00040F00200C8610846C06940F00400C861CD
:1014F0000846806940F0040088610846806940F031
:10150000080088617D48006820F00F007B49086072
:101510000846006840F00B000860081F0068784922
:1015200008407649091F0860084600687549084365
:101530007249091F08606D48006820F070606B49AF
:1015400008600846006840F0306008606E4802801D
:10155000001F03806C481438008840F060006A491E
:10156000143908800846008840F008000880664862
:101570000C38008840F0010063490C39088062484B
:101580001830008840F400405F49183108805E48F8
:101590002C38008840F001005B492C3908804FF45A
:1015A0006160594908310880800682850385008B77
:1015B00040F06000090708830846008B40F00800EF
:1015C00008830846008C40F0010008840846008823
:1015D00040F0010008804FF4616088864B4802802B
:1015E000001F038049481438008840F060004749D4
:1015F000143908800846008840F0080008804348F5
:101600000C38008840F0010040490C3908803F4800
:101610002C38008840F001003C492C3908804FF4F8
:1016200061603A490831088000BD10B5364B18801A
:101630000E23354C241F2380334B2C3B1B88324C0C
:101640002C3C2380304B143B1B8843F060032E4C12
:10165000143C23802C4B0C3B1B8843F001032A4C89
:101660000C3C238023461B8823804310264C0834DF
:101670002380230799850E232407238523461B886F
:10168000238023461B8B43F06003238323461B8C5C
:1016900043F00103238423461B8C23844B10A38631
:1016A0001A4B1A800E23194C241F2380174B2C3BF6
:1016B0001B88164C2C3C2380144B143B1B8843F096
:1016C0006003124C143C2380104B0C3B1B8843F0EE
:1016D00001030E4C0C3C238023461B8823805310AF
:1016E0000A4C0834238010BD00100240000C014059
:1016F00000100140FF0F00FF0020220004080140FD
:10170000F0FFFFF00B00000B2C2C01402C040040DC
:10171000F748806940F00800F5498861F54800689D
:1017200020F47F40F34908600846006840F44C50BC
:101730000860704710B5EF48006820F47040ED492C
:1017400008600846006840F4405008600120EA49FB
:101750000860EA48D0F82C0108B9002010BD01202B
:10176000E549091F0860FEF7F7FD0020E349C1F8CD
:10177000AC01E1488038006808B10020EEE70120A4
:10178000FEF7EAFD0020DC49091F08600120E5E7BB
:1017900010B5D848006820F47040D6490860084663
:1017A000006840F4405008600020D349091F0860D9
:1017B000D249C1F8AC010120FEF7CEFD0120CE498F
:1017C000091F0860CD49C1F8AC01FEF7C5FD10BD89
:1017D00010B50024C748006820F47040C54908606F
:1017E0000846006840F4004008600120C2490860D3
:1017F000FEF7B2FD0120C149C1F8A801FEF7ACFD1A
:101800000AE0601CC4B2322C03DDFFF7C1FF0020E8
:1018100010BD0120FEF7A0FDB74880380068002801
:10182000EFD1B549091F08600120F1E710B500208C
:10183000B149091F0860AF48006820F47040AD4905
:1018400008600846006840F4405008600020AB493A
:10185000C1F8AC010120FEF77FFD0120A649091F58
:101860000860FEF779FD0020A449C1F8A80110BD69
:1018700010B50020A049091F08609E48006820F4A8
:1018800070409C4908600846006840F44050086079
:1018900001209A49C1F8AC01FEF75EFD012096498E
:1018A000091F0860FEF758FD00209449C1F8A801FF
:1018B00010BD70B504468F48006820F470408D4913
:1018C00008600846006840F44050086000208A49DB
:1018D000091F0860002516E0E009874908606006D6
:1018E000040E0120FEF738FD01208449C1F8A8014B
:1018F000FEF732FD00208049091F08600120FEF735
:101900002BFD681CC5B2082DE6DB70BD2DE9F0414A
:1019100005460E4617469846FFF70CFF10B9012002
:10192000BDE8F0816906080EFFF7C3FFFFF750FF1F
:1019300018B9FFF72DFF0120F2E73046FFF7B9FF96
:10194000FFF746FF00240BE018F80400FFF7B1FF93
:10195000FFF73EFF18B9FFF71BFF0020E0E7641C0C
:10196000BC42F1DBFFF714FF0020D9E770B5054654
:1019700000246048006820F470405E490860084612
:10198000006840F400400860002617E000205A4933
:10199000091F08600220FEF7DFFC01205749C1F84B
:1019A000A8016006040E54488038006808B1601C25
:1019B000C4B20220FEF7D0FC701CC6B2082EE5DBD4
:1019C00015B1FFF733FF01E0FFF752FF204670BD6E
:1019D0002DE9F04106460F4614461D46FFF7AAFEC4
:1019E00010B90120BDE8F0817106080EFFF761FF14
:1019F000FFF7EEFE18B9FFF7CBFE0120F2E73846FD
:101A0000FFF757FFFFF7E4FEFFF794FE012101EB1C
:101A10004601C8B2FFF74DFFFFF7DAFE0DE0012CDB
:101A200004D10020FFF7A2FF287003E00120FFF798
:101A30009DFF28706D1C601EC4B2002CEFD1FFF713
:101A4000A7FE0020CEE770B505460E460024FFF73E
:101A500071FE2846FFF72DFF641CFFF7B9FE3046E4
:101A6000FFF727FF641CFFF7B3FEFFF763FE691C57
:101A7000C8B2FFF71EFF641CFFF7AAFE0020FFF7A5
:101A800075FF0446FFF784FE204670BD2DE9F04146
:101A90000746884615461E460024FFF74BFE38468B
:101AA000FFF707FFFFF794FE4046FFF702FFFFF73F
:101AB0008FFEFFF73FFE791CC8B2FFF7FAFEFFF773
:101AC00087FE00BF0DE0681EA04204D00120FFF792
:101AD0004DFF305503E00020FFF748FF3055601CF4
:101AE000C4B2AC42EFDBFFF753FE2046BDE8F08105
:101AF00000100240040C0140AC81214200802142D0
:101B00002DE9F04180460D4616461F460024FFF79A
:101B100011FE4046FFF7CDFEFFF75AFE2846FFF7BD
:101B2000C8FEFFF755FE00BF06E0385DFFF7C1FEB7
:101B3000FFF74EFE601CC4B2B442F6DBFFF728FE8E
:101B40000120BDE8F08170B505460E4614463146C9
:101B50002846FFF778FF2070012070BD37B5044696
:101B60000D4602AB012229462046FFF7C9FF3EBDC4
:101B70002DE9F8430746884614461D46089E6A46E6
:101B800041463846FFF7DFFF28B3601CFF2101FA0A
:101B900000F0C4F108012944491EFF220A41104304
:101BA00000F0FF09C5F1080006FA00F0C6B2C4F162
:101BB000070006419DF8000000EA090000909DF82A
:101BC0000000304300909DF8002041463846FFF762
:101BD000C5FFBDE8F8830020FBE7F8B506460F46D1
:101BE00014461D466A4639463046FFF7ACFF2DB114
:101BF0000120A0409DF80010084305E00120A0400E
:101C00009DF8001021EA0000C0B200909DF800206D
:101C100039463046FFF7A2FFF8BD000010B5124864
:101C2000806940F00800104988611048006820F081
:101C300070400E4908600846006840F000400860A7
:101C40000A480830006840F400400849083108603C
:101C500001220F211046FEF70DFC0223282201214C
:101C60001846FEF7CDFB10BD00100240040C0140E9
:101C70008249088000BF8149091F098801F040019D
:101C80000029F8D070472DE9F05F05460E46300177
:101C900008F010F881467A4905FB01F008F00AF8CF
:101CA0008246494607F0BCFE0746384607F0CAFFA1
:101CB00084B2204607F0FEFF8346394608F03FF91C
:101CC00082464FF0834108F03DF8814607F0BAFFA5
:101CD00080464FF6FF7000EA041404EB080084B25B
:101CE0006848806940F0010066498861084680695B
:101CF00040F0100088610846C06940F48020C86147
:101D00006148406820F47F405F4948600846406869
:101D100040F40B4048600846C06840F48060C860EA
:101D20005A48406840F010005849486055480069DA
:101D300040F48020534908610846006920F480205F
:101D400008614E48001D0480001D008842F20C010D
:101D500008434A49083108800846008840F48070EA
:101D600008800846008840F02000088002232722CF
:101D700001210020FEF744FBBDE8F09F10B53F486D
:101D8000001F008800F02000002848D03B48008851
:101D9000C4B23F48007848B9FE2C01D0FF2C05D1D1
:101DA00001203B49087000203A4908703848007803
:101DB000012833D1384837490978445435480078E8
:101DC000401C34490870084600780A2826DB32484F
:101DD0004078FE2822D13048807801281ED12E4834
:101DE000407AD8B92C48C0782C4908602A484079F4
:101DF0002B4908602848C0792A49086008460368CA
:101E0000274802682548016827A005F063FC0020E8
:101E10001F4908701F4908701F49087006E000201C
:101E20001E4908601E4908601E490860002010BD58
:101E3000014600200CE000BF1E4A128802F040025A
:101E4000002AF9D00A5C1B4B1B1D1A80421CD0B221
:101E50000928F0DD7047014600200CE000BF074A6A
:101E6000121F128802F04002002AF8D00A5C034BCD
:101E70001A80421CD0B20528F0DB704704480040AD
:101E800040420F00001002400010014000000140DD
:101E9000610000201C0100204206002010010020EB
:101EA000140100201801002025643A25643A2564B5
:101EB0003A0A0000004400402DE9F04790B0044683
:101EC00089469246FE49B1F9040007F0DBFE8046E0
:101ED000FC480168404607F035FF064651464FF082
:101EE0007E5007F02FFF8046214607F02BFD074666
:101EF000314607F027FD054607F088FEF2490860E5
:101F0000EF49B1F9040007F0BDFE0646ED4801684F
:101F1000304607F017FF054607F0E8FCCDE90C0155
:101F200051464FF07E5007F00DFF074607F0DEFCEC
:101F300005460E46484607F0D9FCCDE902010020CF
:101F4000E24906F085FE00224FF08043CDE9000112
:101F500006F092FF0746DDE9022307F0B7F9CDE965
:101F600006014FF03F41204607F0ECFE074607F020
:101F7000BDFCCDE90401DDE9062306F0C1FE2A46D9
:101F80003346CDE9080106F0BBFECDE90A01DDE9E3
:101F90000C2306F0B5FECDE90E0107F001F9CC499E
:101FA0000860C749B1F9040007F06CFE0646C54851
:101FB0000168304607F0C6FE054607F097FCCDE9FC
:101FC0000E0151464FF07E5007F0BCFE054607F06B
:101FD0008DFCCDE90A01484607F088FCCDE90201F5
:101FE0000020BA4906F034FE054600224FF0804337
:101FF00006F042FFCDE90001DDE9022307F066F9B2
:10200000CDE906014FF03F41204607F09BFE054613
:1020100007F06CFCCDE90401DDE9062307F07CFB49
:10202000CDE90801DDE90A2306F06AFECDE90C01DD
:10203000DDE90E2306F064FE074607F0B1F8A54976
:10204000086010B0BDE8F0872DE9F0478CB0044679
:102050008946924651464FF07E5007F073FE054682
:10206000214607F06FFC9C49086051464FF07E50B6
:1020700007F068FE054607F039FCCDE9080148463F
:1020800007F034FC05460E460020904906F0E0FDBE
:10209000074600224FF0804306F0EEFE2A46334604
:1020A000CDE9000107F012F9CDE904014FF03F41FD
:1020B000204607F047FE054607F018FCCDE902016F
:1020C000DDE9042306F01CFECDE90601DDE9082365
:1020D00006F016FECDE90A0106F0E0FD7F49086032
:1020E00051464FF07E5007F02DFE054607F0FEFBEF
:1020F000CDE90801484607F0F9FBCDE902010020CF
:10210000724906F0A5FD054600224FF0804306F017
:10211000B3FECDE90001DDE9022307F0D7F8074659
:1021200088464FF03F41204607F00CFE054607F079
:10213000DDFB3A464346CDE9040107F0EDFACDE96F
:102140000601DDE9082306F0DBFDCDE90A0106F012
:10215000A5FD634908600CB0BDE8F0870146002981
:1021600001DA484200E00846704710B504462046B0
:10217000FFF7F4FF5B49B1FBF0F3B3F5803F02D307
:102180004FF6FF7200E09AB2104610BD2DE9F047FD
:1021900081460C461546B9F1000F03DD0020524977
:1021A000086002E0012050490860002C03DD002097
:1021B0004E49086002E001204C490860002D04DD12
:1021C00000204949091D086003E001204649091D16
:1021D000086047480078002838D146480068F8B9B8
:1021E0003948006858B93A48006840B93948006829
:1021F00028B941480068401C3F49086002E00020BF
:102200003D4908603C480068C82805DD012039497F
:10221000086000203849086001203349091F086020
:1022200034480068012810D100202F49091F086098
:102230002548006830B92648006818B92548006864
:1022400000287AD000202B49086076E029480068F1
:1022500010BB2A48006858B92948006840B9294885
:10226000006828B924480068401C2349086002E03F
:1022700000202149086020480068C82808DD0020A7
:102280002149087001201B49086000201A49086094
:1022900001201549091F08601648006801284CD123
:1022A00000201149091F086018490968064A126888
:1022B000881AFFF753FF05283CD81549096829E01B
:1022C000D401002030010020380000200000084028
:1022D0003C000020400000202000002024000020BE
:1022E0002800002040420F009001224280812142BC
:1022F0004E0000204C010020500100202C00002046
:102300003000002034000020250100204001002082
:1023100044010020F94A1268881AFFF71FFF0528B8
:1023200008D8F7490968F74A1268881AFFF716FFB4
:10233000052802D90020F4490860F4480068F449EF
:102340000860EE480068F3490860EE480068EC4910
:1023500008604846FFF709FF06462046FFF705FFDD
:1023600007462846FFF701FF804642463946304679
:10237000FFF75BF9BDE8F087E749096842429142FF
:1023800002DA4142E44A1160E3490968814201DD11
:10239000E1490860E14909684242914202DA41425A
:1023A000DE4A1160DD490968814201DDDB490860D0
:1023B000DB4909684242914202DA4142D84A11603F
:1023C000D7490968814201DDD5490860704710B5D9
:1023D000D14B1B684442A34202DA4342CE4C2360F5
:1023E000CD4B1B68834201DDCB4B1860CB4B1B6888
:1023F0004C42A34202DA4B42C84C2360C74B1B68D5
:102400008B4201DDC54B1960C54B1B685442A3428A
:1024100002DA5342C24C2360C14B1B68934201DD78
:10242000BF4B1A6010BD2DE9F04F89B0BD48006860
:1024300007F05CFA8246BC480CC8504607F06CF9BD
:1024400004460D46B948006807F050FA8246B8487D
:102450000CC8504607F060F906460F46B5480068BC
:1024600007F044FA8246B4480CC8504607F054F9C5
:1024700080468946002213462046294606F054FE2F
:102480000DD1002213463046394606F04DFE06D1E6
:10249000002213464046494606F046FE26D04246F4
:1024A0004B464046494606F011FF32463B46CDE9D1
:1024B00004013046394606F009FF22462B46CDE995
:1024C00000012046294606F001FF8246DDE900238F
:1024D00006F016FCCDE90201DDE9042306F010FC4C
:1024E000CDE9060106F0B4FB944A03C2002213466C
:1024F0002046294606F018FE0DD10022134630462C
:10250000394606F011FE06D10022134640464946E0
:1025100006F00AFE12D04046494606F0BFFB82464E
:102520003046394606F0BAFB83462046294606F077
:10253000B5FB524659460790FFF786FD8048006874
:1025400007F064FB0090FFF709FE7E4909684843E5
:10255000019006F06BFECDE9020178480CC80298A4
:1025600006F08AFC824606F01BFE0790764800685B
:1025700007F04CFB0090FFF7F1FD724909684843F2
:10258000019006F053FECDE902016C480CC8029898
:1025900006F072FC824606F003FE06906B48006867
:1025A00007F034FB0090FFF7D9FD664909684843FE
:1025B000019006F03BFE824660480CC8504606F08B
:1025C0005BFCCDE9020106F0EBFD0590DDE90612AA
:1025D000FFF7FDFE5348006807F088F9524A03C22E
:1025E0005248006807F082F9514A03C25148006816
:1025F00007F07CF9504A03C209B0BDE8F08F2DE91D
:10260000F04704460D46601B07F03CFB504908604C
:10261000084601684F48006807F094F94D49086082
:102620004D4801684A48006807F094FC80464B48D2
:102630000168404607F086FB064646480168484860
:10264000006807F07FFB8046414801684548006804
:1026500007F078FB8146414607F074F9074631469A
:1026600007F070F940490860394800683A49086045
:102670003D48006807F0CAFABDE8F0872DE9F04749
:1026800004460D46601B07F0FDFA3849086008460D
:1026900001683748006807F055F935490860354842
:1026A00001683248006807F055FC80462B480168F5
:1026B000404607F047FB06462D4801682848006859
:1026C00007F040FB8046294801682648006807F06B
:1026D00039FB8146414607F035F90746314607F098
:1026E00031F92549086021480068224908602248DC
:1026F000006807F08BFABDE8F08700003C0000207E
:1027000048010020400000204C010020380000203B
:1027100040010020440100202C0000203000002057
:102720003400002084000020880100208800002060
:10273000900100208C00002098010020A0010020C2
:1027400028000020A00000202400002020000020FD
:10275000740100207C0100208001002098000020EE
:1027600094000020900000207801002064010020E7
:102770006C01002070010020680100202DE9F04765
:1027800004460D46601B07F07DFAFE4908600846C6
:102790000168FD48006807F0D5F8FB490860FB4870
:1027A0000168F848006807F0D5FB8046F8480168E2
:1027B000404607F0C7FA0646F3480168F548006846
:1027C00007F0C0FA8046EF480168F348006807F058
:1027D000B9FA8146414607F0B5F80746314607F099
:1027E000B1F8EE490860E7480068E8490860EB483E
:1027F000006807F00BFABDE8F0872DE9F05FE848C4
:10280000007800287DD1E74800680C2803D0E5480F
:102810000068162876D10021E348006807F05EFBC7
:102820000ED8E249E048006807F058FA08D8E048B6
:10283000007828B9DE480078401CDD490870A7E020
:102840000021D948006807F049FB12D8D749D6487B
:10285000006807F043FA0CD8D5480078012808D161
:10286000D3480078401CD24908700120CC49087038
:102870008EE00021CC48006807F030FB0FD8CB4930
:10288000C948006807F02AFA09D8C9480078022820
:1028900005D1C7480078401CC549087078E0002180
:1028A000C148006807F01AFB0FD8C049BE4800684D
:1028B00007F014FA09D8BE480078032805D1BC48AF
:1028C0000078401CBA49087062E0BA49B64800680E
:1028D00007F004FB17D8B849B348006807F0FEF9C1
:1028E00011D8B348007804280DD1B1480078401CB5
:1028F000AF4908700120AA490870B0A004F0EAFEB0
:1029000046E09FE2F5E0AB49A748006807F0E6FA29
:102910000FD8A949A448006807F0E0F909D8A448ED
:102920000078052805D1A2480078401CA04908700D
:102930002EE000219C48006807F0D0FA0FD89B4990
:102940009948006807F0CAF909D89948007806281C
:1029500005D197480078401C9549087018E000217F
:102960009148006807F0BAFA12D890498E4800687A
:1029700007F0B4F90CD88E480078072808D1002059
:102980008B4908708E4908708E4908608E4908701E
:102990008748007808287DD2DFE800F0A904222AC1
:1029A00047646C8B8948006806F029FC82464FF02A
:1029B0003332874B06F08AFC06460F46854800688E
:1029C00006F094FF804632463B4606F099F90446ED
:1029D00006F064F97F49086001207149087087E0BA
:1029E0007D4800687C49086001206D4908707FE0DF
:1029F0007648006806F003FC8246784A784B06F079
:102A000065FC804689467348006806F06FFF0646FD
:102A100042464B4606F074F9044606F03FF96D490C
:102A2000086001205E49087062E06848006806F0AE
:102A3000E6FB064600226B4B06F048FC04460D46BA
:102A40006548006806F052FF824622462B4606F093
:102A500057F9804606F022F95F4908600120504985
:102A6000087045E05C4800685B49086001204C49FB
:102A700008703DE05548006806F0C1FB8246002220
:102A8000584B06F023FC04460D465348006806F0F8
:102A90002DFF00E02BE0064622462B4606F03CFECA
:102AA000804606F0FBF84C49086001203C4908705C
:102AB0001EE04648006806F0A2FB82464FF06632F0
:102AC000494B06F003FC04460D464248006806F0F8
:102AD0000DFF064622462B4606F01EFE804606F0F7
:102AE000DDF83C49086001202D49087000E000BF76
:102AF000A8E12C4800680B2803D02A480068152854
:102B0000F6D100212848006807F0E8F90ED82749D7
:102B10002548006807F0E2F808D82548007828B969
:102B200023480078401C22490870DAE000211E4842
:102B3000006807F0D3F912D81C491B48006807F059
:102B4000CDF80CD81A480078012808D11848007828
:102B5000401C17490870012011490870C1E000218C
:102B60001148006807F0BAF944D810490E480068C7
:102B700007F0B4F83ED80E48007802283AD10C4845
:102B8000007833E0540100205C0100206001002047
:102B900098000020940000209000002058010020A0
:102BA00025010020C0000020140000200000C842C1
:102BB0002301002000F08746008089463200000093
:102BC000240100203801002002000020A400002081
:102BD000333315408800002084000020CDCCCCCCBD
:102BE000CCCCFC3F00000C4066661C40401CF74902
:102BF000087076E00021F648006807F06FF90FD8FA
:102C0000F449F348006807F069F809D8EF480078FC
:102C1000032805D1ED480078401CEC49087060E0BD
:102C2000ED49EB48006807F059F915D8EB49E84839
:102C3000006807F053F80FD8E448007804280BD157
:102C4000E2480078401CE14908700120E44908701E
:102C5000E4A004F03FFD44E0DF49DD48006807F0F0
:102C60003DF90FD8DD49DA48006807F037F809D890
:102C7000D6480078052805D1D4480078401CD349AF
:102C800008702EE0D849D248006807F027F90FD81D
:102C9000D049CF48006807F021F809D8CB48007820
:102CA000062805D1C9480078401CC849087018E0BA
:102CB000CD49C748006807F011F912D8C549C44882
:102CC000006807F00BF80CD8C0480078072808D136
:102CD0000020BE490870C5490870C5490860C5494B
:102CE0000870BA48007808287ED2DFE800F0A9040E
:102CF000222A47646C8BC048006806F080FA804640
:102D00004FF03332BD4B06F0E1FA04460D46BC48A5
:102D1000006806F0EBFD064622462B4605F0F0FF64
:102D2000824605F0BBFFB64908600120AC49087037
:102D300087E0B4480068B34908600120A8490870DA
:102D40007FE0AD48006806F05AFA0646AE4AAF4B3F
:102D500006F0BCFA04460D46A948006806F0C6FD18
:102D6000804622462B4605F0CBFF824605F096FFB3
:102D7000A349086001209A49087062E09E480068F3
:102D800006F03DFA80460022A14B06F09FFA044669
:102D90000D469C48006806F0A9FD064622462B46D3
:102DA00006F0BAFC824605F079FF964908600120DA
:102DB0008B49087045E093480068924908600120FB
:102DC000874908703DE08C48006806F018FA804694
:102DD00000228F4B06F07AFA04460D4689480068B7
:102DE00006F084FD064600E02AE022462B4605F068
:102DF00087FF824605F052FF82490860012078492A
:102E000008701EE07C48006806F0F9F906464FF0AD
:102E10006632804B06F05AFA804689467848006848
:102E200006F064FD044642464B4606F075FC8246B9
:102E300005F034FF7249086001206949087000E01C
:102E400000BF00BFBDE8F09F10B57348006864285C
:102E500006DC71490968080106F014FF684908603A
:102E60006D48006864280BDD6B480068B0F5967FFC
:102E700006DC69490968C80006F004FF604908607B
:102E800066480068642809DC64490968080106F09E
:102E9000F9FE634908600020624908605F480068E5
:102EA00064280EDD5D480068B0F5967F09DC5B495B
:102EB0000968C80006F0E6FE594908600020594933
:102EC000086010BD2DE9F0470446DFF85C91002C46
:102ED0007AD156480078012801D1FFF7B5FF45485F
:102EE00000780D2871D2DFE800F0C10712212C3BD9
:102EF000465560A3AEB9BD0000204249086049466E
:102F00003F48006806F01EFD3D490860D1E0494693
:102F10003C48006806F016FD3A49086049463848C2
:102F2000006806F00FFD36490860C2E049463548A2
:102F3000006806F007FD334908600020304908604A
:102F4000B7E049462F48006806F0FCFC2D490860B0
:102F500049462B48006806F0FDFF29490860A8E0B3
:102F600000202849086049462548006806F0F2FF1D
:102F7000234908609DE049462248006806F0EAFFC0
:102F80002049086049461E48006806F0E3FF1C49D6
:102F900008608EE049461B48006806F0DBFF1949CF
:102FA000086000201649086083E04946154800681B
:102FB00006F0D0FF1349086049461148006806F042
:102FC000C1FC0F49086074E0E1E04FE023010020FC
:102FD000140000200000C842008089C600F087C6A7
:102FE00025010020310000000000C8C2240100209B
:102FF0003801002002000020A400002033331540D7
:103000008800002084000020CDCCCCCCCCCCFC3F70
:1030100000000C4066661C401401002018010020CE
:103020008C000020300100200000204126010020FB
:103030004946FE48006806F08DFFFC490860002004
:10304000FB49086035E04946F848006806F07AFC1C
:10305000F64908600020F64908602AE0F548FEF7C6
:10306000FAFE26E0F448FEF7F6FE22E0F348006898
:1030700006F03CFC0746F24AF24B05F0FDFE054621
:1030800005F00CFEED490860EF48006806F02EFCE4
:103090000746EB4AEB4B05F0EFFE054605F0FEFD5B
:1030A000E94908600020E1490860E848E049086013
:1030B00000BF00BFE6480068404206F0E3FD054659
:1030C000DE480168284606F009FF06D2E04800689D
:1030D000404206F0D7FDD9490860DD48006806F097
:1030E000D1FD0546D5480168284606F0F7FD05D212
:1030F000D748006806F0C6FDD0490860D44800688B
:10310000404206F0BFFD0546CF480168284606F05C
:10311000E5FE06D2CE480068404206F0B3FDCA493B
:103120000860CB48006806F0ADFD0546C64801685A
:10313000284606F0D3FD05D2C548006806F0A2FD7A
:10314000C1490860C2480068404206F09BFD054640
:10315000B6480168284606F0C1FE06D2BC480068A1
:10316000404206F08FFDB1490860B948006806F09A
:1031700089FD0546AD480168284606F0AFFD05D239
:10318000B348006806F07EFDA8490860E6E0012C1F
:10319000FCD1B0480078012801D1FFF72EFBAE48E2
:1031A00000780B286FD2DFE800F0D7061632425EB7
:1031B0006F8B9BB7C700A948006806F063FD054602
:1031C000A1480168284606F0BDFB9F490860012020
:1031D000A3490870C1E0A148006806F053FD054608
:1031E00096480168284606F0ADFB94490860022025
:1031F0009B4908709948006806F044FD05469248CE
:103200000168284606F09EFB8F490860A5E09348B8
:10321000006806F037FD054688480168284606F034
:1032200091FB8649086003208D49087095E08B4822
:10323000006806F027FD054680480168284606F02C
:1032400081FB7E4908600420854908708348006836
:1032500006F018FD05467C480168284606F06FFE1A
:103260007949086079E07D48006806F00BFD054665
:1032700075480168284606F062FE7349086005201B
:103280007749087069E067E07448006806F0FAFC66
:1032900005466A480168284606F051FE67490860FD
:1032A00006206F4908706D48006806F0EBFC054683
:1032B00065480168284606F042FE634908604CE014
:1032C0006648006806F0DEFC05465C480168284652
:1032D00006F035FE594908600720614908703CE056
:1032E0005E48006806F0CEFC054654480168284652
:1032F00006F025FE514908600820594908705748D2
:10330000006806F0BFFC05464F480168284606F0F5
:1033100019FB4D49086020E05048006806F0B2FCF7
:10332000054642480168284606F009FE3F49086004
:1033300009204B49087010E04848006806F0A2FCDC
:1033400005463A480168284606F0FCFA3749086005
:103350000A204349087000E000BF00BF33480268FC
:103360003948016835480068FEF7A6FDBDE8F087DA
:10337000014640F2B632914213DA01200022394B65
:103380001A801B1D1A801B1D1A80374B1A60374B81
:10339000C3F88021344B1B1D1A60354BC3F88C21B8
:1033A00000E0002070472DE9FC5F324800680028EB
:1033B0007AD14FF40040304908603048007808B9AD
:1033C000012000E000202D4908702D4800780128D8
:1033D0000BD12C480078401CC0B22A4908700A283A
:1033E00003D1002008702649087003F0F3F9234840
:1033F00000780128DCD103F0EDF923480068234967
:10340000086023480068234908602348006823496E
:1034100008601E48006805F0F2FE80464FF0333227
:103420001F4B05F053FF06461E4A3EE08C0000206D
:1034300030010020F0000020F50000208400002072
:103440009A9999999999F13F880000206F12833BCE
:103450009C0000202401002002000020A400002085
:103460002101002034340140900122420080214299
:10347000000022423C81214214040140200100202E
:103480004D0000204C0000202C00002008000020EF
:10349000300000200C00002034000020100000202C
:1034A000333313407B14AE47FEE0924B05F00EFF22
:1034B00004460D469048006806F018FA22462B464E
:1034C000CDE9000105F01CFC824605F0E7FB8A49C6
:1034D00008608A48006805F092FE82464FF0333259
:1034E000874B05F0F3FE0646864A824B05F0EEFE5A
:1034F00004460D468448006806F0F8F980462246E6
:103500002B4605F0FDFBCDE9000105F0C7FB7E4928
:1035100008607E48006805F072FE80464FF0333246
:10352000774B05F0D3FE0646764A724B05F0CEFE89
:1035300082468B467648006806F0D8F90446524623
:103540005B4605F0DDFBCDE9000105F0A7FB704906
:1035500008606420FDF766FBFDF739FF054606F0BD
:1035600091FB04466B480168204606F0EBF9694977
:1035700008604FF07E516848006806F0E3F966493C
:1035800004460860654906F00DFB0ED163496148A9
:10359000006806F045FA044606F038FB604908600A
:1035A00000205C4908605C4908605D480068FFF7DE
:1035B000DFFE002878D15B48007880B95948007850
:1035C000FFF780FC58480068584908605848006870
:1035D0005849086058480068584908606BE0FDF792
:1035E000C1FA57490870084600780B2802D101201B
:1035F000544908704B480078FFF764FC3E48006867
:1036000006F004FB0446484801682046FFF7B6F878
:1036100040420011454908603B48006806F0F6FA50
:103620000446434801682046FFF728F8404200114D
:10363000404908603648006806F0E8FA04463E480B
:1036400001682046FEF7DBFF404200113B4908605D
:1036500036480068FEF782FD64280FD235480068BE
:10366000FEF77CFD642809D234480068FEF776FD39
:10367000642803D20020344908600EE03248006814
:103680000C303149086008460068304909688842B2
:1036900003DD2E4800682C4908602D480078022878
:1036A00003D0FEF7C0FE06E011E02748026801687B
:1036B0000068FEF78CFE41F28830FEF75DFE1F4881
:1036C00002681C48016819480068FEF75FFD002089
:1036D000BDE8FC9F10B56420FDF7E4FA0446022C17
:1036E00007D11C48007808B9012000E000201949E2
:1036F000087010BDE17A843F140000200C00002007
:10370000333313407B14AE47180000201000002014
:103710001C0000202C010020280100200000C842CD
:10372000440000204E000020380000202C00002023
:103730003C00002030000020400000203400002029
:103740000200002024010020A00000209C00002096
:103750004F0000200400002038B50446FB4890F8D4
:103760002400C0B114B10220009001E000200090BC
:10377000F64A1268D17BF54A526810786B460122EE
:10378000FEF7C4F810B14FF0FF3038BD9DF80010BF
:10379000EE48417423E0ED48807A10B94FF0FF30D5
:1037A000F3E724B1E948407C08B10020EDE714B10B
:1037B0000120009001E000200090E44A1268D17BD3
:1037C000E24A526810786B460122FEF79FF810B16A
:1037D0004FF0FF30D9E79DF80010DC48417400201D
:1037E000D3E738B5002419E0D8480068C07AA04271
:1037F00004D0D6480068407DA04200D10CE0D349F7
:10380000496808786B4601222146FEF7E1F810B1BD
:103810004FF0FF3038BD00BF601CC4B2CB484068D9
:103820000079A042E0DC0020F4E770B504460D46C4
:10383000C6480068C07AA04204D0C4480068407DF1
:10384000A04202D14FF0FF3070BDC04840680079FF
:10385000A04202DC4FF0FF30F6E7BC494968087827
:103860002B4601222146FEF7B3F8EDE738B50446B2
:10387000B64890F82300A04201D1002038BD14B111
:103880003020009001E000200090B048807C20B102
:103890009DF8000040F002000090AC4890F8220033
:1038A00020B19DF8000040F080000090A74A126807
:1038B000117DA64A526810786B460122FEF726F861
:1038C00010B14FF0FF30D9E7A04880F82340002026
:1038D000D4E738B5044604F0700010B10120009020
:1038E00005E014B10020009001E040200090974ACC
:1038F0001268917C954A526810786B460122FEF757
:1039000005F820B1002191488172481E38BD9DF80C
:10391000000020F040018D4801730020009004F069
:10392000400020B99DF8000040F00400009004F031
:10393000200020B99DF8000040F00200009004F043
:10394000100020B99DF8000040F00100009004F044
:10395000080020B99DF8000040F0380000907B4A34
:103960001268D17C794A526810786B460122FDF7C3
:10397000CDFF20B1002175488172481EC6E724B1F1
:10398000082C02D00020FFF771FF704884720021DC
:1039900001753220FCF7FCFC0020B7E738B504467F
:1039A0006A48807CA04201D1002038BD002C46D05E
:1039B000664A12681179654A526810786B4601228E
:1039C000FEF706F810B14FF0FF30EEE79DF800006B
:1039D00020F0200000905D4A126811795B4A52681D
:1039E00010786B460122FDF791FF10B14FF0FF30C8
:1039F000DBE70320FCF7CCFC02200090534890F852
:103A0000220020B19DF8000040F0800000904F4857
:103A100090F8230020B19DF8000040F030000090A5
:103A20004A4A1268117D494A526810786B46012251
:103A3000FDF76CFF002851D04FF0FF30B5E7434A47
:103A400012681179414A526810786B460122FDF7DD
:103A5000BFFF10B14FF0FF30A7E73C48807A00F07D
:103A6000010028B19DF8000040F02000009004E023
:103A70009DF8000020F020000090344A126811796F
:103A8000324A526810786B460122FDF73FFF10B1B1
:103A90004FF0FF3089E70320FCF77AFC2B4890F8C1
:103AA000220010B18020009001E000200090274803
:103AB00090F8230020B19DF8000040F03000009005
:103AC000224A1268117D214A526810786B46012201
:103AD000FDF71CFF10B14FF0FF3066E71B48847400
:103AE000002062E708B51948807A10B94FF0FF301E
:103AF00008BD00200090154A1268D17B134A526815
:103B000010786B460122FDF701FF10B14FF0FF3036
:103B1000EEE70E4A126851790C4A526810786B46EB
:103B20000122FDF7F3FE10B14FF0FF30E0E7074A46
:103B300012681179054A526810786B460122FDF728
:103B4000E5FE28B14FF0FF30D2E70000A8010020C9
:103B5000F74890F82400002850D00C200090F44A38
:103B600012681179F24A526810786B460122FDF70B
:103B7000CDFE10B14FF0FF30BAE7C0200090EC4806
:103B8000807A00F0010020B19DF8000040F0200094
:103B90000090E74A12681179E54A526810786B463E
:103BA0000122FDF7B3FE10B14FF0FF30A0E7E0486F
:103BB000407C10B10220009001E000200090DC4A1F
:103BC0001268D17BDA4A526810786B460122FDF701
:103BD0009DFE10B14FF0FF308AE700200090D44ADC
:103BE00012685179D24A526810786B460122FDF76B
:103BF0008DFE002852D04FF0FF3079E7042000906E
:103C0000CB4A12681179CA4A526810786B46012271
:103C1000FDF77CFE10B14FF0FF3069E7C448807CAF
:103C200020B9C348807A00F0010010B9402000900C
:103C300001E060200090BE4A12681179BC4A5268C7
:103C400010786B460122FDF761FE10B14FF0FF3096
:103C50004EE7B748407C10B10120009001E0002001
:103C60000090B34A1268D17BB14A526810786B4613
:103C70000122FDF74BFE10B14FF0FF3038E7AC4AA0
:103C800012685179AA4A52681078A94B1033012260
:103C9000FDF73CFE10B14FF0FF3029E7002027E789
:103CA00070B50446002624F00104A14890F82400D1
:103CB00008B1002070BD9E48807A10B94FF0FF30E7
:103CC000F8E79B48057C807A2040994908740846AB
:103CD000007CA04202D04FF0FF3600E0002614B96D
:103CE0009348007D18B10120FFF736FD02E0002067
:103CF000FFF732FD3CB1FFF7F5FE20B18C480574AB
:103D00004FF0FF30D6E73046D4E738B50446884850
:103D1000807A10B94FF0FF3038BDBC2C02DB012097
:103D2000009015E0622C02DB0220009010E02A2CAB
:103D300002DB032000900BE0142C02DB0420009037
:103D400006E00A2C02DB0520009001E0062000902E
:103D50007748C07A9DF80010884201D10020DBE747
:103D6000734A12689178724A526810786B46012241
:103D7000FDF7CCFD10B14FF0FF30CDE79DF80010FE
:103D80006B48C1720020C7E738B50446282C02DD15
:103D90004FF0FF3038BDDCB90020FFF767FD002091
:103DA0008DF8000007208DF80100614A1268917CAF
:103DB0005F4A526810786B460222FDF7A7FD10B1EA
:103DC0004FF0FF30E6E70021594801750020E1E798
:103DD0000120FFF74BFD20208DF80000012C06D1BB
:103DE00000208DF801000520FFF78FFF17E0052C5C
:103DF00006DC01208DF801000520FFF786FF0EE0AC
:103E0000142C06DC02208DF801000A20FFF77DFF4C
:103E100005E003208DF801001420FFF776FF9DF8E0
:103E20000100072101EB8010C0B28DF80100404A6B
:103E30001268917C3E4A526810786B460222FDF768
:103E400065FD10B14FF0FF30A4E7082138488172BA
:103E500000210173012101750020FFF721FF0020DF
:103E600098E738B504463248807A10B94FF0FF30F1
:103E700038BD2F4890F8240010B14FF0FF30F7E71D
:103E80002B48007D50B134B1282C04DCE0B2FFF7A0
:103E90007BFF0020ECE70020FFF776FF042C01DA1F
:103EA000042404E0B4F57A7F01DD4FF47A744FF412
:103EB0007A7090FBF4F0401EC0B200901C4A126869
:103EC00051781B4A526810786B460122FDF71EFD9F
:103ED00010B14FF0FF30CBE79DF80000401C4FF4CD
:103EE0007A7191FBF0F081B21148C1810146C98914
:103EF0004810FFF70AFF0020BAE738B504460C481F
:103F0000807A10B94FF0FF3038BD022C06D0042C57
:103F100007D0082C08D0102C0FD10BE00020009007
:103F20000EE0082000900BE01020009008E0000058
:103F3000A80100201820009002E04FF0FF30E3E7D6
:103F400000BFF948407A9DF80010B0EBE10F01D1B5
:103F50000020D9E7F44A1268D179F34A5268107800
:103F60006B460122FDF7D2FC10B14FF0FF30CBE7DA
:103F70009DF80000C110EC4841720020C4E738B53C
:103F80000446E948807A10B94FF0FF3038BDFA2C6A
:103F900009D0B4F5FA7F09D0B4F57A7F09D0B4F529
:103FA000FA6F0CD108E0002000900BE00820009090
:103FB00008E01020009005E01820009002E04FF08B
:103FC000FF30E3E700BFD848007A9DF80010B0EB5F
:103FD000E10F01D10020D9E7D34A12689179D24A82
:103FE000526810786B460122FDF790FC10B14FF03B
:103FF000FF30CBE79DF80000C010CB4908720020CD
:10400000C4E71CB580208DF80000C74A1268917C77
:10401000C54A526810786B460122FDF777FC10B153
:104020004FF0FF301CBD6420FCF7B2F900208DF882
:104030000000BD4A1268917CBB4A526810786B46FA
:104040000122FDF763FC10B14FF0FF30EAE7B64AFA
:104050001268917DB44A526810786B460622FDF7CB
:10406000B7FC10B14FF0FF30DCE79DF80500C0074A
:10407000400F9DF8031001F0010140EA41009DF856
:10408000011001F0010140EA010494B1012C03D1B7
:104090000121A548C17431E0022C03D10021A248BE
:1040A000C1742BE02146A1A003F014FB4FF0FF30B8
:1040B000B8E79D4A1268D1789B4A526810786B46DF
:1040C0000122FDF785FC10B14FF0FF30AAE79DF803
:1040D000000000F00F042CB99E4803F0FBFA4FF0EB
:1040E000FF309FE7042C06D19BA003F0F3FA0121D7
:1040F0008D48C17402E000218B48C174FF218A48B9
:104100008172FF2088490872FF2187484172C1727D
:104110004FF6FF71C181FF21017481740121017388
:1041200080F82210002180F82310417501751630A7
:10413000016041608160163880F8241080F82510F5
:10414000C1844FF4FA60FFF71AFF10B14FF0FF304F
:1041500068E70220FFF7D1FE10B14FF0FF3061E7B2
:104160002A20FFF7D2FD10B14FF0FF305AE732207E
:10417000FFF777FE10B14FF0FF3053E70020FFF755
:104180008FFD10B14FF0FF304CE70020FFF706FC29
:1041900010B14FF0FF3045E70020FFF79AFB0020F9
:1041A00040E770477CB504460D465F48807A00F0D2
:1041B000700010B94FF0FF307CBD5B4A1268117B74
:1041C000594A526810786B460622FDF701FC10B17F
:1041D0004FF0FF30F0E79DF801009DF8001040EA35
:1041E000012000B220809DF803009DF8021040EAF3
:1041F000012000B260809DF805009DF8041040EA9F
:10420000012000B2A08015B12846FFF7CAFF0020A8
:10421000D2E77CB504460D464348807A00F008009A
:1042200010B94FF0FF307CBD3F4A1268517B3E4AC7
:10423000526810786B460622FDF7CAFB10B14FF0AA
:10424000FF30F0E79DF801009DF8001040EA0120E2
:1042500000B220809DF803009DF8021040EA012082
:1042600000B260809DF805009DF8041040EA01202E
:1042700000B2A08015B12846FFF793FF0020D2E7D7
:104280002DE9FE4F05460C462748807A18B94FF0B5
:10429000FF30BDE8FE8F244A1268917B224A5268A3
:1042A000107802AB0222FDF793FB10B14FF0FF3004
:1042B000EFE79DF809009DF8081040EA012006B2DA
:1042C00014B12046FFF76DFF17494968C88805F00B
:1042D000F1FC154901904968B1F9080005F0D2FCDC
:1042E0008346304605F0CEFC5946009005F032FE7C
:1042F0008246019905F094FB81461F4905F022FB97
:1043000080464FF08F4105F01DFD074605F07EFC0D
:1043100028600020BDE710B588B004461CB94FF0F6
:10432000FF3008B010BD29E0A8010020556E73755C
:1043300070706F7274656420736F667477617265F4
:104340002070726F64756374207265762025642E08
:104350000A00000058B9000848616C662073656E59
:104360007369746976697479207061727420666FFC
:10437000756E642E0D0A000000000C42206830B9F2
:10438000606820B9A06810B9002008B010BDFA49D3
:104390004968087806AB03221146FDF719FB10B1F6
:1043A0004FF0FF30F1E79DF81800082101EB2010D5
:1043B00000F00F00ADF800009DF8190001EB20108F
:1043C00000F00F00ADF802009DF81A0001EB20107C
:1043D00000F00F00ADF8040020684100BDF90000B6
:1043E000403091FBF0F000B2ADF810006068410081
:1043F000BDF90200403091FBF0F000B2ADF81200C0
:10440000A0684100BDF90400403091FBF0F000B21B
:10441000ADF81400D8494968087806AB0622114661
:10442000FDF7D6FA10B14FF0FF30AEE79DF8190056
:104430009DF8181040EA012000B2ADF808009DF880
:104440001B009DF81A1040EA012000B2ADF80A00E6
:104450009DF81D009DF81C1040EA012000B2ADF847
:104460000C00BDF81000BDF80810084400B2ADF80B
:104470001000BDF81200BDF80A10084400B2ADF8F3
:104480001200BDF81400BDF80C10084400B2ADF8DD
:104490001400BDF81000000A8DF81800BDF81000D7
:1044A000C0B28DF81900BDF81200000A8DF81A008C
:1044B000BDF81200C0B28DF81B00BDF81400000A50
:1044C0008DF81C00BDF81400C0B28DF81D00AA497B
:1044D0004968087806AB06221146FDF717FA10B1B5
:1044E0004FF0FF3051E700204FE70146A248007A25
:1044F00030B1012807D0022809D003280FD10AE0E3
:10450000FA2008800EE04FF4FA7008800AE04FF4B9
:104510007A70088006E04FF4FA60088002E000201C
:10452000088000BF00BF0020704701469248407AD3
:1045300030B1012807D0022808D003280CD108E0A8
:10454000022008700BE00420087008E008200870C2
:1045500005E01020087002E04FF0FF30704700BF08
:104560008548C07C18B108784006000E087000200D
:10457000F4E701468048C07A082817D2DFE800F047
:104580001704070A0D101318BC20088013E06220DE
:10459000088010E02A2008800DE0142008800AE03E
:1045A0000A20088007E00520088004E000BF00BF63
:1045B0000020088000BF00BF0020704701466E4801
:1045C00090F8240010B14FF0FF3070476A48C0895E
:1045D00008800020F9E7014600200880401E70474F
:1045E00001464FF0FF30704701466348007A30B112
:1045F000012807D0022808D003280CD108E05F4822
:1046000008600BE05E48086008E05E48086005E06E
:104610005D48086002E04FF0FF30704700BF0020A7
:10462000FBE701465448407A30B1012808D00228FF
:104630000AD0032810D10BE04FF4804008800EE030
:1046400041F69C7008800AE04FF48050088006E034
:104650004FF40060088002E04FF0FF30704700BF69
:104660004548C07C10B10888401008800020F5E75C
:1046700001464148007C08700020704701463E48D2
:10468000807A10B10120087001E00020087000203D
:10469000704738B504463848807A10B94FF0FF307B
:1046A00038BD354A1268117C334A526810786B461F
:1046B0000222FDF78DF910B14FF0FF30F0E79DF8C1
:1046C00001009DF8001040EA012000B22080002087
:1046D000E6E72DE9FE4F0746884692461D46DDF87F
:1046E00030B000260024244890F8240010B1601E49
:1046F000BDE8FE8F002028701F48807A10B94FF067
:10470000FF30F5E71C48007C10B94FF0FF30EFE7B1
:104710001948007C00F0400008B1B01CC6B2164831
:10472000007C00F0200008B1B01CC6B21248007C2A
:1047300000F0100008B1B01CC6B20F48007C00F0B9
:10474000080008B1B01DC6B20B4A1268917A0A4A35
:10475000526810786B460222FDF73AF910B14FF01B
:10476000FF30C5E79DF801009DF8001040EA0129DF
:10477000B1450BDA0020BBE7A8010020000003438D
:10478000000083423333034233338341FC484068A3
:104790004088B9EB600F17DDF94A1268517CF84A7E
:1047A000526810786B460122FDF712F910B14FF0F4
:1047B000FF309DE79DF8000000F0100020B1FFF7EA
:1047C00091F96FF0010093E75046FFF7EAFCEC4ADD
:1047D0001268D17AEA4A526810786B463246FDF781
:1047E000F7F810B14FF0FF3082E799FBF6F0401E6A
:1047F0008BF8000000202870B4422AD0E048007CEA
:1048000000F0080028B3601C1DF800001DF804101B
:1048100040EA012000B2A8F80000E01C1DF80010DA
:10482000A01C1DF8000041EA002000B2A8F8020018
:10483000601D1DF80010201D1DF8000041EA002039
:1048400000B2A8F80400287840F008002870A01DE5
:1048500084B2B44213D0CA48007C00F0400070B16A
:10486000601C1DF800001DF8041040EA012000B291
:104870003880287840F040002870A01C84B2B442F0
:1048800013D0BF48007C00F0200070B1601C1DF800
:1048900000001DF8041040EA012000B2788028785A
:1048A00040F020002870A01C84B2B44213D0B44859
:1048B000007C00F0100070B1601C1DF800001DF8B5
:1048C000041040EA012000B2B880287840F01000BF
:1048D0002870A01C84B200200AE7F8B504460F46F1
:1048E0001646A74890F8240010B94FF0FF30F8BDE5
:1048F000A348807A10B94FF0FF30F8E7A04A126859
:10490000917A9F4A526810786B460222FDF760F850
:1049100010B14FF0FF30EAE79DF801009DF800105C
:1049200040EA0125A54203DA00203070401EDEE790
:10493000934840684088B5EB600F17DD904A1268D5
:10494000517C8F4A526810786B460122FDF740F87F
:1049500010B14FF0FF30CAE79DF8000000F01000E2
:1049600020B1FFF7BFF86FF00100C0E7E2B2844B5F
:104970001B68D97A824B5B6818783B46FDF728F8AC
:1049800010B14FF0FF30B2E795FBF4F0401E3070ED
:104990000020ACE701467A4880F8221000207047DA
:1049A0007CB5054676494968087801AB04220D219B
:1049B000FDF70EF808B107207CBD9DF80700C0F395
:1049C00001109DF8041001F0E00140EAE1008DF8CB
:1049D00000009DF80700C0F381009DF8051001F06C
:1049E000E00140EAE1008DF801009DF8070000F0C9
:1049F00003009DF8061001F0E00140EAE1008DF8A7
:104A0000020000241CE01DF8040018B9002045F83D
:104A1000240013E05B4845F8240006E055F8240024
:104A2000594905F08FF945F824001DF80400401E8F
:104A3000C0B20DF804000028F0D100BF601CC4B261
:104A4000032CE0DB0020B7E72DE9FE4F06460F46BA
:104A500000256846FFF7A4FF002442E056F8240032
:104A600057F82410A0EB010ABAF1000F01DB514600
:104A700001E0CAF10001084605F004F983464FF051
:104A80008F4104F0CDFF80465DF82400002105F041
:104A900089F816D05DF82410404604F0C1FF824624
:104AA0004FF07E5105F056FA814629F0004A37480A
:104AB000416A504605F012FA12D20120A040054387
:104AC0000EE03248C169404605F008F905D32F4889
:104AD000016A404605F002FA02D20120A0400543D7
:104AE000641C032CBADB2846BDE8FE8F2DE9FC5F71
:104AF00006460F46002522494968087801AB032283
:104B00000D21FCF765FF10B10720BDE8FC9F9DF863
:104B1000040000F01F008DF804009DF8050000F06F
:104B20001F008DF805009DF8060000F01F008DF8AD
:104B30000600002462E056F8240057F82410A0EB89
:104B4000010BBBF1000F01DB594601E0CBF1000185
:104B5000084605F097F84FF08F41009004F060FF91
:104B6000814601A8005DC0B30849086805F0A2F8B5
:104B700083465946064804F053FF80460FE0000084
:104B8000A80100207B14AE3E1D5A843FBCAB000838
:104B900000B04C45FE49404605F0D4F8804601A8D7
:104BA000005D401EC0B201A908550028F2D141465F
:104BB000484604F035FF83464FF07E5105F0CAF9B0
:104BC00082462AF0004BF3488169584605F086F981
:104BD00013D20120A04005430FE0FFE7ED48016933
:104BE000484605F07BF805D3EA484169484605F098
:104BF00075F902D20120A0400543641C032C9ADB06
:104C0000284682E72DE9F04F87B005460C469146CD
:104C100001208DF8100000208DF81100DE4A126886
:104C2000917CDD4A5268107804AB0222FCF76EFEDC
:104C300020B14FF0FF3007B0BDE8F08FC820FBF780
:104C4000A7FB00208DF81000D34A1268D17BD24A0E
:104C50005268107804AB0122FCF758FE10B14FF0F7
:104C6000FF30E8E7CC4A12685179CB4A5268107895
:104C700004AB0122FCF74AFE10B14FF0FF30DAE737
:104C8000C54A1268917CC44A5268107804AB01226C
:104C9000FCF73CFE10B14FF0FF30CCE7BE4A126883
:104CA000D17DBD4A5268107804AB0122FCF72EFE7C
:104CB00010B14FF0FF30BEE7B74A12681179B64A1B
:104CC0005268107804AB0122FCF720FE10B14FF0BF
:104CD000FF30B0E70C208DF81000AF4A1268117950
:104CE000AD4A5268107804AB0122FCF70FFE10B1F8
:104CF0004FF0FF309FE70F20FBF74AFBA648806A82
:104D0000407A8DF81000A44A12689178A24A52683D
:104D1000107804AB0122FCF7F9FD10B14FF0FF3021
:104D200089E79D48806A007A8DF810009A4A1268D7
:104D30005178994A5268107804AB0122FCF7E6FDDD
:104D400010B14FF0FF3076E7B9F1000F07D092486D
:104D5000806A807A40F0E0008DF8100004E08E4810
:104D6000806A807A8DF810008B4A126891798A4A9D
:104D70005268107804AB0122FCF7C8FD10B14FF067
:104D8000FF3058E7B9F1000F07D08348806AC07A36
:104D900040F0E0008DF8100003E07E48C07A8DF806
:104DA00010007D4A1268D1797B4A5268107804ABB2
:104DB0000122FCF7ABFD10B14FF0FF303BE7B9F13A
:104DC000000F02D0C820FBF7E3FA40208DF8100056
:104DD000714A12681179704A5268107804AB012246
:104DE000FCF794FD10B14FF0FF3024E778208DF8E8
:104DF0001000694A12685179674A5268107804AB0A
:104E00000122FCF783FD10B14FF0FF3013E7614939
:104E10008889FBF7BDFA00208DF810005E4A126801
:104E200051795D4A5268107804AB0122FCF76EFD9F
:104E300010B14FF0FF30FEE6574A1268917A564A99
:104E40005268107804AB0222FCF7C2FD10B14FF09B
:104E5000FF30F0E69DF811009DF8101040EA012B9C
:104E60000C209BFBF0F0C6B20020A86068602860B0
:104E7000A06060602060824665E0474A1268D17A8F
:104E8000454A5268107804AB0C22FCF7A1FD10B122
:104E90004FF0FF30CFE69DF811009DF8101040EA6A
:104EA000012000B2ADF808009DF813009DF8121023
:104EB00040EA012000B2ADF80A009DF815009DF807
:104EC000141040EA012000B2ADF80C00BDF9081042
:104ED000206808442060BDF90A10606808446060DA
:104EE000BDF90C10A0680844A0609DF817009DF85B
:104EF000161040EA012000B2ADF800009DF819003C
:104F00009DF8181040EA012000B2ADF802009DF8AB
:104F10001B009DF81A1040EA012000B2ADF8040011
:104F2000BDF90010286808442860BDF902106868BF
:104F300008446860BDF90410A8680844A8600AF134
:104F4000010000F0FF0AB24597DB1248D0F800C01C
:104F50002868C117090441EA10410704624600238A
:104F6000384602F092FB32460023CDE9020102F0FE
:104F70008CFB28600748D0F800C06868C117090496
:104F800041EA1041070462460023384606E000006B
:104F900054E3853FBCAB0008A801002002F075FB7C
:104FA00032460023CDE9020102F06FFB6860FE4843
:104FB000D0F800C0A868C117090441EA10410704ED
:104FC00062460023384602F060FB32460023CDE9FA
:104FD000020102F05AFBA860F348D0F804C021682F
:104FE000C817000440EA11480F04624600233846FF
:104FF000414602F04AFB32460023CDE9020102F0AD
:1050000044FB2060E848D0F804C06068C117090478
:1050100041EA1041070462460023384602F035FB9E
:1050200032460023CDE9020102F02FFB6060DE482A
:10503000D0F804C0A068C117090441EA1041070470
:1050400062460023384602F020FB32460023CDE9B9
:10505000020102F01AFBA060A068002804DDA0682D
:10506000A0F58030A06003E0A06800F58030A0606B
:105070000020E0E538B50446CC4890F82400A04272
:1050800001D1002038BD24B3C84890F8250010B9DC
:105090004FF0FF30F6E70020FEF75EFB0020FEF742
:1050A0007DFCC249C88CFEF7DCFE00200090BF49A1
:1050B000496808786B4601222321FCF727FC01216F
:1050C000BA4880F824100120FEF746FBFEF70AFDDF
:1050D00013E00020FEF740FBB448007C0090B34989
:1050E000496808786B4601222321FCF70FFC002158
:1050F000AE4880F82410FEF7F5FC0020C2E72DE949
:10510000F04F8DB083460F4602200C90A74890F8D0
:10511000240020B10020FFF7ADFF012600E00026AB
:1051200003A8FFF7E2F905A8FFF7FFF901A8FFF7C9
:1051300020FA02A8FFF742FA9C4890F80AA004A8B7
:10514000FFF796FA002407E0002239465846FFF799
:1051500059FD00B902E0641C022CF5DB00BF022CF3
:1051600001D1002528E0002407E0012206A909A8B2
:10517000FFF748FD00B902E0641C022CF5DB00BF1C
:10518000022C01D1002517E006A93846FFF75CFC88
:1051900000F0FF0809A95846FFF7A8FC00F0FF0936
:1051A0000025B9F1000F01D145F00105B8F1000F5C
:1051B00001D145F0020500BFFF207C490872FF21A4
:1051C0007A484172C1724FF6FF71C181FF2181722D
:1051D000017401210173BDF80C00FEF7D0FE9DF8AB
:1051E0001400FEF78AFEBDF80400FEF78EFDBDF840
:1051F0000800FEF736FE5046FEF76BFB9DF81000E8
:10520000FEF74EFD16B10120FFF734FF28460DB022
:10521000BDE8F08FF8B504460D46164616B94FF0B6
:10522000FF30F8BD6148807A10B94FF0FF30F8E7E1
:1052300020128DF80000E0B28DF801009DF8010009
:1052400028445A4949684989884202DD4FF0FF30B5
:10525000E7E7564A1268117E544A526810786B4646
:105260000222FCF753FB10B14FF0FF30D9E7EAB24E
:105270004E4B1B68597D4D4B5B6818783346FCF7E5
:1052800045FB10B14FF0FF30CBE70020C9E7F8B580
:1052900004460D46164616B94FF0FF30F8BD434898
:1052A000807A10B94FF0FF30F8E720128DF8000037
:1052B000E0B28DF801009DF8010028443B4949689F
:1052C0004989884202DD4FF0FF30E7E7374A12682C
:1052D000117E364A526810786B460222FCF716FBA4
:1052E00010B14FF0FF30D9E7EAB2304B1B68597D5F
:1052F0002E4B5B6818783346FCF76AFB10B14FF011
:10530000FF30CBE70020C9E72DE9F04385B0054623
:105310000E4690469946254890F8250020B14FF05A
:10532000FF3005B0BDE8F08316B94FF0FF30F8E765
:10533000002423E0281B102801DD102000E0281B9A
:1053400087B2321939462046FFF764FF10B14FF09B
:10535000FF30E6E701AA39462046FFF798FF10B173
:105360004FF0FF30DDE730193A4601A902F02EFA7E
:1053700010B16FF00100D4E7E01984B2AC42D9DB80
:105380004FEA28208DF8000008F0FF008DF801009A
:10539000064A1268917E054A526810786B460222CE
:1053A000FCF7B4FA38B103E0BCAB0008A801002058
:1053B0004FF0FF30B5E701218A4880F82510A0F8AA
:1053C00026900020ADE70146864890F8240008703A
:1053D0000020704702464FF0FF30704701464FF003
:1053E000FF307047F8B505460F461446002C70D0C4
:1053F000B5F5FF5F01DDFF2605E0202D01DA01266E
:1054000001E0C5F3471607B90127282C02DD4FF04C
:10541000FF30F8BD7348407D28BB724890F82400E7
:1054200038B10020FFF726FE01216E4880F82010D9
:1054300003E000216B4880F820106A481630FFF71F
:1054400054F868481830FFF770F866481A30FFF7CC
:1054500090F864481C30FFF7B1F86248817A817790
:105460001F30FFF705F90020FEF776F90020FEF760
:105470008BFC00208DF800005A4A12689178594A36
:10548000526810786B460122FCF740FA10B14FF0D9
:10549000FF30BEE740208DF80000524A1268D17BF1
:1054A000504A526810786B460122FCF72FFA00B17F
:1054B00065E08DF800608DF801704A4A1268117A33
:1054C000484A526810786B460222FCF71FFA08B16E
:1054D00055E047E00520FAF75BFF4248407A072194
:1054E00001EBC000C0B28DF800003E4A1268D179CD
:1054F0003C4A526810786B460122FCF707FA00B16B
:105500003DE020208DF80000012C03D100208DF813
:1055100001000EE0052C03DC01208DF8010008E0FD
:10552000142C03DC02208DF8010002E003208DF82A
:1055300001009DF80100072101EB8010C0B28DF839
:105540000100284A1268917C264A526810786B46FE
:105550000222FCF7DBF900B111E00121214841757D
:10556000002056E71F4A1632002103E0505C00B1CC
:1055700005E0491C0C29F9D34FF0FF3049E7FF2023
:1055800018490872FF2117484172C1724FF6FF7126
:10559000C181FF2181720174012101730146887F5D
:1055A000FEF797F90F49C88AFEF7E9FC0D49087E16
:1055B000FEF7A3FC0B49488BFEF7A7FB0949888B34
:1055C000FEF74FFC0749C87FFEF76AFB054890F8D5
:1055D000200010B10120FFF74DFD00210148417569
:1055E000002016E7A801002010B5C8234FF4806200
:1055F000F74940F6F630FFF787FE10BD10B586B0CC
:105600000446F4A000680390F3A000680290F3A0A1
:1056100000680190F2A00068009004F0030003A964
:10562000085C8DF8140003A8C4F3C101405C8DF838
:10563000150003A8C4F38111405C8DF8160004F036
:10564000030002A9085C8DF8100002A8C4F3C10190
:10565000405C8DF8110002A8C4F38111405C8DF804
:10566000120005AA032140F22640FFF7D3FD18B12E
:105670004FF0FF3006B010BD04AA032140F22A40CB
:10568000FFF7C8FD10B14FF0FF30F3E70198059028
:105690000098049004F0040058B19DF8140040F004
:1056A00001008DF814009DF8100040F001008DF805
:1056B000100004F0200058B19DF8150040F00100E2
:1056C0008DF815009DF8110040F001008DF81100D3
:1056D00004F4807058B19DF8160040F001008DF878
:1056E00016009DF8120040F001008DF8120005AA86
:1056F00003214FF48860FFF78DFD10B14FF0FF30AC
:10570000B8E704AA032140F23140FFF783FD10B14E
:105710004FF0FF30AEE7B34804810020AAE71FB581
:105720000446B048007A00F0030054F820000190CD
:10573000AC48007A00F0040010B10198404201909A
:10574000A848007AC0F3C10054F820000290A54890
:10575000007A00F0200010B1029840420290A14867
:10576000007AC0F3811054F8200003909D4800890E
:1057700000F4807010B10398404203909A49019858
:1057800080FB0101800F40EA810001909649029858
:1057900080FB0110820042EA9170029092490398C6
:1057A00080FB0110820042EA917003900198000E84
:1057B0008DF800000198000C8DF801000198000A96
:1057C0008DF802000198C0B28DF803006A460421EA
:1057D0004FF47470FFF71EFD18B14FF0FF3004B0A6
:1057E00010BD0298000E8DF800000298000C8DF894
:1057F00001000298000A8DF802000298C0B28DF8EC
:1058000003006A4604214FF47570FFF703FD10B1E1
:105810004FF0FF30E3E70398000E8DF80000039887
:10582000000C8DF801000398000A8DF8020003981F
:10583000C0B28DF803006A4604214FF47670FFF77A
:10584000E9FCCCE770B588B0064601A8FEF7E9FE92
:10585000BDF804000021C90341EA5045C403614872
:10586000007A00F0030056F8200005905D48007AA9
:1058700000F0040010B10598404205905948007AA4
:10588000C0F3C10056F8200006905648007A00F098
:10589000200010B10698404206905248007AC0F3AA
:1058A000811056F8200007904E48008900F480705F
:1058B00010B10798404207900598C117A0FB042338
:1058C00001FB043100FB0510810041EA9270059054
:1058D0000698C117A0FB042301FB043100FB05104F
:1058E000810041EA927006900798C117A0FB04233B
:1058F00001FB043100FB0510810041EA9270079022
:105900000598000E8DF808000598000C8DF8090028
:105910000598000A8DF80A000598C0B28DF80B00B2
:105920000698000E8DF80C000698000C8DF80D00FE
:105930000698000A8DF80E000698C0B28DF80F0088
:105940000798000E8DF810000798000C8DF81100D4
:105950000798000A8DF812000798C0B28DF813005E
:1059600002AA0C214FF42570FFF754FC08B070BD5B
:1059700030B585B004461DA207CA02AB07C3C82CC8
:1059800003DD4FF0FF3005B030BDC82090FBF4F0D0
:10599000401E85B2280A8DF80000E8B28DF801009B
:1059A0006A46022140F21620FFF734FC10B14FF096
:1059B000FF30E8E702AA0C2140F6C120FFF72AFCDD
:1059C00010B14FF0FF30DEE7064884810020DAE7AF
:1059D000E4AB00084CCD6C000CC92C0036567600A8
:1059E000264666004C06002009E3CA02FEF2ABC45C
:1059F000AAF1DFDFBBAFDFDF0146FC48808908800A
:105A0000002070472DE9FC4706460F4606F00700C8
:105A100010B1B7F5C86F03DD4FF0FF30BDE8FC876C
:105A2000384604F047F98146F14903F0F9FF804612
:105A30006846FEF77AFD9DF80000022806D004288B
:105A400016D0082826D0102848D135E04FF08D41D7
:105A5000404604F077F9814604F0F4F884B2E54951
:105A6000404604F06FF9814604F0ECF885B238E066
:105A70004FF08C41404604F065F9814604F0E2F8AD
:105A800084B2DD49404604F05DF9814604F0DAF85D
:105A900085B226E04FF08B41404604F053F9814631
:105AA00004F0D0F884B2D549404604F04BF9814661
:105AB00004F0C8F885B214E04FF08A41404604F083
:105AC00041F9814604F0BEF884B2CD49404604F065
:105AD00039F9814604F0B6F885B202E04FF0FF30A4
