:101500002D2D2D2D2D2D2D2D57524F4E472D2D2D5F
:101510002D2D2D2D0050617373576F72643A2A2A56
:101520002A2A2A2A20202020200020202020576537
:101530006C636F6D65204E4F2E20212020200020EF
:101540002053454C454354202055534552202049B3
:101550004420002020205B325D20205B335D202072
:101560005B345D202020002D2D2D2D2D2D53554336
:10157000434545442D2D2D2D2D2D00204E4F2E2041
:10158000202D2D2D2D2044454C455445442100202F
:10159000202020202020202020202020202020204B
:1015A0002020002020414C4C2044454C45544544CB
:1015B00021212120202000202020494E5641494C45
:0B15C0004420555345522121212000FA
:101684004C00060005000500040008000900046081
:1016940030002000010001000100010001000100F0
:1016A4000200000002000200020002000200020028
:1016B4000300000003000300030003000300030011
:1016C4000400004C001200000000000000000000B4
:1016D400000041000478420000FFFF4200020000C5
:0416E4004100057745
:10000E001222401222921200061221B6121D6C12FA
:10001E0021CEE4FFFE12215C1220237F027E00120D
:10002E001F6AD20274FF900000F0A3F0D201121DDD
:10003E00B4EF644D4E7003020409900000E0FEA37D
:10004E00E0FF121B00EE70DAEF24FE70030200FFD9
:10005E0024F97003020414240870C7121F9D802A0D
:10006E00900002E07002A3E0702F7F01FE121F3796
:10007E007BFF7A1579007F017E001214377BFF7AA1
:10008E001579157F027E00121437D20012042790C4
:10009E000002EEF0A3EFF080C7D3900003E09400CF
:1000AE00900002E064809480403D1222407BFF7AF3
:1000BE0015792A7F017E00121437900002A3E024E6
:1000CE0030FBE4FD7F0F121E477F0D7E0012215C78
:1000DE007F027E0012220CE4FFFE12215C7F067E60
:1000EE0000121F6A02017F7F017E00121F3702017C
:1000FE007F121F9DD200120427900002EEF0A3EF94
:10010E00F0C39401EE64809480500A7F017E001249
:10011E001F370201FD1217C474FF900000F0A3F008
:10012E00C201121DB4900000EEF0A3EFF07F017E2D
:10013E000012221E900000E0FEA3E0FF640D4E6050
:10014E0018EF640E4E6012EF64014E600CEF640205
:10015E004E6006EF64034E70C79000047478F0EFA3
:10016E00640D4E600C900000E07004A3E0640E700D
:10017E0002807C900000E0FEA3E0FFEE7022EF24F0
:10018E00FE600F146014240270169000047450F078
:10019E00800E9000047446F080069000047443F0C4
:1001AE00121B537F017E0012221EC201121DB4903B
:1001BE000000EEF0A3EFF07F147E0012226D90008F
:1001CE0000E0FEA3E0FF640D4E6012EF640E4E6081
:1001DE000CEF64014E6006EF64024E70CDEF640DBD
:1001EE004E6006EF640E4E700C9000047478F012A0
:1001FE002023020030900004E024BD70030203E5CA
:10020E0024FD700302037124F660030204099000BA
:10021E0000E07004A3E06401700E12078A74FF9070
:10022E000000F0A3F00203FA900000E07004A3E0D7
:10023E00640260030203FA900002E07004A3E0641B
:10024E000160030203FA7BFF7A15793F7F01FE12EC
:10025E0014377BFF7A1579537F027E00121437C252
:10026E0001121DB490001EEEF0A3EFF0640D4E705F
:10027E000302040990001EE07004A3E0640E7003F4
:10028E0002040990001EE0FEA3E0FFD39408EE6482
:10029E00809480500BC3EF9402EE648094805016CD
:1002AE007F017E00121F37C201121DB490001EEE98
:1002BE00F0A3EFF080CD90001EE0FEA3E0FFD394FC
:1002CE0005EE64809480500AEF9408EE648094806A
:1002DE00502390001FE0C4F8540FC868FF90001E12
:1002EE00E0C454F048FE74CE2FF58274FF3EF583C1
:1002FE00E4F0A304F090001FE0C4F8540FC868FFA8
:10030E0090001EE0C454F048FE740E2FF582740067
:10031E003EF583E4F0A3F07BFF7A1579677F01FE4B
:10032E001214377BFF7A15797B7F027E0012143709
:10033E0090001EA3E02430FB7D017F05121E477B3B
:10034E00FF7A15798F7F037E001214377BFF7A15A3
:10035E00798F7F047E001214377F017E00121F37C3
:10036E000203FA900000E07004A3E06401701290A2
:10037E000002E0FEA3E0FF64014E70051209BA8090
:10038E0056900000E07004A3E06402702890000212
:10039E00E07004A3E06401701C121D231222BE7BC8
:1003AE00FF7A1579A37F047E001214377F027E0038
:1003BE00121F6A8022900002E07004A3E0640160C4
:1003CE003A7BFF7A1579B77F047E001214377F03CC
:1003DE007E00121F378015900000E07004A3E064C9
:1003EE0001700E7F03FE121F6A120FD3122023809C
:1003FE000A120E9A7F057E00121F6A74FF9000008B
:10040E00F0A3F0020030122023E4FFFE1210FF7F53
:09041E00017E00121F37020030BC
:101334002D2D2D2D2D2D2D31382D2D3233312D2DBB
:101344002D2D2D2D0020202057656C636F6D652099
:10135400486F6D652121202020002020202020209E
:101364002020202020202020202020202020002D8C
:101374002D2D2D2D2D2D2D454449542D2D2D2D2D27
:101384002D2D2D0020202020202020312E436F647D
:101394006520202020202020002020322E46696E47
:1013A4006765722020332E44617461202000524FFF
:1013B4004F54004E4F2E32004E4F2E33004E4F2EC0
:1013C400340020312E4348414E47452020322E44DC
:1013D400454C455445200020312E204144442020D2
:1013E4002020322E44454C4554452000312E444F94
:1013F400574E4C4F414420322E55504C4F414420BF
:10140400002D2D2D2D2D2D2D4C4F47494E2D2D2D9D
:101414002D2D2D2D2D0050617373576F72643A2A50
:0B1424002A2A2A2A2A2020202020004B
:0416E8004100CC4EA3
:051AAB009000C0EFF007
:101AB00012227B9000CCE0FF121FF79000C0E05490
:101AC000F0A3F0440CFFF0121FF77F017E001222FA
:101AD0006D9000C1E054FBFFF0121FF79000C0E0D2
:101AE000540FC454F0A3F0440CFFF0121FF77F0111
:101AF0007E0012226D9000C1E054FBFFF0021FF740
:051C91009000C0EFF01F
:101C960012227B9000CCE0FF121FF79000C0E054A8
:101CA600F0A3F0440DFFF0121FF7009000C1E054BE
:101CB600FBFFF0121FF79000C0E0540FC454F0A3CE
:101CC600F0440DFFF0121FF7009000C1E054FBFF37
:041CD600F0021FF702
:101D6C007F33121AAB7F017E0012226D7F32121A62
:101D7C00AB7F017E0012226D7F28121AAB7F017E91
:101D8C000012226D7F0C121AAB7F017E0012226DA5
:101D9C007F06121AAB7F017E0012226D7F01121A90
:081DAC00AB7F017E0002226DF5
:101FCB009000B0EBF0A3EAF0A3E9F09000B0E0FBD7
:101FDB00A3E0FAA3E0F9120E09FF600F121C919017
:0C1FEB0000B1E475F001120E3480E02219
:0A1E3D007B2D9000ADA3E0FF7D01B6
:101E47009000BFEBF0ED5403FDFB7A007004EF4404
:101E570080FFEB64014A7004EF44C0FFED64027039
:101E670004EF4494FFED64037004EF44D4FF121AA7
:091E7700AB9000BFE0FF021C91DA
:08142F007BFF7A13795E7E0059
:101437009000ADEBF0A3EAF0A3E9F09000ABEEF07B
:10144700A3EFF0C20264014E701DA3E0FBA3E0FA14
:10145700A3E0F9120E09FBE4FDFF121E479000AE50
:10146700E475F001120E349000ABE07004A3E06461
:101477000270209000ADE0FBA3E0FAA3E0F9120EA2
:1014870009FB7D01E4FF121E479000AEE475F001F1
:10149700120E349000ABE07004A3E0640370209058
:1014A70000ADE0FBA3E0FAA3E0F9120E09FB7D0211
:1014B700E4FF121E479000AEE475F001120E34905F
:1014C70000ABE07004A3E0640470209000ADE0FB83
:1014D700A3E0FAA3E0F9120E09FB7D03E4FF121E55
:1014E700479000AEE475F001120E349000ADE0FBBA
:0914F700A3E0FAA3E0F9021FCB07
:0722BE00C2027F01021AAB0E
:10202300D2027BFF7A1379347F017E00121437E4E6
:10203300FFFE1210FF7BFF7A1379497F037E0012A4
:0A20430014377F0412142F7F0122CE
:1017C400C2027BFF7A1379737F017E001214377B88
:1017D400FF7A1379887F027E001214377BFF7A1315
:1017E400799D7F037E00121437D3900003E09400A8
:1017F400900002E06480948040097B2DE4FD7F0129
:10180400121E47900002E07004A3E0640170097B9B
:10181400FF7A1379B2121FCB900002E07004A3E0A8
:10182400640270097BFF7A1379B7121FCB90000210
:10183400E07004A3E0640370097BFF7A1379BC129F
:101844001FCB900002E07004A3E0640470097BFFE6
:081854007A1379C1121FCB22A7
:101B5300C2027BFF7A1379737F017E001214377BF5
:101B6300FF7A13795E7F027E00121437900000E043
:101B7300FEA3E0FFEE7029EF24FE600F146014242F
:101B830002701D7BFF7A1379C6800E7BFF7A13796F
:101B9300DB80067BFF7A1379F07F037E0012143714
:011BA300221F
:101F9D00C2027BFF7A1479057F017E001214377B14
:101FAD00FF7A14791A7F027E001214377F03121400
:0E1FBD002F7BFF7A13795E7F047E00021437BB
:0810FF009000ADEEF0A3EFF04C
:10110700E4A3F0A3F01218E89000ADE0FEA3E0FF1F
:10111700C39412EE6480948040030212289000ADBD
:10112700E0FCA3E0FD2484F58274003CF583E02411
:1011370030FB74B12DF58274003CF583EBF0EE6063
:10114700030211F0EF14602D24FB604724FD605665
:1011570024FD606524FD6074240F60030211F07B99
:1011670020121E3F9000B0E004F070249000AFE022
:1011770004F00212179000ADA3E0FF7B207D01125F
:101187001E479000B0E004F070069000AFE004F056
:10119700021217121E3D9000B0E004F07006900096
:1011A700AFE004F0806A121E3D9000B0E004F070DA
:1011B7005F9000AFE004F08057121E3D9000B0E052
:1011C70004F0704C9000AFE004F080449000ADA3B1
:1011D700E0FF7B3A7D01121E479000B0E004F070FB
:1011E7002F9000AFE004F080279000ADE0FCA3E073
:1011F700FDFFA3E0FAA3E0FBC3ED9BFDEC9AFC74B3
:10120700B12DF58274003CF583E0FB7D01121E478A
:101217009000AEE004F070069000ADE004F002111B
:011227000FB7
:0112280022A3
:101F37009000B2EEF0A3EFF0200327B2A37F057E57
:101F47000012221EB2A37F037E0012221E9000B34E
:101F5700E024FFF09000B2E034FFF0E07002A3E06D
:031F670070D9220C
:0F22400020030BB2A37F017E0012221EB2A32245
:101F6A009000AAEEF0A3EFF0200327B2A37F017E30
:101F7A000012221EB2A37F017E0012221E9000AB25
:101F8A00E024FFF09000AAE034FFF0E07002A3E042
:031F9A0070D922D9
:0D226D0000EF75F00BA4FF7EBEDEFEDFFC6F
:01227A002241
:10221E00EF75F003A4FF7E1A7DDFDDFEDEFCDFFA34
:01222E00228D
:10222F00EF75F005A4FF7E347DC3DDFEDEFCDFFA23
:01223F00227C
:10220C0000EF75F00DA4FF7E9C7D53DDFEDEFCDF40
:01221C00FAC7
:01221D00229E
:10196A002020202043484F4F5345202055534552AD
:10197A0053202020002020202020312E5B524F4F60
:10198A00545D2020202020202000202020205B32AF
:10199A005D205B335D205B345D2020202020002009
:1019AA00202020202020202020202020202020202D
:1019BA0020202000202020494E505554204E4557C3
:1019CA0020434F44452020200050617373776F7283
:0E19DA00643A202A2A2A2A2A2A2020202000C5
:101B0000C3EF940AEE64809480500FEF9400EE646B
:101B100080948040057E007F0122D3EF940EEE6416
:101B2000809480400FEF9410EE6480948050057E86
:101B3000007F0222D3EF940CEE64809480400FEF7C
:101B4000940FEE6480948050057E007F09227EFF12
:031B50007FFF22F2
:10042700E49000A7F0A3F074FFA3F0A3F0E490001A
:10043700A5F0A3F0C201121DB4AC06AD079000A64B
:10044700E025E0FF9000A5E033FE74122FF58274DB
:10045700003EF583ECF0A3EDF07F017E0012222F22
:100467009000A6E025E0FF9000A5E033FE74122F70
:10047700F58274003EF583E0FEA3E0FFD39409EE16
:1004870064809480500BC3EE64809480400302051F
:1004970055EF640B4E6006EF640C4E705DD3900011
:1004A700A6E094009000A5E0648094805032E4F0C8
:1004B700A3F0C201121DB4AC06AD079000A5E0FA87
:1004C700A3E0FB25E0FFEA33FE74122FF5827400E8
:1004D7003EF583ECF0A3EDF0EB2408FF7B3A8015A3
:1004E7009000A6E024FFF09000A5E034FFF0A3E021
:1004F7002409FF7B2A7D01121E479000A6E025E014
:10050700FF9000A5E033FE74122FF58274003EF5CC
:1005170083E0FEA3E0FF640D4E6006EF640E4E70AD
:10052700057EFF7FFF22C201121DB4AC06AD079006
:1005370000A6E025E0FF9000A5E033FE74122FF53A
:100547008274003EF583ECF0A3EDF002046790009F
:10055700A5E0FCA3E0FD2409FFC007ED25E0FFECC3
:1005670033FE74122FF58274003EF583A3E0243026
:10057700FBD0077D01121E479000A6E025E0FF9003
:1005870000A5E033FE74062FF58274003EF583E084
:10059700FCA3E0FD74122FF58274003EF583E0FEA4
:1005A700A3E06D7002EE6C6007E49000A9F0A3F081
:1005B7009000A6E004F070069000A5E004F0C39058
:1005C70000A6E094069000A5E064809480500302A2
:1005D700043B9000A9E0FCA3E0FDBCFF0FBDFF0CAE
:1005E7009000A9E4F0A304F0FF7E0022200003029C
:0905F7000786ED4C600302077E4B
:1006000090002EA3E0FF1222AE90003EA3E0FF1266
:1006100022AE90004EA3E0FF1222AEE49000A7F0BD
:10062000A3F09000A7E0FEA3E0FFC39403EE648074
:100630009480400302077EEFC4F8540FC868FFEEB1
:10064000C454F048FE742E2FF58274003EF583E00A
:10065000FCA3E064014C600302076D74FF9000A9E5
:10066000F0A3F0742C2FF58274003EF583E0FEA316
:10067000E0FF9000ABEEF0A3EFF01222AEE49000AA
:10068000A5F0A3F09000A5E0FEA3E0FFC39406EE62
:10069000648094804003020752EF25E0FFEE33FEB2
:1006A00074122FF58274003EF583A3E0FF1222AE90
:1006B0009000A6E025E0FD9000A5E033FC9000A8A6
:1006C000E0C4F8540FC868FF9000A7E0C454F04895
:1006D000FE74202FF58274003EF583E5822DF582AD
:1006E000E5833CF583A3E0FF1222AE9000A6E0254F
:1006F000E0FD9000A5E033FC9000A8E0C4F8540FA2
:10070000C868FF9000A7E0C454F048FE74202FF59D
:100710008274003EF583E5822DF582E5833CF58306
:10072000E0FEA3E0FF74122DF58274003CF583E037
:10073000FCA3E06F7002EC6E6007E49000A9F0A3E8
:10074000F09000A6E004F070069000A5E004F0022E
:1007500006849000A9E0B4FF14A3E0B4FF0FA3E067
:10076000FEA3E0FF9000A9EEF0A3EFF0229000A816
:0E077000E004F070069000A7E004F0020622FC
:0B077E0074FF900000F0A3F0E4FEFF09
:01078900224D
:10078A00E49000A9F0A3F074FF900000F0A3F090A9
:10079A000002E07004A3E0640170727BFF7A1979A9
:1007AA006A7F01FE1214377BFF7A19797F7F027EF6
:1007BA00001214377BFF7A1979947F037E00121492
:1007CA00377BFF7A1979A97F047E00121437C20198
:1007DA00121DB4900000E0FEA3E0FF640D4E600617
:1007EA00EF640E4E70051220238031900000E0FE67
:1007FA00A3E0FFD39400EE6480948040D1EF940587
:10080A00EE6480948050C79000A9EE800B9000029D
:10081A00E0FFA3E09000A9CFF0A3EFF07BFF7A19E5
:10082A0079BE7F017E001214377BFF7A1979D37F54
:10083A00027E001214377BFF7A1979A97F037E00A2
:10084A001214377BFF7A1979A97F047E00121437B4
:10085A00E49000A5F0A3F09000A9A3E0FF1222AE55
:10086A00900002A3E0FF1222AEC201121DB4900052
:10087A00A7EEF0A3EFF07F017E0012222FC39000B3
:10088A00A8E0940B9000A7E064809480401D7F014B
:10089A007E00121F377F017E0012222FC201121D15
:1008AA00B49000A7EEF0A3EFF080D29000A7E0FC8E
:1008BA00A3E0FD9000A5E0FAA3E0FB25E0FFEA3300
:1008CA00FE74122FF58274003EF583ECF0A3EDF06E
:1008DA009000A9E07004A3E064017027EB25E0FF13
:1008EA00EA33FE74122FF58274003EF583E0FCA30E
:1008FA00E0FD74062FF58274003EF583ECF0A3ED5B
:10090A00F080609000A5E0FCA3E0FD25E0FFEC3359
:10091A00FE74122FF58274003EF583E0FAA3E0FB21
:10092A00ED25E0FDEC33FC9000AAE0C4F8540FC8B2
:10093A0068FF9000A9E0C454F048FE74002FF582C5
:10094A0074003EF583E5822DF582E5833CF583EA62
:10095A00F0A3EBF0740E2FF58274003EF583E4F0F9
:10096A00A304F09000A5E0FCA3E0FD240AFFC00761
:10097A00ED25E0FFEC33FE74122FF58274003EF58C
:10098A0083A3E02430FBD0077D01121E479000A606
:10099A00E004F070069000A5E004F0C39000A6E021
:0F09AA0094069000A5E0648094805003020861D9
:0109B900221B
:0D227B00D2A100D2A00000C2A100C2A0228A
:101FF700E4FEEEFD3395E0FCC3ED9408EC648094B9
:1020070080500FEF3392A1EF25E0FFD2A0C2A00EC0
:0B20170080E0D2A1D2A020A1FDC2A059
:01202200229B
:1021CE0053877F759850438E04759CFA438E014356
:0721DE008E10C2ACD2AF224B
:0822AE008F993099FDC29922BD
:1021F900120E09FF600C1222AE740129F9E43AFAB1
:0322090080EE2242
:0722B6003098FDAF99C298BA
:0122BD0022FE
:100B6900E49000ADF0A3F0A3F0C2A77F0AFE122221
:100B79006DD2A77F0A7E0012226DE4FDEDC39410A9
:100B8900748094805029C2A60000D2A6000020A734
:100B99001B7E007401A805088005C333CE33CED867
:100BA900F9FF9000AEE04EF0A3E04FF00D80CDE4E8
:100BB900FDEDC3941074809480502B7E007401A8BD
:100BC90005088005C333CE33CED8F9FF9000AEE0D7
:100BD9005EFEA3E05FD39400EE94004006ED04901E
:100BE90000ADF00D80CB9000ADE024FEB4100040C4
:100BF90003020D12900C0B75F003A4C58325F0C5F3
:100C09008373020C3B020C48020C56020C64020C62
:100C190072020C80020C8E020C9B020CA8020CB50D
:100C2900020CC2020CCF020CDC020CE9020CF60227
:100C39000D03122240900000E4F0A304020D0E12ED
:100C49002240900000E4F0A37402020D0E1222402B
:100C5900900000E4F0A37403020D0E1222409000EC
:100C690000E4F0A37404020D0E122240900000E487
:100C7900F0A37405020D0E122240900000E4F0A3C7
:100C89007406020D0E122240900000E4F0A37407CE
:100C99008073122240900000E4F0A3740880661269
:100CA9002240900000E4F0A374098059122240E424
:100CB900900000F0A3F0FEFF22122240900000E411
:100CC900F0A3740B803F122240900000E4F0A3745B
:100CD9000C8032122240900000E4F0A3740D8025AC
:100CE900122240900000E4F0A3740E8018122240F2
:100CF900900000E4F0A3740F800B122240900000D2
:090D0900E4F0A3740FF07E00FF7A
:010D120022BE
:101DB40074FF900000F0A3F030011912224FEF6479
:101DC4004D4E70101219E874FF900000F0A3F07EDD
:101DD400007F4D2230040B300208E4FFFE1210FF96
:101DE400C204120B69900000E0FEA3E0FFF470024D
:051DF400EEF460C422C2
:1016EC0048007C2021121317540043410092004102
:0516FC00007B00C103AA
:05000600C2B3C2B222EA
:031C4300A3E0FD1E
:101C4600D2B3EF54FEFFE4FEEEC394087480948092
:101C56005015EF30E004D2B48002C2B4D2B2C2B2A0
:101C6600EFC313FF0E80E1E4FEEEC3940874809484
:101C7600805015ED30E004D2B48002C2B4D2B2C2B4
:0A1C8600B2EDC313FD0E80E1C2B3FE
:011C90002231
:101BF400D2B3EF4401FFE4FDEDC3940874809480F4
:101C04005015EF30E004D2B48002C2B4D2B2C2B2F2
:101C1400EFC313FF0D80E1E4FDEDC39408748094D9
:101C2400805017EEC313FE30B4054480FE8004EEEA
:0E1C3400547FFED2B2C2B20D80DFC2B3AF0643
:011C4200227F
:101BA400E4FD7F8E121C467D807F80121C467DA939
:101BB4007F90121C4690007DE0FD7F8C121C467FB6
:101BC40088121C437F86121C43A3E0FD7F84121CF1
:101BD40046A3E0FD7F82121C46A3E0FD7F80121C19
:101BE40046A3E0FD7F8A121C467D807F8E021C4640
:101A51007F8C121BF490007DEFF07F88121BF4A3A2
:101A6100EFF07F86121BF4A3EFF07F84121BF4A327
:101A7100EFF07F82121BF4A3EFF07F80121BF4EFD3
:101A8100547FA3F07F8A121BF4A3EFF0900080E053
:101A9100FFD3942274809480500AC3EF940774801A
:0A1AA10094805003D20322C20322F6
:1018E800E49000BFF0A3F0121A5190007CE0FFC40E
:1018F800540F900084F0EF540FA3F090007DE0FFA8
:10190800C4540F900086F0EF540FA3F090007EE0CF
:10191800FFC4540F900088F0EF540FA3F090007F9D
:10192800E0FFC4540F90008AF0EF540FA3F090002A
:1019380080E0FFC4540F90008CF0EF540FA3F09098
:101948000081E0FFC4540F90008EF0EF540FA3F015
:10195800900082E0FFC4540F900090F0EF540FA362
:01196800F08E
:01196900225B
:10122900202020202046494E474552204144442051
:1012390020202020002020202020505245535320D8
:10124900454E54455220202020002020312D205089
:101259006C656173652046696E67657220200020A0
:101269002020202020202020202020202020202075
:10127900202020002020205363616E205375636372
:1012890065737366756C202000202020322D506C08
:10129900656173652046696E6765722020002020AC
:1012A9002020202020202020202020202020202035
:1012B900200020202046756C6C79205363616E6E86
:1012C9006564202020200020202055722049443ABE
:1012D900202020202020202020202000010007138A
:1012E90000000000001BEF01FFFFFFFF01000301E9
:1012F90000050100031D002101000804010000038D
:10130900E700F801000804010000001300210100B2
:10131900040201000801000402020009010003059A
:0B13290000090100030D00110000008E
:0C1701004900520100060601000B00190F
:0F224F0030A2081222407E007F4D22E4FEFF22C3
:101EFD00E49000B3F0A3F09000B3E0FEA3E0FFC3C5
:101F0D009406EE64809480502074EF2FF582741245
:101F1D003EF583E493FF1222AE9000B4E004F0701E
:091F2D00D69000B3E004F080CE70
:011F36002288
:101DF900E49000CAF0A3F0121EFDE49000CAF0A31B
:101E0900F09000CAE0FEA3E0FFC3940AEE64809458
:101E190080502074E52FF58274123EF583E493FF18
:101E29001222AE9000CBE004F070D69000CAE00414
:031E3900F080CE68
:011E3C002283
:051EBF009000B2EFF0FD
:101EC400E4A3F09000B2E0FFA3E0C39F502A1222E3
:101ED400B69000B3E0FE245BF582E43400F583EFB2
:101EE400F0745B2EF582E43400F583E0FF1222AE39
:081EF4009000B3E004F080CB84
:011EFC0022C3
:10204D00121EFDE49000B2F09000B2E0FFC39406C2
:10205D00748094805011EF9012F593FF1222AE9080
:07206D0000B2E004F080E185
:012074002249
:10207500121EFDE49000B2F09000B2E0FFC3940799
:10208500748094805011EF90131793FF1222AE9035
:0720950000B2E004F080E15D
:01209C002221
:101CDA00E49000AAF09000AAE0FFC39406748094EE
:101CEA00805011EF9012EF93FF1222AE9000AAE0FB
:101CFA0004F080E1E49000AAF09000AAE0FFC39407
:101D0A0007748094805011EF90131E93FF1222AE35
:081D1A009000AAE004F080E152
:011D2200229E
:10209D00121EFDE49000B2F09000B2E0FFC3940B6D
:1020AD00748094805011EF90130193FF1222AE9023
:0720BD0000B2E004F080E135
:0120C40022F9
:1020C500121EFDE49000AAF09000AAE0FFC394065A
:1020D500748094805011EF90132593FF1222AE90D7
:0720E50000AAE004F080E115
:0120EC0022D1
:101D2300E49000A5F09000A5E0FFC39406748094AE
:101D3300805011EF9012EF93FF1222AE9000A5E0B6
:101D430004F080E1E49000A5F09000A5E0FFC394C7
:101D530006748094805011EF90132B93FF1222AEE0
:081D63009000A5E004F080E10E
:011D6B002255
:0415CB00AB07AA06BA
:1015CF009000AA120E6900000000EA900057F0EB9D
:1015DF00A3F0E49000AEF09000AEE0C394077480E7
:1015EF00948050399000AAE0F8A3E0F9A3E0FAA3A1
:1015FF00E0FBA3E02452F582E43400F583E0FFE43E
:10160F00FCFDFEEB2FFFEE3AFEED39FDEC38FC90C2
:10161F0000AA120E5D9000AEE004F080BA9000AA0E
:10162F00A3A3E0FEA3E4FFE4FDFC7808120E4A90AA
:10163F000059EFF09000AAE0FCA3E0FDA3E0FEA3A9
:10164F00E0FF90005AEFF0121EFDE49000AEF09014
:10165F0000AEE0FFC3940974809480501774522F2A
:10166F00F582E43400F583E0FF1222AE9000AEE085
:04167F0004F080DB18
:011683002244
:0809BA009000A5EEF0A3EFF0A0
:1009C200A37401F0A37400F0A3745BF0C2AC74FFD3
:1009D200900000F0A3F0FB7A1279297F017E0012C9
:1009E20014377BFF7A12793E7F027E00121437C2DF
:1009F20001121DB4EF640F4E6003020B607F02FE12
:100A020012220C7BFF7A1279537F017E0012143777
:100A12007BFF7A1279687F027E001214377BFF7A9D
:100A22001279687F037E001214377BFF7A1279688D
:100A32007F047E0012143712204D7F0C121EBF7FDE
:100A4200017E0012222F900064E0FF1222AE90007D
:100A520064E06003020B567F02FE121F6A7F017E72
:100A62000012222F1220757F0C121EBF7BFF7A12FA
:100A7200797D7F027E001214377F037E0012220CE2
:100A82007BFF7A1279927F037E001214377BFF7A02
:100A92001279687F037E001214377BFF7A1279A7DE
:100AA2007F037E00121437020B4720A203020B4F72
:100AB20012204D7F0C121EBF900064E06003020BF7
:100AC200477F01FE12220C7F027E00121F6A121C57
:100AD200DA7F0C121EBF1220C57F0C121EBF9000BF
:100AE200A5E07004A3E064017004FFFE800F900093
:100AF200A5E0FEA3E0FF7C007D0A120E221215CBB8
:100B02007F0C121EBF7BFF7A1279BB7F037E00121D
:100B120014377BFF7A1279D07F047E00121437904B
:100B220000A5E0FEA3E0FFC39401EE648094804040
:100B32000BEF2430FB7D047F0B121E477F0A7E00E1
:100B420012220C8008C201121DB4020AAC7F037E7D
:100B520000121F6A7F027E00121F370209F1D2AC17
:070B62007F027E0002220C5D
:1019E800E49000ADF0A3F078AF7C007D017BFF7A36
:1019F800137931FE7F03120DE312204D7F0C121E66
:101A0800BF900064E070F21220757F0C121EBF12A6
:101A1800209D7F10121EBF900064E07020122240AB
:101A28007F0D7E0012215C7F027E0012220CE4FFF3
:101A3800FE12215C7F037E0012220CD3227F017EDE
:081A480000121F3720A2FDC3AC
:011A50002273
:10170D004200C200004200C800004200C400004276
:06171D0000C60000C1043B
:1021B600438E805389F0438901758AAE758CFBC2C4
:0821C6008DD2A9D28CD2AF2208
:03000B00021724B5
:10172400C0E0C083C082C0D075D0089000C4E0B4CB
:10173400271AA3E0B410159000C7E004F0700690D7
:1017440000C6E004F09000C4E4F0A3F09000C6E00A
:101754007004A3E0643770089000C6F0A3F0D204CC
:101764009000C5E004F070069000C4E004F090001E
:10177400C3E004F070069000C2E004F09000C2E000
:101784007004A3E064C870069000C2F0A3F0900057
:10179400C8E0FEA3E0FF9000C2E0FCA3E0FDD39FFD
:1017A400EC9E5004D2A48009D3ED9FEC9E4002C26B
:1017B400A4758AAE758CFBD0D0D082D083D0E032B1
:08229C007F087E5DDEFEDFFC21
:0122A4002217
:0522880012228DD2B608
:05228D0000000000222A
:0A229200C2B7122288D2B502228DD5
:1021E500D2B612229CD2B512229CC2B512229CC232
:0421F500B602229C70
:0F225E00C2B612228DC2B5122288D2B502228DCD
:10211400E4FEEEC39408748094805013C2B6122275
:102124008DEF3392B5122288EF25E0FF0E80E3C2D3
:04213400B602229C31
:1020ED00E4FEFDEDC39408748094805017C2B600D1
:1020FD0030B5047F018002E4FFEE25E04FFED2B63D
:06210D00000D80DFAF06AB
:0121130022A9
:0B213800122114122143AF05122114E4
:10214300E4FFD2B60030B50DEFC394FF74809480E2
:0821530050030F80F0C2B6003A
:01215B002261
:02219B00AD078E
:10219D001221E57FA01221381221E57FA112211411
:0921AD001221431220ED02225E12
:0A217C00F583A3E0FD9000A9E0FF49
:10218600AC071221E57FA0122114122143AF0412DD
:05219600213802225E69
:100E9A00E49000A9F09000A5F0A3F09000A5E0FC72
:100EAA00A3E0FDC39406EC648094805045ED25E0F0
:100EBA00FFEC33FE74062FF58274003E12217C90FB
:100ECA0000A6E025E0FF9000A5E033FE74062FF5AA
:100EDA008274003EF583A3E0FF1222AE9000A9E0DF
:100EEA0004F09000A6E004F070B19000A5E004F0D0
:100EFA0080A9E49000A9F09000A5F0A3F09000A9C1
:100F0A00E054F0F0E02410F0E49000A7F0A3F09091
:100F1A0000A7E0FCA3E0FDC39408EC648094804041
:100F2A0003020FB0ED25E0FDEC33FC9000A6E0C40F
:100F3A00F8540FC868FF9000A5E0C454F048FE7446
:100F4A00202FF58274003EF583E5822DF582E58334
:100F5A003C12217C9000A8E025E0FD9000A7E03338
:100F6A00FC9000A6E0C4F8540FC868FF9000A5E002
:100F7A00C454F048FE74202FF58274003EF583E5D0
:100F8A00822DF582E5833CF583A3E0FF1222AE9021
:100F9A0000A9E004F09000A8E004F070069000A711
:100FAA00E004F0020F199000A6E004F07006900029
:100FBA00A5E004F0C39000A6E094039000A5E064C5
:080FCA008094805003020F0720
:010FD20022FC
:100FD300E49000A9F09000A5F0A3F09000A9E0FF31
:100FE30012219BEFFD9000A6E025E0FF9000A5E015
:100FF30033FE74062FF58274003EF583E4F0A3ED0F
:10100300F074062FF58274003EF583A3E0FF1222ED
:10101300AE9000A9E004F09000A6E004F070069002
:1010230000A5E004F0C39000A6E094069000A5E0BC
:101033006480948040A5E49000A9F09000A5F0A3FB
:10104300F09000A9E054F0F0E02410F0E49000A741
:10105300F0A3F09000A9E0FF12219BEFFD9000A800
:10106300E025E0FB9000A7E033FA9000A6E0C4F887
:10107300540FC868FF9000A5E0C454F048FE7420E4
:101083002FF58274003EF583E5822BF582E5833AE2
:10109300F583E4F0A3EDF074202FF58274003EF5A0
:1010A30083E5822BF582E5833AF583A3E0FF1222E1
:1010B300AE9000A9E004F09000A8E004F070069060
:1010C30000A7E004F0C39000A8E094089000A7E014
:1010D3006480948050030210569000A6E004F070E0
:1010E300069000A5E004F0C39000A6E094039000EE
:0B10F300A5E0648094805003021044CC
:0110FE0022CF
:10215C00C3EE94004012D3EF9419EE940050099002
:10216C0000C8EEF0A3EFF0227F017E00121F372291
:03000300021E805A
:101E8000C0E0C0F0C083C082C0D075D000C000C028
:101E900001C002C003C004C005C006C0077F057EA4
:101EA00000121F37D007D006D005D004D003D002CF
:0F1EB000D001D000D0D0D082D083D0F0D0E0329B
:0922A500C288D2A8D2A9D2AF224E
:0300000002185C87
:0C185C00787FE4F6D8FD7581200218A307
:100D1300E709F608DFFA8046E709F208DFFA803EC2
:100D230088828C83E709F0A3DFFA8032E309F608AF
:100D3300DFFA8078E309F208DFFA807088828C8317
:100D4300E309F0A3DFFA806489828A83E0A3F608CB
:100D5300DFFA805889828A83E0A3F208DFFA804CA5
:100D630080D280FA80C680D4806980F2803380107C
:100D730080A680EA809A80A880DA80E280CA8033E5
:100D830089828A83ECFAE493A3C8C582C8CCC5835D
:100D9300CCF0A3C8C582C8CCC583CCDFE9DEE7802D
:100DA3000D89828A83E493A3F608DFF9ECFAA9F0AC
:100DB300EDFB2289828A83ECFAE0A3C8C582C8CC02
:100DC300C583CCF0A3C8C582C8CCC583CCDFEADE1B
:100DD300E880DB89828A83E493A3F208DFF980CC7D
:100DE30088F0EF60010E4E60C388F0ED2402B40476
:100DF3000050B9F582EB2402B4040050AF2323451D
:060E03008223900D6373D1
:100E0900BB010689828A83E0225002E722BBFE02E7
:090E1900E32289828A83E493221A
:100E2200EF8DF0A4A8F0CF8CF0A428CE8DF0A42EE4
:020E3200FE229E
:100E3400C5F0F8A3E028F0C5F0F8E5821582700249
:060E44001583E038F022E6
:100E4A00E8600FECC313FCED13FDEE13FEEF13FF86
:030E5A00D8F122AA
:0C0E5D00ECF0A3EDF0A3EEF0A3EFF02208
:100E6900A8828583F0D083D082120E80120E801260
:100E79000E80120E80E473E493A3C583C5F0C58385
:100E8900C8C582C8F0A3C583C5F0C583C8C582C8D3
:010E99002236
:1018680002000EE493A3F8E493A34003F68001F288
:1018780008DFF48029E493A3F85407240CC8C33381
:10188800C4540F4420C8834004F456800146F6DF50
:10189800E4800B0102040810204080901684E47E46
:1018A800019360BCA3FF543F30E509541FFEE49345
:1018B800A360010ECF54C025E060A840B8E493A30C
:1018C800FAE493A3F8E493A3C8C582C8CAC583CA37
:1018D800F0A3C8C582C8CAC583CADFE9DEE780BEEF
:0117230000C5
:00000001FF
